:100000000C9471150C9499150C9499150C949915E0
:100010000C9499150C9499150C9499150C949915A8
:100020000C9499150C9499150C9499150C94991598
:100030000C9499150C9499150C9499150C94991588
:100040000C94D1210C9499150C9499150C94991534
:100050000C9499150C9499150C9499150C94991568
:100060000C941B220C949915110006060606050433
:100070000730300000300030000038000005B1408B
:100080003830091D0EA80CF51906CF60183C8361A5
:10009000F00C86C1331806CF60183C8361F0A4FFD2
:1000A000F30C86C1331806CF60183C8361F00C86D0
:1000B000C13318EA6700004143300C115E194EC687
:1000C000E808219FA4A36C16CD2AC360D877692CB9
:1000D000AD8A4371268FE489408FC8113524057598
:1000E000A80A16C11A5C822BF8013F40F20367335D
:1000F0004846A9301527422558004277300C115E3A
:100100001952048A742A3801A2400451A16014854E
:100110000721380444435A4C8A692131A446E488B3
:100120001C87D18016CAE259308B66E12C1406C4B4
:10013000281ED0237848DE931EC1037A100DA891A3
:100140002C9C45B36016CF4259400DA3F1881C5139
:100150004362488B49312925461138828463281827
:1001600045011A200A44C0294CC5894011A9A102A1
:10017000004354D8CB139E249CC49370124FC249A1
:100180003C0927F1249CC49370124F45A80C15A17B
:10019000325484CA9378104FE2414088070121A06D
:1001A0000384800ED1013A2497C032508849213906
:1001B00020C823712C0C66D1281E0474880C13816E
:1001C0001A548208004450AE1A1D6E0956426A3015
:1001D0001523237478928D92592CCDC4893C8E6856
:1001E0002125264335B002574152C8FF290C86A16C
:1001F000301886C260180A8361280C86A1301886E0
:10020000C260180A8361280C86A1301886C2601863
:100210000A836114004542EF0B113E0A58826A407E
:1002200011A6A25CBE5271091AC445680C97A1219F
:100230005C884670294886E800219E84A36816ECF5
:10024000725DFF8759B28A46D9269CA48B7890EFBD
:10025000013AC286C818014675700A1D3E05DE8047
:100260003B6887B185B5483DA44749C04B20012F65
:100270008108BAC441D81606615B14066D51183462
:100280000671C01A030233048621A12C04437008AE
:100290004C8321300DAD8155AC8A45E03814C5C280
:1002A0005218090C712430C481C810074233240746
:1002B000CD9018364362E0080BA1232C848EB01039
:1002C0003C4123F8048DE01334810A00476B2A0C6B
:1002D000112E19C6C3880813A102547C0C8FD13586
:1002E0003AC7F6D8201A249360928B6251AA4A85A5
:1002F000301014C2404C092321258C44A4301490A2
:10030000C2503C0B43F12C8C85B330160DC36030CA
:100310000C83B1348C86024A428908111D2483540F
:10032000400C0801312043C4800C112312488C4832
:1003300020317EC03F40024853300C11DE19CE847C
:10034000992895990953512E23994501890109242A
:10035000C63390180E41623405C9337128CED4914A
:10036000BA244FE41575A48E14111054C48BFE3CAE
:100370000291F806C6011C1886706014C4814118E9
:100380000904A1549C88D4700200491530091D0E3F
:10039000A80CF57FC60FF8FF8099A1FECF00004A98
:1003A000861F7C118E10B68266C81057C25A508CB8
:1003B000A9213D204390780C820209100622610C8D
:1003C000064391200A82E1480487C0805C9044D0B3
:1003D000381203A348180B22812884C49208120DF6
:1003E000046A4C0B8A213920889308128B424824D6
:1003F0000B2261308A04D138128103810406241152
:100400001404C391180683A1481801C2402418831C
:10041000A0680C41E279400D89312DA88485B80C83
:100420005941234C004B77300C113E29464867C98F
:10043000301667F2441082F1440E45234912CB6412
:100440004124140681509AC351710E85E5391096E6
:10045000E7405820C370810EC225320897C810604B
:10046000A28FE4FD4587E01219844B64102ED06101
:10047000B04006C2F21C08CB73282ACEE1A0340794
:1004800084C22092C982582449A2891C8A0742301A
:1004900022CFC4B13099A5838C8A09004C1E2A0C46
:1004A000110EFCFF3FA012A07EE0821FF00FF8109B
:1004B00025839C51227EC03FE0004D411E6C113EC1
:1004C00011B04395981611036A3C0EC79942081A59
:1004D0008A3485211094C6E3709C4F21040D459AFF
:1004E000C210084AE371384E0EC48930524DA481BF
:1004F000FCC010C5C490984D0A05004E822A0C110C
:100500002E1948E36F131C864310110C8341780C9D
:10051000855173280CC5614910062291240A439124
:10052000381087E1401807C4801C8A4362480EC413
:1005300021312487E1A018948360580CCA41302CE3
:1005400046C161310A0C8C816178CCE719020367DE
:10055000100C9C41307006E1A01D860376200ED859
:10056000A13858070341218E049448124E62592045
:100570008B86F368220C45C1201E2202004F6D308D
:100580000C113E29468823682ACB80C1200485535C
:100590001412CF60409882C3A1702246427A148818
:1005A000CA4120AE0671C818C3216B0887CC211C34
:1005B000B08760C020C1E18A04864B1218D2436A1A
:1005C000508D9F7A508DD4836A500FE9413D4A1176
:1005D000580042580328211920859380184803F2B7
:1005E0004C1C2B83593AC8A8980050442D0C110E6E
:1005F00035B6CBD471428AA948099006122C2A46F6
:1006000080D810430124140252F0038F4A8011ADA8
:100610006265A84C75B10EC9E11A3C831FF8A58527
:10062000F35026C685B8BC31511ECE02050000002D
:100630000004FFFF0000060006060606020407305D
:1006400030000030003000003F00000236403F30F4
:10065000A9C32F44D910211E65B364982B7369AACE
:100660004DC5993A93E70931A4A5A4989213823A0B
:1006700054068B68092EE115BC821FF00324C13B90
:10068000A145B00AD5814A4C4DC80000415F302CCD
:10069000C21744D910211E65B364186CC2453C08CA
:1006A000E8109B46C682881649E351249026815063
:1006B00096C46151100726391C198590681281B2C1
:1006C000A9385367F23C2186B49414537242508780
:1006D000CA60112DC125BC8257F0037E8024782783
:1006E000B40856A13A5089A90919004251EE6BC2CB
:1006F0009FC03A480B68E13C988832412A8D0B91A3
:10070000296C848EEFE98378904EC249B8C936D9F6
:10071000285A25B360970B63652C0DC5913E90C890
:100720002008AC4145A80A94813A4C09691135A0CA
:10073000C723692A0C46E91CA4610200437E302CC1
:10074000C22F44E908211E65B364982B73692A0EF1
:10075000C5993A93E70931A4A5A4989213823A5413
:10076000068B68092EE115BC028981524A4C256826
:10077000389480014D02063411080DA1591001C7AB
:10078000E02426C373A00C50A1324403CBF0110E19
:10079000C341980C869164308C24836124190C2306
:1007A000C960184906C34832184692C130920C8677
:1007B0009164308C260242D4000044596E7BC22DD5
:1007C000012BB41254A2D4801A9D0813A954904A44
:1007D00023237205AC4155A010D2226A408F47D224
:1007E0005498CB9251360927D9281A5566C11482DC
:1007F000024B10892B61242C0482B00C8CA132385E
:1008000006AA00152882449806D64012600229A044
:10081000051200456E302CC22DC26A508DAD848EFB
:10082000A0111A0366600C9881316006C680191AFF
:100830008246E00C27637484904FD251368B66E574
:10084000100ECC41080C06C66018188361600C8637
:1008500081310C01E1C01C04C7A2596D944EF241D4
:1008600042C7C8380D1C41233406CCC0183003637E
:10087000C00C8C013334048DD01156836A6C25581A
:100880000000000004FFFF0000E00004040606056D
:100890000707252FFDF820F81F00041D082916035F
:1008A000200600008154210E0448814CF80F548B1F
:1008B0004021020022138961B5D40814640A12474A
:1008C000868811122808002345102881D422438AE3
:1008D0000C2922A588942242AA08A922A4C8902201
:1008E000438A482922251EFC800C9152444A11213A
:1008F000F3E0074488942252A808A922A4C89022B1
:10090000438A482922A588902A420A00242C102ACA
:100910007954234C5B83AAD8382954A258428C09B5
:10092000576BDBA3676D5BB8306184089311295462
:10093000A41133A484E90C00253D102881542146DC
:10094000C210093424868C21316408112464CC102F
:100950002243982C616A09534B982C616A09534BC6
:10096000980C2132668820213205992123C8A020C5
:1009700064821811002636102881D432894E159BC6
:100980004264881121468430E1C284CB163D79301F
:100990001D097224C8912882840892126848A069AF
:1009A000C415A313858AB869C46C01270D8441B5A9
:1009B000CC0832E288902000281FC8678155124673
:1009C000A60C993284C810A28610FD5784282A44A8
:1009D000A810A142848400291EC87781D51844A894
:1009E00010A1425411A21521FA1B42B42144A60CB5
:1009F0009942C304012A1F8D43ADD51A3A2CCC98D5
:100A00001043863C08B1E8D8A1150F824C11664C02
:100A1000B0A1A3002B100C438D542248A3071F0C38
:100A2000224823002C0D84417DCC1081624898100F
:100A3000002D090C419554F8C1002E0B044181CCC6
:100A400010814204002F2B0F3881542D4A96685193
:100A5000B2448B92255A946851B2448B92255A9491
:100A60002CD1A2648916254BB42859A245C99205F8
:100A7000301D102881D432A88A8D9342258A25C43E
:100A8000FFFF61B212858AB861A5D0140031110848
:100A9000788154A2A692070F4610A2FFFF1F3229A9
:100AA000102881D432A88A8D9342258A25C4BB128E
:100AB000E2CA162D4BB66859B245CB16ADB6685989
:100AC000B245CB3EF80101332810288154F803B217
:100AD00045CB922D5A966CD1B2658D9E445C98346C
:100AE00061FA265C897124CC1869B42C6531003414
:100AF00028102881D42A4B98DAB284A92D4B98DA91
:100B0000B284A92D428A0C2932A4C8102A4388A293
:100B1000073F2048981E01352410288154F803C44B
:100B2000F40B536D9CBC3054A258428484E91821C4
:100B3000C264250A1571C34AA129003627102881ED
:100B4000D432A88A8D9342258A25C4982E4CB5713B
:100B5000F2C250896209F187C94A142AE286954295
:100B60005300372110288154F80374D9912056B6C8
:100B70005AB2D512265B2D61B2D592AD2DD9DA923B
:100B8000AD0E00382A102881D432A88A8D934225D0
:100B90008A25C487C94A142AE286111B27854A146C
:100BA0004B880F93952854C40D2B85A60039291026
:100BB0002881D432A88A8D9342258A25C41F262BEA
:100BC00051C8C41337AD4C10A6314284C94A142A07
:100BD000E286954253003A0F844489CC1081423C0E
:100BE000C4225088003B12044585CC1081423CC48D
:100BF00022500C091302003C178A548D5414378C70
:100C0000506D0C111B378E58B962B51B28003D0E74
:100C1000CE328B54F8C17A881F7CB0003E188A54BB
:100C20008D5408398E5875C52A2337AA506D4A113C
:100C30001B2710003F23102881D432A88A8D9342AD
:100C4000258A25444898DAA2454D5A5A2D61FA7BE7
:100C5000E84513262D0E0040669C297160450F86DD
:100C6000F983B00F461E3B67D454F142E44190290A
:100C700086A4082935240AAD49B50851914288282F
:100C8000424411228A1051848822441421A208115E
:100C9000458828424411228A105184A88891540F13
:100CA00046147A3084D48330C50811230FB23C48EF
:100CB000F300CF837B40F4C1E007C11D0141311037
:100CC000288154234CB86C519B9E3C888724881102
:100CD000214684181162448891214586101D71D4E3
:100CE000C4093122C4881023428EC440840442388F
:100CF0001028815450C6A88D1352458895204782EC
:100D00001C097224C891204782580952459CB46935
:100D1000E38494096225C8912088EF48102B41AAEA
:100D20008893368CD201431F102881D432A88A8D33
:100D30009342258A25C498FEFF1061B212858AB8B5
:100D400061A5D01400441B1028815458D5C6C90B86
:100D50006225C825C4FFFFBB64255E3869B30A005D
:100D6000451410288154F803C4F48F19F18830FD1C
:100D7000E3073F20461210288154F803C4F48F196A
:100D8000F18830FD3F064720102881D432A88A8D93
:100D90009342258A25C4987EC487F861B212854C97
:100DA0003C71D3CA04014811102881542088FF0FD8
:100DB0001FFC8021FE3F2449090448814CF83F4034
:100DC0004A1710288154A6FFFF1F234498AC44A162
:100DD000226E58293405004B3F0F28815420872C60
:100DE0001909522508152154844C198A8814225156
:100DF0008A44A964E8D01D3C68F2203A74C94810BE
:100E000023518A48213284C89421448650115225A6
:100E1000889120968E004C0F10288154204CFFFFA3
:100E2000FFE3073F204D2A1028815420884E995611
:100E30008C1835F1E4C15F98406102850924449023
:100E4000104132068D183462D00442887F48004E2B
:100E5000281028815420982E3B659AAD5AC588A346
:100E60003628C8A0288284081222484AA02181A6D8
:100E700011AF36D35D0E094F1D102881D432A88AD8
:100E80008D9342258A25C4FFFF61B212858AB8611D
:100E9000A5D0140050231028815450C6A88D135299
:100EA00026889520478220BE2341AC0429134EDAC0
:100EB000304A4798FE8F01511D102881D432A88AEC
:100EC0008D9342258A25C4FFFF61B212858AB869D5
:100ED000C4CC040152371028815448C7A88D13523E
:100EE000268895209710DF912056825411276D187F
:100EF00031A2476548912145861419624488112121
:100F000046841C097224C891204800532710288168
:100F1000D432A88A8D9342258A25C49870B5766C00
:100F2000D6B6850B1346883059894245DCB05268E5
:100F30000A00541010288154F8036284E9FFFF7FEF
:100F400006005516102881542088FFFFFF3059896C
:100F50004245DCB052680A005637102881542048B8
:100F6000622009722488112146841899616448918D
:100F700021458610BD22438A0C2932C388102342A2
:100F80008E043912E448904388F22ECDD62B0057B8
:100F900041102881542088431203499023418E0434
:100FA0003912E4861023428C08913044C804A144CD
:100FB00008254228194184042524282141899BBE03
:100FC00061C4C844A122858A142A52A80C214A006F
:100FD000583B10288154284782580962448891213F
:100FE0004586108DCA9022528A083122E4D22144CB
:100FF00079D2A8D183182623428C083122A4CA10A2
:10100000A257448811214684983A02593410288105
:101010005420488258096244481529443785C8102D
:1010200023428C443112E412223C79D26CB584C93B
:1010300096254CB62C61B2650993254CB62C005A06
:101040002810288154F803B265C996255B966C591F
:10105000B265C996254CB62CD9B264CB922D4BB64D
:101060002CD9B20F7E40005B1009688155F84015FD
:10107000FDFFFFEAC103035C210F388154204B9828
:101080002CD9B2D496A5B62CB565A92D4B6D596A4D
:10109000CB525B96DAB214135D1009688155F8C023
:1010A00014FDFFFFEAC103055E0E8C41C3542267A5
:1010B0000A51122A08115F08D4007B54F803600B10
:1010C0008771BD541844D1A8096131122681D63ADE
:1010D0009A7059A35265C8912147861C71D2C55890
:1010E0003572F3A41C1182440812214884209162B5
:1010F000461E0879104605214402621F10288154BB
:10110000204C7F61AA8D9317864A144B88FFC364D5
:101110008B4ABC70D286842900631E102681D4328B
:10112000A88A8D9342258A25C498FE1061B2128543
:101130008AB861A5D01400641E10288154A6BF325D
:1011400041A6898B17859625C4FF61B212854C3C58
:1011500071D3CA04016520102681D432A88A8D93E8
:1011600042258A25C4E1831F30A671B131858AB832
:1011700061A5D01400661810288154248A4E99AABB
:101180002285684C0F9DF88C30FDFF1000672E10F3
:101190002871D45AD3C4C58B42258A25C461B212A2
:1011A000858AB861A50C5D59C2840B2763E3E245CB
:1011B000B18408933D28E28619220068171028811F
:1011C00054204C7F61AA8D9317864A144B88FFFFE9
:1011D00090006915063881CC1043848C78C044E8AF
:1011E000FF3FA9A20821016A1A0C4A71D414499040
:1011F000A4781813A4FFFF3F4494A4841235C808B0
:10120000016B3710288154204C7F97AC043122A405
:101210008A902243A80C216A0A1129458418896200
:1012200024C8A553A66C958942460895A9880CA99F
:1012300022C488102B41AE006C110828814C204438
:10124000FFFFFF51A113470C116D3F1C2681602049
:1012500061CC5413350F963C606108518962C61207
:101260001244481021418404111244481021418441
:1012700004111244481021418404111244481021E1
:1012800041840411124448016E15102681542061D6
:10129000AA8D9317864A144B88FFFF90006F1C108D
:1012A0002681D432A88A8D9342258A25C4FF61B253
:1012B00012858AB861A5D0140070201028715420BE
:1012C00061AA8D9317864A144B88FFC3648B4ABC6E
:1012D00070D2868429C2F46300711E102871D43242
:1012E00041A6898B17859625C4FF61B212854C3CB7
:1012F00071D3CA0461FA0372110C26815020F1E007
:1013000003226910D2FF3F04731D0E2681523287DB
:101310004A0D8B42C9705A34594E8B22C32C510945
:1013200036AAD0190274160A18814C21463F7AF069
:10133000400931FAFFACD89943C6087515102681CB
:10134000542088FFFF30598942269EB86965820083
:10135000762E10268154208890043912C4881023D8
:10136000428C083132A4C810A25F91214584181123
:10137000624488112147821C425C9E340500774AF2
:101380001C2681602048102115E42821668C083134
:10139000634488192342CC181952A6CA104244113A
:1013A000228A10518488141912634A11A119119AC2
:1013B00011A11911DA912033A21C22848810224233
:1013C0008808E5A993C64C01782D10268154204841
:1013D000821811626408D18A083122E410A2346AAA
:1013E000963059A32611A223428C082942B42146E3
:1013F0008418098204792E1028715421468418110A
:1014000052454811A2DF1422438C083122C48810AF
:1014100023428C04413C3C6AA7856927A458327555
:10142000284B027A1910268154F803B245AB2D5A85
:101430006DD1DA16ADB668B50F7E40007B224B4900
:1014400077541C47AC94A162C5C8D19F9132646A9D
:10145000A0317304C9D1DF152B67AC1CC1017C0A14
:10146000048A7954F8FF40017D204B49775418587D
:10147000CCD4B172E5E81F92AB5258A962D4D19F87
:10148000952A74C854B181007E1491219354094661
:10149000A844920741DE2029242E0C007F0600007C
:1014A0008154800600008154810600008154820628
:1014B000000081548306000081548406000081549A
:1014C00085060000815486060000815487060000CE
:1014D00081548806000081548906000081548A06E0
:1014E000000081548B06000081548C06000081545A
:1014F0008D06000081548E06000081548F06000086
:101500008154900600008154910600008154920697
:101510000000815493060000815494060000815419
:10152000950600008154960600008154970600003D
:1015300081549806000081549906000081549A064F
:10154000000081549B06000081549C0600008154D9
:101550009D06000081549E06000081549F060000F5
:101560008154A00600008154A10600008154A20607
:1015700000008154A31F1028815433894E159B42CB
:10158000644815214684307DBA6A7784E96F8B3EC2
:10159000F80101A40600008154A50600008154A6AC
:1015A0000600008154A74B202681E4ACB828E992BC
:1015B000854B963668F6DC59642853252C518844AF
:1015C000B922648A102B53844C292A489529868C89
:1015D00048B973250A1A546850A141850697216BB2
:1015E000A4A88488262DC230611228955283A600B3
:1015F000A80600008154A95C1C288160450F86F96B
:1016000083B00F461E3B67D454F142A44C91298409
:10161000A808214524CAB0495388101A6264D01022
:1016200023839A0C6A32A8C9A0268386181934C469
:10163000C8A02944280D9B128414112984A80C29C0
:1016400053848A97326AEED8C907631F04670F066E
:101650002900AA0600008154AB2410248FD40B2645
:101660006A226A2A2962A24C19328506911A448A92
:101670004CA132A58A942A6288AAC924AC0600002B
:101680008154AD0600008154AE0600008154AF06BF
:1016900000008154B010C721BB4B19536208991246
:1016A00023CA0C01B10600008154B2060000815427
:1016B000B30600008154B40600008154B51590278C
:1016C00075542088FFFF30D9A2071FB43081981EBF
:1016D00003B60600008154B70600008154B8060026
:1016E000008154B90600008154BA0600008154BB41
:1016F0002810248F5408264ED4B041A48A942A621C
:10170000A84CA13285A81A44A6923245CA1429626F
:10171000862A51C3828903BC0600008154BD06009D
:10172000008154BE0600008154BF0600008154C0F1
:1017300037D0298154224DF5F0A98712265CB6A82E
:101740004D4F1EC44312C4881023428C083122C45A
:10175000C8902243888E386AE28418116244881146
:10176000214762204202C137D02981D41C4C96F017
:10177000AC8713265CB6A84D4F1EC44312C4881014
:1017800023428C083122C4C8902243888E386AE2F2
:1017900084181162448811214762204202C23DD060
:1017A000298154236BD424897144880D1A356C2007
:1017B00061C2658BDAF4E4413C24418C083122C4D7
:1017C000881023428C0C293284E888A3264E881185
:1017D00021468418117224062224C3060000815475
:1017E000C4368F39815512238E043112E4C48887A0
:1017F000B2685D1EBC77C9481023418C043112A425
:10180000C8102243880C213284C8101A44A6494FBC
:10181000489120877704C50600008154C64E1BD826
:1018200080D47D10F481D007421F88440F083D18F2
:1018300012E4C190200F86047920D403A11E08F57C
:10184000208A900741863C08320BCB2C24B490D0E0
:10185000BA42C449112745DAE38FC9912D47962032
:1018600059820F083E18F960A403C706000081548E
:10187000C81CD0298154224DF5F0D1A4073DF801B0
:1018800062FAC78C784498FEF1831F10C91AD029D8
:101890008154244C96E2593EF80162FAC78C784490
:1018A00098FEF1831F10CA22D0298154236BD4E4FF
:1018B000087244880D1A356CC8831F20A67FCC8817
:1018C0004784E91F3FF80101CB209029815412235E
:1018D0009004391204C58887EEC10F10D33F5EB55E
:1018E0002BC2F48F1FFC8000CC13C86981542045A3
:1018F000D5B0A98610A2FFFFFF9F00CD11C8698156
:1019000054A286A2D911A2FFFFFF9F00CE1ACC4994
:1019100081542267CC14893144880C1A316C1041EF
:10192000FAFFFFFF1100CF16896981D510238204C9
:101930000A1262C4032345FFFFFFBF01D006000067
:101940008154D10600008154D224D0298154224DE3
:10195000F5F0D1A4471A54C5C649A112C512E2FF39
:10196000FF3059894245DCB052680A00D322D029A1
:101970008154244C96E2991B54C5C649A112C51244
:10198000E2FFFF3059894245DCB052680A00D42991
:10199000D0298154236BD4E4087244880D1A356C25
:1019A0009C41556C9C142A512C21FEFF0F939528C5
:1019B00054C40D2B85A600D51D102881D432A88AC9
:1019C0008D9342258A25C4FFFF61B212858AB861D2
:1019D000A5D01400D62790298154122390043912DF
:1019E00004C58887D8A02A364E0A95289610FFFF8E
:1019F00087C94A142AE28695425300D7060000811F
:101A000054D80600008154D91DD0298154224DF5A7
:101A1000F0D1A40711C4FFFF7F98AC44A1226E58F7
:101A200029340500DA1BD0298154244C96E259123E
:101A3000C4FFFF7F98AC44A1226E5829340500DB17
:101A400022D0298154236BD4E4087244880D1A35BE
:101A50006C0841FCFFFF87C94A142AE2869542536D
:101A600000DC209029815412239004391204C58887
:101A7000878E20FEFFFFC364250A1571C34AA12982
:101A800000DD0600008154DE0600008154DF3410C2
:101A900028815432894E159B42458811214684186D
:101AA0001162444815217286C819224888A420561C
:101AB000825C42FCEF929520928208122267889401
:101AC00002E03A12288156224FFD7810E3418C87BC
:101AD000C9D184CB1A952A438E0C3932E488932ECF
:101AE000C6AA919B27E588102442900841220489C8
:101AF0001433F240C883302A082112E136122881BB
:101B000056244DF9EC617734E1B246A5CA902343DF
:101B10008E0C39E2A48BB16AE4E6493922048910BB
:101B2000244290084122C58C3C10F2208C0A428845
:101B300004E23D122881D62A6CF8E8108264068EF1
:101B40001A0F8BA30997352A55861C197264C81180
:101B5000275D8C5523374FCA1121488420118244B8
:101B600008122966E4819007615410422400E306BC
:101B700000008154E43CD227815612239404491278
:101B800044C58887B3A30997352A55861C19726402
:101B9000C811275D8C5523374FCA11214884201165
:101BA000824408122966E48190076154103A340097
:101BB000E50600008154E63C1826815CB20E09AAB5
:101BC00007651E9C2864281931649412234A8C28C6
:101BD00031420F8A3C38F1E0835344891125469401
:101BE000183154C5D21C2AF1E0C8034349D09532BC
:101BF0000400E723902775D432A88A8D9342258A62
:101C000025C498FE1061B212858AB861A5D02C61F6
:101C100092B7340700E82610288154224DF5F0E9E8
:101C2000A135A88A8D9342258A25C4E1831F30A659
:101C3000713122858AB861A5D01400E92510288168
:101C400054244BF1EC616150151B27854A144B88D5
:101C5000C3073F604CE362630A1571C34AA12900C0
:101C6000EA2B10288154236B12E1907183460D1BDF
:101C70000FA541556C9C142A512C210E1FFC80315C
:101C80008D8B8D2954C40D2B85A600EB2AD027817E
:101C90005412239004391204C58887B541556C9CB1
:101CA000142A512C210E1FFC80318D8B8D2954C498
:101CB0000D2B85A600EC150728814C203488A251F5
:101CC000E3C9D0FF7F5349195202ED15073881CC83
:101CD00021426646E3C1D0FFFFA69232A44400EE43
:101CE0001C0CF8804C22670AD1903183460C1B0FE4
:101CF0009A20FDFF87D515242A0400EF1A091881C0
:101D0000CB102382040A1262C443498AFEFFAB8AC5
:101D10004A91130100F00600008154F10600008191
:101D200054F225D02981D4294C9A62D2A4C7C3BFCA
:101D300031A88A8D9342258A25C4FF61B212858A13
:101D4000B861A5D01400F32110288154244BF1EC84
:101D5000616150151B27854A144B88FFC364250A0F
:101D60001571C34AA12900F42710288154236B124E
:101D7000E1907183460D1B0FA541556C9C142A51AF
:101D80002C21FE0F93952854C40D2B85A600F51C1D
:101D9000102681D432A88A8D9342258A25C4FF61FA
:101DA000B212858AB861A5D01400F626D0278154D6
:101DB00012239004391204C58887B541556C9C14D0
:101DC0002A512C21FE0F93952854C40D2B85A60073
:101DD000F7168C4487D4124990A478681F7C301E73
:101DE0005A9104498A02F835102881D43241864D2F
:101DF0001327854A9452B523DE90404302490924B3
:101E0000449010414106051914641871B46A953262
:101E100055250A1571D2860D095300F91B1028812A
:101E200054224DF5F0E9212388FFFF3059894226DD
:101E30009EB869658200FA1A10288154244BF1EC8F
:101E4000A12588FFFF30598942269EB86965820026
:101E5000FB2010288154236B12E1907183460D1BE7
:101E60000F1141FCFF87C94A1432F1C44D2B1304F2
:101E7000FC1FD027815412239004391204C588878F
:101E80002141FCFF87C94A1432F1C44D2B1304FDD4
:101E90000600008154FE0600008154FF0600008108
:101EA0005400000004FFFF0000BF0203020404010D
:101EB0000205080D00FE09FE090001D703DC0BBF77
:101EC0002008D8C1E7FF3300210BD8C1A7E67DA7C2
:101ED000E46400220CD8C1274661144639FF06236A
:101EE00012D8C1678DC2281BB6281BB6288C725623
:101EF000002412D8C1A7C64396A4493C2769920D75
:101F0000714E062512D8C12766511265519CC7A58E
:101F100030296539112611D8C1E7AC466194AA5120
:101F20001265E192D3002709D8C1A7E675FE1528EE
:101F30000FD8C1A7C7799CD7913C47722200290EC0
:101F4000D8C127E6489E2379398F73062A0ED8C157
:101F50002746A9388C6A94F30B002B0BD8C1E75E97
:101F60001DD43CE7052C09D8C1E73FAE6A4E2D0AC7
:101F7000D8C1E7FBA0F30B002E0AD8C1E7BFC67398
:101F80008E022F0BD8C167C9E3BEE74C003013D8CF
:101F9000C1A7AA51164661144661146651AA53019D
:101FA000310DD8C1A7C66A92F73AE844003211D879
:101FB000C1270E591885799CAA713EEC3400331064
:101FC000D8C1A70D7B5CDE913C0AB32127023410F7
:101FD000D8C1A7C76A124659B761CE73220035101F
:101FE000D8C1A70D535ED9B4BC1466434E04361154
:101FF000D8C1A78E715ED9B4288CC26CC88900374D
:102000000DD8C1A70D7B5C8FF338CF193814D8C118
:10201000270E59188551980D59188551980D391169
:102020003911D8C1270E59188551A62D7939DCA947
:10203000003A0DD8C1E71ECF39533CE728003B0CCE
:10204000D8C1E71ECF39CBAAE6043C0FD8C16789B7
:10205000BB233992233992D3003D0BD8C1E779D8FD
:1020600089C3CE153E0FD8C1A7E5488EE4488EC47B
:10207000DD59003F0FD8C1270E591885795CCF294B
:1020800039154015D8C1270E5918855134255125C9
:10209000912A518E0C39114114D8C1A7AA51164664
:1020A000611446C314466114E634004213D8C1A734
:1020B0000D61568CB26C08B3629465434E05430EB5
:1020C000D8C1270E5918E53D66434E044414D8C1C3
:1020D000A70D61568CC2288CC2288CB26CC8A9008E
:1020E000450FD8C1A70D535E1FC2BC3EEC3400465D
:1020F0000DD8C1A70D535E1FC2BC9D054711D8C1A5
:10210000270E5918E54D531865DA92D3004814D8B4
:10211000C1A78551188551180D5318855118853957
:102120000D490CD8C1A70D6ADED74127024A0CD849
:10213000C1A70E6ADE5B71A7024B12D8C1A78551F9
:10214000560A93544ED228CC8A390D4C0BD8C1A7CD
:10215000E5FD3EEC34004D14D8C127A5499A684AE4
:102160004F95A892266992E634004E15D8C1A785EE
:102170005118695112B5449914466114E634004F60
:1021800014D8C1270E5918855118855118855198B2
:102190000D39115010D8C1A70D5A188551180D5A74
:1021A000DECE025116D8C1270E5918855118855117
:1021B0001825514B36E4480E015214D8C1A70D5AC8
:1021C000188551180D5A92466156CC69005313D8A0
:1021D000C1270E5918E53932E4481E85D9901301FC
:1021E000540BD8C1270D4398F73B195514D8C1A7F4
:1021F0008551188551188551188551980D391156FA
:1022000011D8C127A5491A653D26699226714E0647
:102210005714D8C127A5499AA4499A4495A812559C
:102220003A6539115813D8C127A5491A6561125763
:10223000C22C4A9334A701590FD8C127A5491A6562
:102240006112E7DDC9005A0DD8C1A70D7BDC7B3ECA
:10225000EC34005B0CD8C1270E61DEF72127025C4D
:1022600012D8C127E5399223399223399223794E26
:10227000035D0BD8C1A70D793F0E39155E0CD8C18F
:10228000A7C64998E5FC1B005F0AD8C1E7FF380CD8
:102290003904600AD8C1077324E77F066110D8C1EA
:1022A000E77DC8916C90C228D3969C066211D8C174
:1022B000A7E52D9B168551186951B21301630ED8FD
:1022C000C1E77DC8C2282F66434E046412D8C16797
:1022D000C96B4B944961144699B6E434006510D833
:1022E000C1E77DC8C26898F2301B722200660DD823
:1022F000C1A78E593D1EC4BC9D016710D8C1E77DA2
:1023000089B2C63147862CCC86086811D8C1A7E5AA
:102310002D9B16855118855198D300690CD8C1673B
:10232000CE71BDEBA013016A0CD8C1E792E37AB776
:102330008E1B006B0FD8C1A7E56DA5708DC2AC9840
:10234000D3006C0BD8C127EAFD3AE844006D10D8E1
:10235000C1E775915AA24A54892A694E036E10D872
:10236000C1E739D9B4288CC2288CC29C066F10D81A
:10237000C1E77DC8C2288CC228CC869C087010D8C2
:10238000C1E739D9B4288CB428D9F23200710FD8FA
:10239000C1E77D8932298C326DC95B00720BD8C1CF
:1023A000E73919B37A3B037310D8C1E77DC8C24C33
:1023B00047B4301B722200740DD8C167CDE341CC05
:1023C000DBC29D08750BD8C1E739EB1F979C0676D9
:1023D0000DD8C1E739EB3149933827037710D8C1BD
:1023E000E7B592265125AA74CA722200780FD8C187
:1023F000E739CCA25456A32CCC69007912D8C1E796
:10240000398CC2288C326DC9A3301B22007A0BD8BC
:10241000C1E779983B0F3B0D7B10D8C1278F798E90
:10242000A43A12E739B2D3007C09D8C1A7E6FD9DD2
:102430000C7D10D8C1A7ED481EE7889A2379B89380
:10244000017E0CD8C1274659528B72FE11A008D8C4
:10245000C1E7FF3300A10BD8C1A7E694BCEF64002D
:10246000A210D8C1A7C663524BD2244D8A73CE01A5
:10247000A30FD8C1A78E5979CECB5AA2EC4400A4A1
:1024800010D8C1E71A6643188551386461CE08A593
:1024900012D8C127A5491A6561120E6A3AA8794E69
:1024A00006A60BD8C1A7E6ED94BC9D0CA713D8C116
:1024B00007D528CC11350AA35447C228D5A900A8AE
:1024C0000BD8C1C7A230CAF95F01A910D8C1C7C6CD
:1024D0002C6AE95BD2535BB83303AA10D8C127EE4C
:1024E000483864C52107079D3300AB12D8C1678EF9
:1024F000B2288BB2288DD2288D724600AC0AD8C182
:10250000E7FBB0B73302AD0AD8C1E79721E7170060
:10251000AE11D8C1C7C62C6AE95FA4A45316EECC8D
:1025200000AF0AD8C1A70D3BFF2300B00CD8C1A74C
:10253000AA5118A53A7F03B10ED8C167CED341CDB9
:102540007378D05901B20DD8C1C7D4284FD57CC8F3
:10255000F909B30ED8C1C7D428CE91304A757E038D
:10256000B409D8C147E39CFF03B510D8C1E7398C43
:10257000C2288CC2C89428514EB614D8C1270ED296
:10258000922DD9122A6992266992263911B709D853
:10259000C1E7279D9F00B809D8C1E7FF25D600B93C
:1025A0000BD8C1C762BD79E73700BA0ED8C127AAD8
:1025B0005118A53A3CE47C01BB11D8C1678BD228E5
:1025C0008DD2288BB2288B720EBC11D8C18762BD08
:1025D0003199D4248C4225D66900BD10D8C18762B8
:1025E000BD491AA23C55F321A701BE13D8C187D417
:1025F00028CE91302A5993300A9558A701BF0FD899
:10260000C1A7E6943CAE8751980D3911C014D8C1CA
:10261000077324C7D5280BA3301AA6300A731A00F3
:10262000C113D8C147E39CA246591885D1308551C2
:1026300098D300C214D8C107D52887D5280BA3305A
:102640001AA6300A731A00C314D8C1C7A4920EABDD
:1026500051164661344C6114E63400C414D8C1C725
:10266000A230CA6135CAC2288C86298CC29C06C594
:1026700014D8C107D52895D5280BA3301AA6300A3F
:10268000731A00C615D8C1A7294B14466114468792
:10269000300AA3301A721A00C70ED8C1270E591873
:1026A000E53D66435C04C811D8C1077324478729F8
:1026B000CF8730CF879D06C911D8C147E31C1EA61E
:1026C0003C1FC23C1F761A00CA11D8C107D5280783
:1026D0008729CF8730CF879D06CB12D8C1C7A230BC
:1026E000CAC161CAF321CCF361A701CC0FD8C1C71D
:1026F0007224870735EF3AE84400CD0ED8C147E38E
:102700001C1ED4BCEBA01301CE0FD8C107D52807DF
:102710000735EF3AE84400CF0ED8C187B276705043
:10272000F3AE834E04D014D8C1A70D61568CC26499
:102730008BC2288CB26CC8A900D115D8C187A492CD
:102740000EA68998D492A892254525CD6900D21469
:10275000D8C1C772248707294DD2244DD2248D06B3
:102760009D08D314D8C147E31C1EA43449933449AF
:1027700093341A742200D414D8C107D52807072926
:102780004DD2244DD2248D069D08D514D8C187A4DE
:10279000928E0E529AA4499AA4491A0D3A11D6144F
:1027A000D8C187B2767090D2244DD2244DD268D051
:1027B0008900D70FD8C1E71A66512AAB5116E68CAB
:1027C00000D816D8C1C7B321CBA44A548992A81205
:1027D00055A248CB862C27D914D8C1C7722487C3E9
:1027E000288CC2288CC228CC869C08DA14D8C14711
:1027F000E31C0EA3300AA3300AA3301B722200DBB5
:1028000014D8C107D528074B6114466114466136B8
:10281000E44400DC14D8C1C7A230CAC152188551A3
:10282000188551980D3911DD0ED8C147E31CCE1A19
:1028300093386F2703DE11D8C1A7E58316466114CC
:10284000468396D75900DF12D8C1278E59A7304941
:10285000232D8CC228D98900E013D8C1A7E6480EE1
:102860000F39920D521865DA92D300E112D8C1A740
:10287000C7393CE44836486194694B4E03E213D8AB
:10288000C1A7AA518E0E39920D521865DA92D30063
:10289000E313D8C1274A251D1D72241BA430CAB4D6
:1028A00025A701E414D8C127466194A3438E64830D
:1028B000144699B6E43400E514D8C107D528D5E10B
:1028C0002147B2410AA34C5B721A00E610D8C1E757
:1028D0005951A368908A5149D18900E70ED8C1E7C0
:1028E0007DC8C2282F66435C04E812D8C1A7E64819
:1028F0000E0F59180D531E66434E04E911D8C12717
:10290000D7F1210BA361CAC36CC88900EA12D8C1F0
:10291000A7AA518E0E59180D531E66434E04EB1391
:10292000D8C127466194A3431646C39487D9901310
:1029300001EC0DD8C127E6488EEB5D079D08ED0D33
:10294000D8C1A7C63945EF3AE84400EE0DD8C127F3
:10295000AA510EEB5D079D08EF0ED8C1A745619403
:10296000C37AD7412702F015D8C1C7A2544D7224AB
:102970001CB2300AA3300AB3212702F113D8C127B1
:102980004A251D4C362D0AA3300AA330A701F213A5
:10299000D8C127E6488E0F591885511885D990134C
:1029A00001F312D8C127D7F1210BA3300AA3301BA2
:1029B000722200F413D8C1A7AA518E0E591885515E
:1029C0001885D9901301F513D8C1274A251D1DB2CA
:1029D000300AA3300AB3212702F614D8C127466172
:1029E00094A34316466114466136E44400F70DD8BB
:1029F000C167CE7378D0E13CE700F812D8C1E72D6B
:102A00001BB24CAA44491469D990E504F90ED8C107
:102A100027E6480E67FDE392D300FA0DD8C127D709
:102A2000E1AC7F5C721A00FB0ED8C1A7AA510E66FA
:102A3000FDE392D300FC0FD8C127266992A359FF6A
:102A4000B8E43400FD13D8C127D7E1300AA330CA57
:102A5000B4258FC26C8800FE12D8C167CC2B9B16A0
:102A60008551186951B2E53100FF14D8C12746617C
:102A70009483A5300AA34C5BF228CC8608000000A2
:102A800004FFFF00000000000023002600290000D2
:102A9000000000240027002A000000000025002874
:102AA000002B0004040404040404040202020202D1
:102AB0000203030303030301020408102040800102
:102AC0000204081020010204081020000000080081
:102AD00002010000030407000000000000000000E5
:102AE000362311241FBECFEFD8E0DEBFCDBF11E0EB
:102AF000A0E0B1E0E6EBF9E402C005900D92A03F42
:102B0000B107D9F727E0A0EFB1E001C01D92A033D3
:102B1000B207E1F715E1C1E7D5E104C02197FE0155
:102B20000E94BD24C037D107C9F70E94D5230C9459
:102B3000D9240C940000662329F06A3019F0862FFE
:102B400090E008958FEF9FEF0895CF92DF92EF927C
:102B5000FF920F931F93CF93DF93EC01842F877025
:102B6000E1E0F0E0082E01C0EE0F0A94EAF73E2FF4
:102B70007E0199E7E90EF11CD7019C9110E092309B
:102B800018F41E2F913029F150E0487FE8ADF9ADDF
:102B9000C880D980D60150969C91949F6001959FE2
:102BA000D00C11246C0D7D2D711DDF01A60FB71FF8
:102BB000011115C08C91812B83278D932150D1F762
:102BC000DF91CF911F910F91FF90EF90DF90CF9009
:102BD000089530E0D9CF110F330F222389F39C9150
:102BE000912B93279C938F5F877021508111F3CF96
:102BF0009CADA90FB11DF7019081923028F491305E
:102C000009F031E011E0E9CF31E0E7CF80E008954D
:102C100080E00895CF93DF93CDEAD6E08FAFEAADA1
:102C2000FBAD0190F081E02D81EB96E00995EAADD6
:102C3000FBAD0280F381E02D81EB96E0DF91CF9137
:102C4000099480932A0708959B01DC011896ED9161
:102C5000FC9141E067E10994833081F028F48130F0
:102C600099F08230A9F008958730A9F08830C9F032
:102C70008430B1F4809180008F7D03C0809180000A
:102C80008F7780938000089584B58F7784BD0895F1
:102C900084B58F7DFBCF8091B0008F778093B0009B
:102CA00008958091B0008F7DF9CF1F93CF93DF936C
:102CB000282F30E0F901E553F54D8491F901E954ED
:102CC000F54DD491F901ED55F54DC491CC23A9F002
:102CD000162F81110E942C16EC2FF0E0EE0FFF1F33
:102CE000E756F54DA591B4918FB7F894EC91111179
:102CF00008C0D095DE23DC938FBFDF91CF911F9169
:102D00000895DE2BF8CFCF93DF9390E0FC01E954D8
:102D1000F54D24918D55954DFC0184918823D1F07A
:102D200090E0880F991FFC01E157F54DA591B491F2
:102D3000FC01E756F54DC591D491623071F49FB70F
:102D4000F8943C91822F809583238C93E8812E2BDD
:102D500028839FBFDF91CF9108958FB7F894EC91AE
:102D60002E2B2C938FBFF6CF3FB7F894809185021E
:102D700090918602A0918702B091880226B5A89B07
:102D800005C02F3F19F00196A11DB11D3FBFBA2FFD
:102D9000A92F982F8827BC01CD01620F711D811DBD
:102DA000911D42E0660F771F881F991F4A95D1F742
:102DB00008958F929F92AF92BF92CF92DF92EF923F
:102DC000FF926B017C010E94B4164B015C01C1149F
:102DD000D104E104F104B9F00E94B416681979092C
:102DE0008A099B09683E73408105910580F321E0C3
:102DF000C21AD108E108F10888EE880E83E0981E17
:102E0000A11CB11CE4CFFF90EF90DF90CF90BF905A
:102E1000AF909F908F90089585ED8093BC00809136
:102E2000BC0084FDFCCF10925A0208952091360216
:102E3000260F3327331F21323105ECF420915A023B
:102E4000FC0190E080E0243069F082E00895A091D8
:102E500036022191AC014A5E5D4FA40FB52FB11D22
:102E60002C930196861798F380913602680F609331
:102E7000360280E0089581E0089508958FEF9FEF76
:102E800008958FEF9FEF08958091150290E091953E
:102E9000819591090895CF93DF93CB01EA01642FC7
:102EA0000E941617CE01DF91CF910895CF93DF9343
:102EB0001F92CDB7DEB7698361E0CE0101960E9413
:102EC000161781E090E00F90DF91CF910895DC011B
:102ED0001A96ED91FC9130E020E00994DC01149603
:102EE000ED91FC9130E020E040E060E10994DC01EC
:102EF0001696ED91FC9130E020E040E069E1099404
:102F0000DC011696ED91FC9130E020E040E068E1B4
:102F100009949A01DC011696ED91FC91462F67E128
:102F20000994EF92FF920F931F93CF93DF931F9219
:102F3000CDB7DEB77C018B01D8016C91673129F1E7
:102F400050F46531A0F40F90DF91CF911F910F9154
:102F5000FF90EF9008956A3118F16E3FA1F7F801E4
:102F60004181498369E2C7010E9467170BC0F801DC
:102F700041814983D7011696ED91FC9130E020E024
:102F8000C70109950E5F1F4FD7CFF8018181898353
:102F9000AE014F5F5F4F61E0C7010E948917F2CF1A
:102FA0000F5F1F4FD7011696ED91FC9130E020E0A6
:102FB00040E0C7010995C0CF462FDC011696ED9180
:102FC000FC9130E020E066E10994462FDC01169682
:102FD000ED91FC9130E020E065E10994EF92FF92E1
:102FE0000F931F93CF93DF93EC01042F79016D3082
:102FF00009F446C050F46B30C9F1693009F49FC040
:103000006A3009F465C080E046C06E3009F452C0F1
:103010006F3099F70E948017F7011381110F110F7C
:10302000110F6C89160F60E4CE010E94E517612F25
:1030300062956F706061CE010E94E517612F6F701D
:10304000CE010E94DC17F7016481606BCE010E9403
:10305000DC17F701408151816281660F660F660FB0
:10306000CE010E9489170150A1F72EC063E171E0E3
:10307000442311F06EE071E0CE010E9491170AC066
:10308000411110C067E071E00E949117E881F98159
:1030900082898C8B81E0DF91CF911F910F91FF90FE
:1030A000EF90089560E071E00E949117E881F98146
:1030B0008389EFCF0E94801761E8CE010E94E51757
:1030C000602FCE010E94DC17CE010E947717E2CF5D
:1030D000EA85FB8530E020E040E068E2CE0109951A
:1030E000EE81FF8130E020E040E064E1CE0109950F
:1030F00041E06BE4CE010E946717E881F9814481C9
:1031000069E2CE010E94671740E06BE4CE010E94A5
:103110006717E881F981448169E2CE010E9467174F
:1031200041E06BE4CE010E946717E881F981458197
:1031300069E2CE010E94671768E171E09DCF8DE4DE
:1031400091E0998388831C8AA5CF41E06DE40C94BB
:103150006717DC01ED91FC9145856DE20C946717D2
:10316000CF93DF93EC0141E06CE40E946717CE013E
:10317000DF91CF910C94A918CF93DF93EC016623D4
:1031800079F00E94A518CE010E94A918CE010E94D4
:10319000B01840E06CE4CE01DF91CF910C9467173A
:1031A00040E06DE40E946717EECF1F93CF93DF934B
:1031B000EC01162F60780E94BC18612F6074CE015C
:1031C0000E94BC18612F6072CE010E94BC18612F52
:1031D0006071CE010E94BC18612F6870CE010E9400
:1031E000BC18612F6470CE010E94BC18612F627000
:1031F000CE010E94BC18612F6170CE010E94BC18E4
:10320000CE010E94A518CE010E94A918CE010E94ED
:10321000B018CE010E94A518CE010E94A91840E066
:103220006CE4CE01DF91CF911F910C946717DC0104
:103230001896ED91FC9130E020E040E069E10994BE
:10324000DC011896ED91FC9130E020E040E068E16F
:103250000994CF93DF931F92CDB7DEB76983BE0188
:103260006F5F7F4F0E9424160F90DF91CF910895DA
:10327000EF92FF921F93CF93DF93EC01162F7A0109
:103280000E94201960E4CE010E942919E885F98581
:103290009701412F67E1CE010995CE01DF91CF91D2
:1032A0001F91FF90EF900C941719EF92FF921F93CC
:1032B000CF93DF93EC01142F7901663181F138F45B
:1032C000643109F44BC0653179F080E022C0683187
:1032D000C9F150F16931C9F780911402882391F145
:1032E000CE010E9417192EC080911402882319F074
:1032F000CE010E941719CE010E94201960E0CE0174
:103300000E942919612FCE010E94291981E0809322
:103310001402DF91CF911F91FF90EF900895642FD9
:103320000E94291981E0F5CF80911402882319F0B9
:10333000CE010E941719A701193138F4612FCE016F
:103340000E94381910921402EDCF68E1CE010E945C
:103350003819185188E1E80EF11CEDCF8E898F3FA6
:1033600011F488E78E8BE885F9859701412F64E198
:10337000CE01DF91CF911F91FF90EF900994FC0156
:103380006623D9F16A30C9F1808D811125C06C3F67
:1033900048F085E0808F617070E0738B628B2EEF58
:1033A0003FEF29C0683F20F084E0808F6370F4CF46
:1033B000603F20F083E0808F6770EECF603E20F0AA
:1033C00082E0808F6F70E8CF262F30E0603C98F06D
:1033D00081E0808F6F71E0CF8150808F22893389A7
:1033E00096E0220F331F9A95E1F76F73262B338BEC
:1033F000228B8111D4CFC90108952FEF3FEFFBCF6E
:103400000F93DC01DE963C91DE97431BD496ED9141
:10341000FC9109950F910895CF93DF93FC01A08152
:10342000B18182AD982F990F990F990F95AF509652
:103430009C915097903208F09FE1990F990F990F46
:1034400094AF23AD922F990F990F990F96AF519684
:103450003C915197682F620F7727771F3617170611
:1034600014F4832F821B97AFEF01C05CDF4F880FEE
:10347000880F880F890F8883219680EF8883549660
:103480008D919C915597813F910508F48883EE5B5F
:10349000FF4F56968C918083DF91CF9108950F93C3
:1034A000FC01EB5BFF4F308131965081451730F4C2
:1034B000301738F0041728F080E013C03017D0F32D
:1034C000FBCFFC01ED5BFF4F30818C5B9F4FFC011C
:1034D0008081681740F481E0321718F081E02617E8
:1034E00058F70F9108953217C8F3E6CF2F923F9205
:1034F0004F925F926F927F928F929F92AF92BF9204
:10350000CF92DF92EF92FF920F931F93CF93DF93AF
:10351000EC014C0183E4880E911CF4011082329777
:1035200020805E01F4E4AF0EB11CF50120823FACB7
:103530006E01F5E4CF0ED11CF60130823597408044
:103540007E01F6E4EF0EF11CF70140823496108103
:10355000329760803196708032975080012F262DEF
:10356000472D652DCE010E944F1ACD58DF4F811196
:1035700014C01882DF91CF911F910F91FF90EF90AF
:10358000DF90CF90BF90AF909F908F907F906F9083
:103590005F904F903F902F90089581E08883552051
:1035A00011F0F4015082621410F4F50160823714B6
:1035B00010F4F60170821415E8F6F7011083DACFE3
:1035C0000F93DC01802FFD01ED58FF4F908199236F
:1035D000E9F12223D9F1223020F0023079F56F5F32
:1035E000621B082F0170FD0180FD32C0EB5BFF4FB5
:1035F0008081481758F131968081481738F5329705
:10360000908131978081260F2617F0F46917D8F43E
:103610002FEF290F8217D0F4681708F4682F2917A5
:1036200008F4922F961BD696ED91FC91D7970480C3
:10363000F581E02D292FCD01099508C0033089F6C9
:103640004F5F421BCECF682F691720F30F9108956B
:10365000ED5BFF4F80816817C8F331968081681752
:10366000A8F73296908131978081240F241778F43F
:10367000491760F42FEF290F821740F7481708F415
:10368000482F291708F4922F941BCDCF482F4917A4
:10369000E8F6F2CF213039F020F0223031F0840FFB
:1036A0000895860F0895841B0895861B0895213080
:1036B00039F020F0223031F0861B0895840F0895F0
:1036C000860F0895841B08955F926F927F928F9268
:1036D0009F92AF92BF92CF92DF92EF92FF920F93A1
:1036E0001F93CF93DF935C01162F642EEC01C15B17
:1036F000DF4FDC80ED804C0189E7880E911CFE8055
:10370000FD18C12EF11608F4CF2C5B800C85202FFC
:103710004E2D6D2D8A810E944A1B782E202F4E2D12
:103720006D2D852D0E94571B482F662071F08A85CC
:10373000F40180832C2D672DC5010E94E01A1F150E
:1037400048F01F19E394D12CDACF89858111F7CF86
:103750008B85EECF1D0D1C83ED82DF91CF911F91E4
:103760000F91FF90EF90DF90CF90BF90AF909F9020
:103770008F907F906F905F900895DC0118964C9128
:103780001897ED91FC911197249130E0042E02C01E
:10379000359527950A94E2F7842F860F883068F0D4
:1037A00031961196FC93EE93E49198E0941B01C03E
:1037B000EE0F9A95EAF72E2B885018968C938FEF80
:1037C0009FEF01C0880F6A95EAF7809582230895DC
:1037D000FC01E60FF11D849190E0982F8827319627
:1037E000E4918E0F911D0895CF93DF932091FC06F5
:1037F0003091FD062817390709F490C0EC01909329
:10380000FD068093FC06FC01849180930D073196A0
:10381000E491E0930E07FE013296E491E0930F07E6
:10382000FE013396E491E0931007FE013496E49193
:10383000E0931107FE013596E491E0931207FE0133
:103840003696E491E0931307FE013796E491E093F6
:103850001407FE013896E491E0931507FE013996AE
:10386000E491E0931607FE013A96E491E09317077E
:10387000FE013B96E491E0931807FE013C96E4912B
:10388000E0931907FE013D96E491E0931A07FE01CB
:103890003E96E491E0931B07FE013F96E491E0938E
:1038A0001C07FE017096E491E0931D0761E1CE01D3
:1038B0000E94E81B90931F0780931E0763E1CE01CF
:1038C0000E94E81B909321078093200765E1CE01B9
:1038D0000E94E81B90932307809322078091FC06A7
:1038E0009091FD06892BD1F080911A0780932607CD
:1038F00040911B074093270790912507992371F06A
:10390000913079F490911C07891714F4909326074D
:1039100080911D07841714F480932707DF91CF91BE
:1039200008953091170720911907082E000C990B64
:10393000622F022E000C770B630F711D37FD7A95F5
:10394000861797071CF4320F30932607241734F795
:1039500020932707E3CF6F927F928F929F92AF922F
:10396000BF92CF92DF92EF92FF920F931F93CF936C
:10397000DF93EC01062F142F7901FC01E55AFF4F6C
:103980008081813009F445C0D0F1823009F44BC008
:10399000833009F452C0FE01EF5AFF4F0083319685
:1039A000108337978081918147962FEFE216F104BB
:1039B00011F008F0E6C0E1E6EE16F10408F447C0A5
:1039C000FE01E159FF4F20813181820F931F9C013D
:1039D0002F5F3F4FF9014491411142C0712C872D57
:1039E000DF91CF911F910F91FF90EF90DF90CF90DB
:1039F000BF90AF909F908F907F906F900895FE0141
:103A0000E35BFF4F0190F081E02DCE010995180F87
:103A1000C2CFFE01E35BFF4F0190F081E02DCE01AC
:103A20000995081BB8CFFE01E35BFF4F0190F081C1
:103A3000E02DCE010995181BAECFFE01E35BFF4FD1
:103A40000190F081E02DCE010995080FA4CFF1E49B
:103A5000EF16F10408F4BBCFFE01E359FF4FB3CFDB
:103A6000FC0144914E151F0409F086C00296009790
:103A700009F4B4CF7E01FFE4EF0EF11CF70191834E
:103A80008083108671966081C7010E94BD1BF7017B
:103A9000868372966081C7010E94BD1BA82EF70124
:103AA00087836E01F9E7CF0ED11CF6019081F701F3
:103AB000928781E0911180E0F7018387FE01EE5942
:103AC000FF4FB0806B2DC7010E94BD1B882EFE01E9
:103AD000ED59FF4F1081612FC7010E94BD1B982E29
:103AE000FE01EC59FF4F0081602FC7010E94BD1BF2
:103AF000015041E050E09A0101C0220F0A95EAF717
:103B0000782E721AF701068110160CF068CFBA945D
:103B1000CA0101C0880FBA94EAF7881AB4849A0CD3
:103B2000115001C0440F1A95EAF7F42FF9199F2E8E
:103B30002B2D4F2F682DF70182810E944A1B182FD1
:103B4000F70182832B2D492D682D83810E94571BFD
:103B5000F7018383F1E0BF1609F47CC0BF1608F4B7
:103B60003FC022E0B21609F47BC093E0B91609F415
:103B700082C0082F212F38C0F9012491820F911D96
:103B800026CFFE01EF58FF4F00811181080F191F4A
:103B9000680160E0C6010E94E81B080F191F62E07F
:103BA000C6010E94E81BF4E0CF0ED11C8E159F05C4
:103BB00080F3F801849190E0982F88273196E49162
:103BC0008E2B009709F40ACFE816F90619F4C801FC
:103BD00003964DCFF8013296E4910E0F111DE9CFF7
:103BE000202F210F082F0A0D482F612FCE010E9490
:103BF0004F1A882309F4F3CEF701148215828E013F
:103C0000025A1F4F4E01FFE58F0E911CF801608193
:103C1000C7010E94BD1B682EF4016081C7010E948C
:103C2000BD1BB82E40E0662DCE010E94641B41E012
:103C30006B2DCE010E94641B61E0C7010E94BD1B79
:103C40008111F0CFF70185818A1504F38285F60191
:103C50008083C5CEBA1821E0210F080F1B0DC4CFF9
:103C600091E0392F301B21E0210F9A1901E0080F54
:103C7000890F130FB9CF212F2A0D982F901B01E028
:103C8000080F81E0890FB0CFEF92FF921F93CF937F
:103C9000DF93D82F1092C90689E8E82E82E0F82E2B
:103CA00010E0CEE3F70161917F01E091B306F0915E
:103CB000B40681EB96E009958F3F9807F1F08E3FAF
:103CC0002FEF920779F39C014C2F6D2F81EB96E03B
:103CD0000E94AB1C90910C07913049F030F092306B
:103CE00041F0933041F0180FDDCFD80FFCCFC80F53
:103CF000FACFD81BF8CFC81BF6CF812FDF91CF9119
:103D00001F91FF90EF900895AF92BF92CF92DF92F4
:103D1000EF92FF920F931F93CF93DF9300D000D0C9
:103D20001F92CDB7DEB78C01DC01DA96AC90DA9742
:103D3000DB96EC90DB97ED91FC91B188FE2CD12CB9
:103D4000C12CD801ED91FC9111978089D8962D91C5
:103D50003C911C82FD828B83B8E08B9FC0011124B3
:103D60008C9DA0018D9D500D9C9D500D1124240F04
:103D7000351F3A832983D8011496ED91FC919E0159
:103D80002F5F3F4F41E06FE0C8010995F3948F2DFD
:103D90008E198A1528F4BFEFCB1ADB0AFB1488F2C0
:103DA0000F900F900F900F900F90DF91CF911F9178
:103DB0000F91FF90EF90DF90CF90BF90AF9008955C
:103DC000EF92FF921F93CF93DF93EC01142F7901B1
:103DD000683151F130F46431D1F06731A9F080E0FD
:103DE00006C0693109F443C06032C9F781E0DF9150
:103DF000CF911F91FF90EF900895F70161917F019E
:103E0000CE010E94D51811501111F7CFEFCF41E02C
:103E10006CE40E94671741E06DE4CE010E946717D1
:103E2000CE010E94A918E2CF8F89882349F0CE01E4
:103E30000E94A518CE010E94A918CE010E94B018B8
:103E4000CE010E94A51840E06DE4CE010E946717E4
:103E5000CE010E94A91840E06CE4CE010E946717D1
:103E600081E08F8B6E89CE010E94D518BFCF40E0D4
:103E70006DE40E946717CE010E94A918CE010E942E
:103E8000B018CE010E94A518CE010E94A9181F8A61
:103E9000ADCF0F931F93CF93DF93EC01862F642F49
:103EA0008C3208F03AC08A3208F060C0883209F4D7
:103EB0004BC0893209F460C0803408F475C0982F73
:103EC0009F73FE01E90FF11D868D8F3F09F44EC0EF
:103ED000903108F436C0282F30E0F901E553F54D54
:103EE0008491F901E954F54D0491F901ED55F54D31
:103EF0001491112379F081110E942C16E12FF0E02A
:103F0000EE0FFF1FEB57F54DA591B491EC910E23E9
:103F100081E009F480E0898F29C08D3299F108F49D
:103F2000CBCF94EB980F923008F0C6CF8F73C80FA9
:103F3000D11D8E8D411134C061E00E94831660E076
:103F40008E8D0E94551612C08E01025E1F4FD0E06A
:103F5000F80181918F018F3F31F061E0D03108F09D
:103F600062E00E948316DF5FD63191F781E0DF9136
:103F7000CF911F910F91089570E090E080E00E9432
:103F8000D916F4CF85E090E0433010F082E090E065
:103F9000880F991F880F991F05970197F1F7E6CFB2
:103FA00062E00E948316E2CF80E0E1CFCF92DF9201
:103FB000EF92FF920F931F93CF93DF936C01EB016E
:103FC0007B01E40EF51E10E000E0CE15DF0561F088
:103FD0006991D601ED91FC910190F081E02DC6012F
:103FE0000995080F191FF1CFC801DF91CF911F91DB
:103FF0000F91FF90EF90DF90CF900895CF92DF92D6
:10400000EF92FF920F931F93CF93DF93EC016C011C
:1040100024E0C20ED11CFC01E158FF4F0190F08159
:10402000E02DC60109958E3FEFEF9E07C8F48E0183
:104030000E571F4F7E01F1E8EF0EF11C9C01F801B5
:104040004081F7016081C6010E94AB1CC15ADF4F5D
:1040500098819130A9F078F09230A1F09330B9F0C6
:1040600081E090E0DF91CF911F910F91FF90EF9051
:10407000DF90CF900895F7019081890F8083F0CF72
:10408000F801FACFF7019081981B892FF7CFF8013B
:10409000FACF089590E080E008958F929F92AF92BA
:1040A000BF920F931F93CF93DF93CDB7DEB7A19746
:1040B0000FB6F894DEBF0FBECDBF19A2423008F490
:1040C0004AE08E010F5D1F4F842E912CB12CA12C44
:1040D000A50194010E949B24E62FB901CA01EA3090
:1040E00044F5E05DD801EE938D01232B242B252B85
:1040F00079F790E080E0109769F0FD0101900020D1
:10410000E9F73197AF014A1B5B0BBD018DEA96E0E1
:104110000E94D61FA1960FB6F894DEBF0FBECDBF8A
:10412000DF91CF911F910F91BF90AF909F908F9093
:104130000895E95CD7CFFC01A081B18150962C9104
:1041400082AD38E0839FC0011124289FA001299FE0
:10415000500D112470E060E080AD91AD0C94C3244B
:104160008F929F92AF92BF92CF92DF92EF92FF9287
:104170000F931F93CF93DF935C01C62F4A01E0900A
:10418000F206F12CF194E194F108FC010190002079
:10419000E9F731976F01C81AD90A81EB96E00E94BE
:1041A0009B20C23009F4B6C008F0A1C0C13009F4A8
:1041B000AAC086E396E00E94F41B25E430E040E3C9
:1041C00060E081EB96E00E94AB1C89E898E00E94D9
:1041D000F41B83E380932E078AE280932F07B401B8
:1041E000990C880B990B4AE00E944D2043E050E067
:1041F00067E771E08DEA96E00E94D61F33E0CC0CB1
:10420000DD1C3A95E1F78FEFC81AD80A4BE9842EE6
:1042100045E1942E80E00E9421161091F206115083
:10422000D091F306D05D0D2F212F41E360E081EBAB
:1042300096E00E944F1AC1E381117FC081E00E9485
:104240002116F50101900020E9F73197EA19FB09E1
:10425000F7FE76C0C701079623E0959587952A95C6
:10426000E1F7919581959109C091F206C695C695A1
:10427000C695D0E08C179D07C0F42196C81BD90BBA
:10428000AE01B50189E892E00E94CA24C757DD4F0C
:10429000188289EA9EE10E94F41B9092B4068092F3
:1042A000B3068E2D81950E94441E81EB96E00E94FC
:1042B000841E81EB96E00E946E1764E170E080E05E
:1042C00090E00E94D91682E0E80EF11CCE14DF04C3
:1042D0000CF0A0CFDF91CF911F910F91FF90EF9045
:1042E000DF90CF90BF90AF909F908F900895C33094
:1042F000C1F088E690E0C43009F05BCF0E94F41B67
:1043000023E430E05CCF86E396E00E94F41B21E4D6
:1043100030E055CF86E396E00E94F41B20E430E0C5
:104320004ECF86E396E0EACF00E0212F4C2F60E0ED
:1043300081EB96E00E94E01ACF5FDC13F5CF7ECFD1
:10434000B70183E0759567958A95E1F76E177F074A
:1043500008F0ABCF862F880F880F880F1E2D181BF3
:10436000E61BF70BC091F206C695C695C695D0E040
:104370002196EC17FD0708F4EF016A0D7B1DAE01D5
:1043800089E892E00E94CA24C757DD4F188289EA63
:104390009EE10E94F41B9092B4068092B306812F96
:1043A00081CF1F920F920FB60F9211242F933F933C
:1043B0008F939F93AF93BF938091810290918202DC
:1043C000A0918302B09184023091800223E0230FF8
:1043D0002D3758F50196A11DB11D209380028093C1
:1043E000810290938202A0938302B0938402809111
:1043F000850290918602A0918702B0918802019671
:10440000A11DB11D8093850290938602A09387021F
:10441000B0938802BF91AF919F918F913F912F915F
:104420000F900FBE0F901F90189526E8230F02964D
:10443000A11DB11DD2CF1F920F920FB60F92112462
:104440002F933F934F935F936F937F938F939F939C
:10445000AF93BF93EF93FF938091B900887F80362D
:1044600009F44AC0F0F5883209F4A5C018F5803186
:1044700009F499C0B8F4882309F4F5C0883009F428
:1044800092C0FF91EF91BF91AF919F918F917F91DA
:104490006F915F914F913F912F910F900FBE0F90B1
:1044A0001F901895883109F486C0803251F78093A7
:1044B000590214C0803409F49BC040F48033B9F32E
:1044C0008833F9F68093590285ECAEC0803509F443
:1044D00083C0883509F494C0883499F60E940C177B
:1044E000D0CF883909F48AC038F5883729F050F4DC
:1044F000883611F0803729F683E080935A021092B3
:10450000580255C0883809F479C0803919F08038CC
:1045100009F0B7CF80915802803208F06FC0E09167
:10452000580281E08E0F809358028091BB00F0E02A
:10453000E85CFD4F80833BC0803B39F0D0F4803A8B
:1045400009F477C0883A09F09CCF84E080935A023E
:104550001092370210923602F0E0E0E00995809167
:10456000360281110FC081E080933602109216024C
:1045700009C0803C09F4A8CF883C09F4A5CF883B4A
:1045800009F07FCFE091370281E08E0F80933702F0
:10459000F0E0EA5EFD4F80818093BB00909137028E
:1045A0008091360229C080917F028093BB0085EC08
:1045B0008093BC0066CF90917E0280917D02981717
:1045C00058F5E0917E0281E08E0F80937E02F0E04C
:1045D000E35AFD4F8081E9CFE0917E0281E08E0FAA
:1045E00080937E028091BB00F0E0E35AFD4F808310
:1045F00090917E0280917D029817C8F285E8D8CF0D
:10460000E0917E0281E08E0F80937E028091BB005C
:10461000F0E0E35AFD4F808380915C0281115ECF10
:1046200081E080935B0284EA8093BC0010925A027E
:1046300028CF85EC8093BC0010925A0280915802DA
:10464000803230F4E0915802F0E0E85CFD4F1082D7
:104650006091580270E088E392E0F0E0E0E00995B4
:10466000109258020ECF1092590238CFCF93109269
:10467000B0061092AF068BE995E190932D078093D9
:104680002C0710922E0710922F071092C90689E668
:1046900091E09093AE068093AD061092B206109210
:1046A000B1061092C6061092BD061092BE06109278
:1046B000BF061092C0068FEF8093C7068093CB068B
:1046C000EFECF6E085EE96E0CFEFC1938E179F07F3
:1046D000E1F78EEE97E19093B6068093B50685E5F7
:1046E00099E19093B8068093B70680EE9EE190938F
:1046F000BA068093B90689E49FE19093BC06809343
:10470000BB0630E020E040E069E081EB96E00E94EB
:10471000EE171092FD061092FC0685EA95E1909343
:10472000E6068093E5068DEA92E09093EA06809390
:10473000E90688E08093EB061092EC0610920907D8
:104740001092290781E080932A0780932B0781E745
:1047500091E09093E8068093E70681EB96E00E9453
:104760000C1A1092F8061092FA06C093F906C0933C
:10477000FB06E091E706F091E8060280F381E02D68
:1047800081EB96E0099588E096E19093FF0680938F
:10479000FE0610920C0783E18093DB0682E1809392
:1047A000DC06C093DA06CF910895789484B58260D0
:1047B00084BD84B5816084BD85B5826085BD85B5C5
:1047C000816085BD80916E00816080936E00109243
:1047D00081008091810082608093810080918100BE
:1047E000816080938100809180008160809380004F
:1047F0008091B10084608093B1008091B0008160AD
:104800008093B00080917A00846080937A008091D8
:104810007A00826080937A0080917A008160809330
:104820007A0080917A00806880937A001092C100AB
:1048300061E08AE00E94831661E089E00E948316AD
:1048400060E08AE00E94551660E089E00E945516FB
:10485000E091B506F091B60630E020E040E06AE075
:1048600081EB96E0099580912B07882321F081EB5D
:1048700096E00E949B2080E00E940A1681EB96E061
:104880000E94841EC091EC068091EB06C80FE09157
:10489000B106F091B2068189C81708F442C081EBD5
:1048A00096E00E946E1780E00E940A16E091B5061D
:1048B000F091B60630E020E040E06BE081EB96E05E
:1048C00009958FEB99E190932D0780932C07C0E019
:1048D000D0E04BE150E060E08BE791E00E94B02037
:1048E00043E150E061E081E991E00E94B02048E0BE
:1048F00050E063E085EA91E00E94B0204CE050E097
:1049000064E081EC91E00E94B0204FE050E062E072
:104910008BED91E00E94B0202097D9F20E94000018
:10492000D8CF80912B07882321F081EB96E00E945D
:104930009B208C2FA1CFA1E21A2EAA1BBB1BFD012D
:104940000DC0AA1FBB1FEE1FFF1FA217B307E4076E
:10495000F50720F0A21BB30BE40BF50B661F771FC6
:10496000881F991F1A9469F76095709580959095A6
:104970009B01AC01BD01CF010895EE0FFF1F059013
:10498000F491E02D0994DC0101C06D934150504039
:10499000E0F70895FB01DC014150504048F00190E0
:1049A0000D920020C9F701C01D9241505040E0F720
:0649B0000895F894FFCF0A
:1049B6001815A015C019FF1815A115C819FF181547
:1049C600AE19FF1815AF19FF1815AE15D5168015B7
:1049D600A8163F15D316001540158D16141520166A
:1049E6000015A115C815DA1612158116CF15D91698
:1049F600F115DB1640152E15A415A619FF00011496
:104A06000A6464323200127A000004289610080004
:104A1600008000400000000000FE1FD61F4A20490B
:104A2600200C1A761A001AC2B04300576861742027
:104A3600612062656175746966756C2064617921AF
:104A4600005468652073756E277320636F6D65204B
:104A56006F7574210049742773207261696E696EDF
:104A660067206361747320616E6420646F67732EC0
:104A7600005468617420736F756E6473206C696B83
:104A860065207468756E6465722E004974277320FC
:104A960073746F70706564207261696E696E670009
:00000001FF
