:100000000C94852B0C94AD2B0C94AD2B0C94AD2B38
:100010000C94AD2B0C94AD2B0C94AD2B0C94AD2B00
:100020000C94AD2B0C94AD2B0C94AD2B0C94AD2BF0
:100030000C94AD2B0C94AD2B0C94AD2B0C94AD2BE0
:100040000C9421370C94AD2B0C94AD2B0C94AD2B50
:100050000C94AD2B0C94AD2B0C94AD2B0C94AD2BC0
:100060000C946B370C94AD2B1100060606060504A4
:100070000730300000300030000038000005B1408B
:100080003830091D0EA80CF51906CF60183C8361A5
:10009000F00C86C1331806CF60183C8361F0A4FFD2
:1000A000F30C86C1331806CF60183C8361F00C86D0
:1000B000C13318EA6700004143300C115E194EC687
:1000C000E808219FA4A36C16CD2AC360D877692CB9
:1000D000AD8A4371268FE489408FC8113524057598
:1000E000A80A16C11A5C822BF8013F40F20367335D
:1000F0004846A9301527422558004277300C115E3A
:100100001952048A742A3801A2400451A16014854E
:100110000721380444435A4C8A692131A446E488B3
:100120001C87D18016CAE259308B66E12C1406C4B4
:10013000281ED0237848DE931EC1037A100DA891A3
:100140002C9C45B36016CF4259400DA3F1881C5139
:100150004362488B49312925461138828463281827
:1001600045011A200A44C0294CC5894011A9A102A1
:10017000004354D8CB139E249CC49370124FC249A1
:100180003C0927F1249CC49370124F45A80C15A17B
:10019000325484CA9378104FE2414088070121A06D
:1001A0000384800ED1013A2497C032508849213906
:1001B00020C823712C0C66D1281E0474880C13816E
:1001C0001A548208004450AE1A1D6E0956426A3015
:1001D0001523237478928D92592CCDC4893C8E6856
:1001E0002125264335B002574152C8FF290C86A16C
:1001F000301886C260180A8361280C86A1301886E0
:10020000C260180A8361280C86A1301886C2601863
:100210000A836114004542EF0B113E0A58826A407E
:1002200011A6A25CBE5271091AC445680C97A1219F
:100230005C884670294886E800219E84A36816ECF5
:10024000725DFF8759B28A46D9269CA48B7890EFBD
:10025000013AC286C818014675700A1D3E05DE8047
:100260003B6887B185B5483DA44749C04B20012F65
:100270008108BAC441D81606615B14066D51183462
:100280000671C01A030233048621A12C04437008AE
:100290004C8321300DAD8155AC8A45E03814C5C280
:1002A0005218090C712430C481C810074233240746
:1002B000CD9018364362E0080BA1232C848EB01039
:1002C0003C4123F8048DE01334810A00476B2A0C6B
:1002D000112E19C6C3880813A102547C0C8FD13586
:1002E0003AC7F6D8201A249360928B6251AA4A85A5
:1002F000301014C2404C092321258C44A4301490A2
:10030000C2503C0B43F12C8C85B330160DC36030CA
:100310000C83B1348C86024A428908111D2483540F
:10032000400C0801312043C4800C112312488C4832
:1003300020317EC03F40024853300C11DE19CE847C
:10034000992895990953512E23994501890109242A
:10035000C63390180E41623405C9337128CED4914A
:10036000BA244FE41575A48E14111054C48BFE3CAE
:100370000291F806C6011C1886706014C4814118E9
:100380000904A1549C88D4700200491530091D0E3F
:10039000A80CF57FC60FF8FF8099A1FECF00004A98
:1003A000861F7C118E10B68266C81057C25A508CB8
:1003B000A9213D204390780C820209100622610C8D
:1003C000064391200A82E1480487C0805C9044D0B3
:1003D000381203A348180B22812884C49208120DF6
:1003E000046A4C0B8A213920889308128B424824D6
:1003F0000B2261308A04D138128103810406241152
:100400001404C391180683A1481801C2402418831C
:10041000A0680C41E279400D89312DA88485B80C83
:100420005941234C004B77300C113E29464867C98F
:10043000301667F2441082F1440E45234912CB6412
:100440004124140681509AC351710E85E5391096E6
:10045000E7405820C370810EC225320897C810604B
:10046000A28FE4FD4587E01219844B64102ED06101
:10047000B04006C2F21C08CB73282ACEE1A0340794
:1004800084C22092C982582449A2891C8A0742301A
:1004900022CFC4B13099A5838C8A09004C1E2A0C46
:1004A000110EFCFF3FA012A07EE0821FF00FF8109B
:1004B00025839C51227EC03FE0004D411E6C113EC1
:1004C00011B04395981611036A3C0EC79942081A59
:1004D0008A3485211094C6E3709C4F21040D459AFF
:1004E000C210084AE371384E0EC48930524DA481BF
:1004F000FCC010C5C490984D0A05004E822A0C110C
:100500002E1948E36F131C864310110C8341780C9D
:10051000855173280CC5614910062291240A439124
:10052000381087E1401807C4801C8A4362480EC413
:1005300021312487E1A018948360580CCA41302CE3
:1005400046C161310A0C8C816178CCE719020367DE
:10055000100C9C41307006E1A01D860376200ED859
:10056000A13858070341218E049448124E62592045
:100570008B86F368220C45C1201E2202004F6D308D
:100580000C113E29468823682ACB80C1200485535C
:100590001412CF60409882C3A1702246427A148818
:1005A000CA4120AE0671C818C3216B0887CC211C34
:1005B000B08760C020C1E18A04864B1218D2436A1A
:1005C000508D9F7A508DD4836A500FE9413D4A1176
:1005D000580042580328211920859380184803F2B7
:1005E0004C1C2B83593AC8A8980050442D0C110E6E
:1005F00035B6CBD471428AA948099006122C2A46F6
:1006000080D810430124140252F0038F4A8011ADA8
:100610006265A84C75B10EC9E11A3C831FF8A58527
:10062000F35026C685B8BC31511ECE02050000002D
:100630000004FFFF0000060006060606020407305D
:1006400030000030003000003F00000236403F30F4
:10065000A9C32F44D910211E65B364982B7369AACE
:100660004DC5993A93E70931A4A5A4989213823A0B
:1006700054068B68092EE115BC821FF00324C13B90
:10068000A145B00AD5814A4C4DC80000415F302CCD
:10069000C21744D910211E65B364186CC2453C08CA
:1006A000E8109B46C682881649E351249026815063
:1006B00096C46151100726391C198590681281B2C1
:1006C000A9385367F23C2186B49414537242508780
:1006D000CA60112DC125BC8257F0037E8024782783
:1006E000B40856A13A5089A90919004251EE6BC2CB
:1006F0009FC03A480B68E13C988832412A8D0B91A3
:10070000296C848EEFE98378904EC249B8C936D9F6
:10071000285A25B360970B63652C0DC5913E90C890
:100720002008AC4145A80A94813A4C09691135A0CA
:10073000C723692A0C46E91CA4610200437E302CC1
:10074000C22F44E908211E65B364982B73692A0EF1
:10075000C5993A93E70931A4A5A4989213823A5413
:10076000068B68092EE115BC028981524A4C256826
:10077000389480014D02063411080DA1591001C7AB
:10078000E02426C373A00C50A1324403CBF0110E19
:10079000C341980C869164308C24836124190C2306
:1007A000C960184906C34832184692C130920C8677
:1007B0009164308C260242D4000044596E7BC22DD5
:1007C000012BB41254A2D4801A9D0813A954904A44
:1007D00023237205AC4155A010D2226A408F47D224
:1007E0005498CB9251360927D9281A5566C11482DC
:1007F000024B10892B61242C0482B00C8CA132385E
:1008000006AA00152882449806D64012600229A044
:10081000051200456E302CC22DC26A508DAD848EFB
:10082000A0111A0366600C9881316006C680191AFF
:100830008246E00C27637484904FD251368B66E574
:10084000100ECC41080C06C66018188361600C8637
:1008500081310C01E1C01C04C7A2596D944EF241D4
:1008600042C7C8380D1C41233406CCC0183003637E
:10087000C00C8C013334048DD01156836A6C25581A
:100880000000000004FFFF0000E00004040606056D
:100890000707252FFDF820F81F00041D082916035F
:1008A000200600008154210E0448814CF80F548B1F
:1008B0004021020022138961B5D40814640A12474A
:1008C000868811122808002345102881D422438AE3
:1008D0000C2922A588942242AA08A922A4C8902201
:1008E000438A482922251EFC800C9152444A11213A
:1008F000F3E0074488942252A808A922A4C89022B1
:10090000438A482922A588902A420A00242C102ACA
:100910007954234C5B83AAD8382954A258428C09B5
:10092000576BDBA3676D5BB8306184089311295462
:10093000A41133A484E90C00253D102881542146DC
:10094000C210093424868C21316408112464CC102F
:100950002243982C616A09534B982C616A09534BC6
:10096000980C2132668820213205992123C8A020C5
:1009700064821811002636102881D432894E159BC6
:100980004264881121468430E1C284CB163D79301F
:100990001D097224C8912882840892126848A069AF
:1009A000C415A313858AB869C46C01270D8441B5A9
:1009B000CC0832E288902000281FC8678155124673
:1009C000A60C993284C810A28610FD5784282A44A8
:1009D000A810A142848400291EC87781D51844A894
:1009E00010A1425411A21521FA1B42B42144A60CB5
:1009F0009942C304012A1F8D43ADD51A3A2CCC98D5
:100A00001043863C08B1E8D8A1150F824C11664C02
:100A1000B0A1A3002B100C438D542248A3071F0C38
:100A2000224823002C0D84417DCC1081624898100F
:100A3000002D090C419554F8C1002E0B044181CCC6
:100A400010814204002F2B0F3881542D4A96685193
:100A5000B2448B92255A946851B2448B92255A9491
:100A60002CD1A2648916254BB42859A245C99205F8
:100A7000301D102881D432A88A8D9342258A25C43E
:100A8000FFFF61B212858AB861A5D0140031110848
:100A9000788154A2A692070F4610A2FFFF1F3229A9
:100AA000102881D432A88A8D9342258A25C4BB128E
:100AB000E2CA162D4BB66859B245CB16ADB6685989
:100AC000B245CB3EF80101332810288154F803B217
:100AD00045CB922D5A966CD1B2658D9E445C98346C
:100AE00061FA265C897124CC1869B42C6531003414
:100AF00028102881D42A4B98DAB284A92D4B98DA91
:100B0000B284A92D428A0C2932A4C8102A4388A293
:100B1000073F2048981E01352410288154F803C44B
:100B2000F40B536D9CBC3054A258428484E91821C4
:100B3000C264250A1571C34AA129003627102881ED
:100B4000D432A88A8D9342258A25C4982E4CB5713B
:100B5000F2C250896209F187C94A142AE286954295
:100B60005300372110288154F80374D9912056B6C8
:100B70005AB2D512265B2D61B2D592AD2DD9DA923B
:100B8000AD0E00382A102881D432A88A8D934225D0
:100B90008A25C487C94A142AE286111B27854A146C
:100BA0004B880F93952854C40D2B85A60039291026
:100BB0002881D432A88A8D9342258A25C41F262BEA
:100BC00051C8C41337AD4C10A6314284C94A142A07
:100BD000E286954253003A0F844489CC1081423C0E
:100BE000C4225088003B12044585CC1081423CC48D
:100BF00022500C091302003C178A548D5414378C70
:100C0000506D0C111B378E58B962B51B28003D0E74
:100C1000CE328B54F8C17A881F7CB0003E188A54BB
:100C20008D5408398E5875C52A2337AA506D4A113C
:100C30001B2710003F23102881D432A88A8D9342AD
:100C4000258A25444898DAA2454D5A5A2D61FA7BE7
:100C5000E84513262D0E0040669C297160450F86DD
:100C6000F983B00F461E3B67D454F142E44190290A
:100C700086A4082935240AAD49B50851914288282F
:100C8000424411228A1051848822441421A208115E
:100C9000458828424411228A105184A88891540F13
:100CA00046147A3084D48330C50811230FB23C48EF
:100CB000F300CF837B40F4C1E007C11D0141311037
:100CC000288154234CB86C519B9E3C888724881102
:100CD000214684181162448891214586101D71D4E3
:100CE000C4093122C4881023428EC440840442388F
:100CF0001028815450C6A88D1352458895204782EC
:100D00001C097224C891204782580952459CB46935
:100D1000E38494096225C8912088EF48102B41AAEA
:100D20008893368CD201431F102881D432A88A8D33
:100D30009342258A25C498FEFF1061B212858AB8B5
:100D400061A5D01400441B1028815458D5C6C90B86
:100D50006225C825C4FFFFBB64255E3869B30A005D
:100D6000451410288154F803C4F48F19F18830FD1C
:100D7000E3073F20461210288154F803C4F48F196A
:100D8000F18830FD3F064720102881D432A88A8D93
:100D90009342258A25C4987EC487F861B212854C97
:100DA0003C71D3CA04014811102881542088FF0FD8
:100DB0001FFC8021FE3F2449090448814CF83F4034
:100DC0004A1710288154A6FFFF1F234498AC44A162
:100DD000226E58293405004B3F0F28815420872C60
:100DE0001909522508152154844C198A8814225156
:100DF0008A44A964E8D01D3C68F2203A74C94810BE
:100E000023518A48213284C89421448650115225A6
:100E1000889120968E004C0F10288154204CFFFFA3
:100E2000FFE3073F204D2A1028815420884E995611
:100E30008C1835F1E4C15F98406102850924449023
:100E4000104132068D183462D00442887F48004E2B
:100E5000281028815420982E3B659AAD5AC588A346
:100E60003628C8A0288284081222484AA02181A6D8
:100E700011AF36D35D0E094F1D102881D432A88AD8
:100E80008D9342258A25C4FFFF61B212858AB8611D
:100E9000A5D0140050231028815450C6A88D135299
:100EA00026889520478220BE2341AC0429134EDAC0
:100EB000304A4798FE8F01511D102881D432A88AEC
:100EC0008D9342258A25C4FFFF61B212858AB869D5
:100ED000C4CC040152371028815448C7A88D13523E
:100EE000268895209710DF912056825411276D187F
:100EF00031A2476548912145861419624488112121
:100F000046841C097224C891204800532710288168
:100F1000D432A88A8D9342258A25C49870B5766C00
:100F2000D6B6850B1346883059894245DCB05268E5
:100F30000A00541010288154F8036284E9FFFF7FEF
:100F400006005516102881542088FFFFFF3059896C
:100F50004245DCB052680A005637102881542048B8
:100F6000622009722488112146841899616448918D
:100F700021458610BD22438A0C2932C388102342A2
:100F80008E043912E448904388F22ECDD62B0057B8
:100F900041102881542088431203499023418E0434
:100FA0003912E4861023428C08913044C804A144CD
:100FB00008254228194184042524282141899BBE03
:100FC00061C4C844A122858A142A52A80C214A006F
:100FD000583B10288154284782580962448891213F
:100FE0004586108DCA9022528A083122E4D22144CB
:100FF00079D2A8D183182623428C083122A4CA10A2
:10100000A257448811214684983A02593410288105
:101010005420488258096244481529443785C8102D
:1010200023428C443112E412223C79D26CB584C93B
:1010300096254CB62C61B2650993254CB62C005A06
:101040002810288154F803B265C996255B966C591F
:10105000B265C996254CB62CD9B264CB922D4BB64D
:101060002CD9B20F7E40005B1009688155F84015FD
:10107000FDFFFFEAC103035C210F388154204B9828
:101080002CD9B2D496A5B62CB565A92D4B6D596A4D
:10109000CB525B96DAB214135D1009688155F8C023
:1010A00014FDFFFFEAC103055E0E8C41C3542267A5
:1010B0000A51122A08115F08D4007B54F803600B10
:1010C0008771BD541844D1A8096131122681D63ADE
:1010D0009A7059A35265C8912147861C71D2C55890
:1010E0003572F3A41C1182440812214884209162B5
:1010F000461E0879104605214402621F10288154BB
:10110000204C7F61AA8D9317864A144B88FFC364D5
:101110008B4ABC70D286842900631E102681D4328B
:10112000A88A8D9342258A25C498FE1061B2128543
:101130008AB861A5D01400641E10288154A6BF325D
:1011400041A6898B17859625C4FF61B212854C3C58
:1011500071D3CA04016520102681D432A88A8D93E8
:1011600042258A25C4E1831F30A671B131858AB832
:1011700061A5D01400661810288154248A4E99AABB
:101180002285684C0F9DF88C30FDFF1000672E10F3
:101190002871D45AD3C4C58B42258A25C461B212A2
:1011A000858AB861A50C5D59C2840B2763E3E245CB
:1011B000B18408933D28E28619220068171028811F
:1011C00054204C7F61AA8D9317864A144B88FFFFE9
:1011D00090006915063881CC1043848C78C044E8AF
:1011E000FF3FA9A20821016A1A0C4A71D414499040
:1011F000A4781813A4FFFF3F4494A4841235C808B0
:10120000016B3710288154204C7F97AC043122A405
:101210008A902243A80C216A0A1129458418896200
:1012200024C8A553A66C958942460895A9880CA99F
:1012300022C488102B41AE006C110828814C204438
:10124000FFFFFF51A113470C116D3F1C2681602049
:1012500061CC5413350F963C606108518962C61207
:101260001244481021418404111244481021418441
:1012700004111244481021418404111244481021E1
:1012800041840411124448016E15102681542061D6
:10129000AA8D9317864A144B88FFFF90006F1C108D
:1012A0002681D432A88A8D9342258A25C4FF61B253
:1012B00012858AB861A5D0140070201028715420BE
:1012C00061AA8D9317864A144B88FFC3648B4ABC6E
:1012D00070D2868429C2F46300711E102871D43242
:1012E00041A6898B17859625C4FF61B212854C3CB7
:1012F00071D3CA0461FA0372110C26815020F1E007
:1013000003226910D2FF3F04731D0E2681523287DB
:101310004A0D8B42C9705A34594E8B22C32C510945
:1013200036AAD0190274160A18814C21463F7AF069
:10133000400931FAFFACD89943C6087515102681CB
:10134000542088FFFF30598942269EB86965820083
:10135000762E10268154208890043912C4881023D8
:10136000428C083132A4C810A25F91214584181123
:10137000624488112147821C425C9E340500774AF2
:101380001C2681602048102115E42821668C083134
:10139000634488192342CC181952A6CA104244113A
:1013A000228A10518488141912634A11A119119AC2
:1013B00011A11911DA912033A21C22848810224233
:1013C0008808E5A993C64C01782D10268154204841
:1013D000821811626408D18A083122E410A2346AAA
:1013E000963059A32611A223428C082942B42146E3
:1013F0008418098204792E1028715421468418110A
:1014000052454811A2DF1422438C083122C48810AF
:1014100023428C04413C3C6AA7856927A458327555
:10142000284B027A1910268154F803B245AB2D5A85
:101430006DD1DA16ADB668B50F7E40007B224B4900
:1014400077541C47AC94A162C5C8D19F9132646A9D
:10145000A0317304C9D1DF152B67AC1CC1017C0A14
:10146000048A7954F8FF40017D204B49775418587D
:10147000CCD4B172E5E81F92AB5258A962D4D19F87
:10148000952A74C854B181007E1491219354094661
:10149000A844920741DE2029242E0C007F0600007C
:1014A0008154800600008154810600008154820628
:1014B000000081548306000081548406000081549A
:1014C00085060000815486060000815487060000CE
:1014D00081548806000081548906000081548A06E0
:1014E000000081548B06000081548C06000081545A
:1014F0008D06000081548E06000081548F06000086
:101500008154900600008154910600008154920697
:101510000000815493060000815494060000815419
:10152000950600008154960600008154970600003D
:1015300081549806000081549906000081549A064F
:10154000000081549B06000081549C0600008154D9
:101550009D06000081549E06000081549F060000F5
:101560008154A00600008154A10600008154A20607
:1015700000008154A31F1028815433894E159B42CB
:10158000644815214684307DBA6A7784E96F8B3EC2
:10159000F80101A40600008154A50600008154A6AC
:1015A0000600008154A74B202681E4ACB828E992BC
:1015B000854B963668F6DC59642853252C518844AF
:1015C000B922648A102B53844C292A489529868C89
:1015D00048B973250A1A546850A141850697216BB2
:1015E000A4A88488262DC230611228955283A600B3
:1015F000A80600008154A95C1C288160450F86F96B
:1016000083B00F461E3B67D454F142A44C91298409
:10161000A808214524CAB0495388101A6264D01022
:1016200023839A0C6A32A8C9A0268386181934C469
:10163000C8A02944280D9B128414112984A80C29C0
:1016400053848A97326AEED8C907631F04670F066E
:101650002900AA0600008154AB2410248FD40B2645
:101660006A226A2A2962A24C19328506911A448A92
:101670004CA132A58A942A6288AAC924AC0600002B
:101680008154AD0600008154AE0600008154AF06BF
:1016900000008154B010C721BB4B19536208991246
:1016A00023CA0C01B10600008154B2060000815427
:1016B000B30600008154B40600008154B51590278C
:1016C00075542088FFFF30D9A2071FB43081981EBF
:1016D00003B60600008154B70600008154B8060026
:1016E000008154B90600008154BA0600008154BB41
:1016F0002810248F5408264ED4B041A48A942A621C
:10170000A84CA13285A81A44A6923245CA1429626F
:10171000862A51C3828903BC0600008154BD06009D
:10172000008154BE0600008154BF0600008154C0F1
:1017300037D0298154224DF5F0A98712265CB6A82E
:101740004D4F1EC44312C4881023428C083122C45A
:10175000C8902243888E386AE28418116244881146
:10176000214762204202C137D02981D41C4C96F017
:10177000AC8713265CB6A84D4F1EC44312C4881014
:1017800023428C083122C4C8902243888E386AE2F2
:1017900084181162448811214762204202C23DD060
:1017A000298154236BD424897144880D1A356C2007
:1017B00061C2658BDAF4E4413C24418C083122C4D7
:1017C000881023428C0C293284E888A3264E881185
:1017D00021468418117224062224C3060000815475
:1017E000C4368F39815512238E043112E4C48887A0
:1017F000B2685D1EBC77C9481023418C043112A425
:10180000C8102243880C213284C8101A44A6494FBC
:10181000489120877704C50600008154C64E1BD826
:1018200080D47D10F481D007421F88440F083D18F2
:1018300012E4C190200F86047920D403A11E08F57C
:10184000208A900741863C08320BCB2C24B490D0E0
:10185000BA42C449112745DAE38FC9912D47962032
:1018600059820F083E18F960A403C706000081548E
:10187000C81CD0298154224DF5F0D1A4073DF801B0
:1018800062FAC78C784498FEF1831F10C91AD029D8
:101890008154244C96E2593EF80162FAC78C784490
:1018A00098FEF1831F10CA22D0298154236BD4E4FF
:1018B000087244880D1A356CC8831F20A67FCC8817
:1018C0004784E91F3FF80101CB209029815412235E
:1018D0009004391204C58887EEC10F10D33F5EB55E
:1018E0002BC2F48F1FFC8000CC13C86981542045A3
:1018F000D5B0A98610A2FFFFFF9F00CD11C8698156
:1019000054A286A2D911A2FFFFFF9F00CE1ACC4994
:1019100081542267CC14893144880C1A316C1041EF
:10192000FAFFFFFF1100CF16896981D510238204C9
:101930000A1262C4032345FFFFFFBF01D006000067
:101940008154D10600008154D224D0298154224DE3
:10195000F5F0D1A4471A54C5C649A112C512E2FF39
:10196000FF3059894245DCB052680A00D322D029A1
:101970008154244C96E2991B54C5C649A112C51244
:10198000E2FFFF3059894245DCB052680A00D42991
:10199000D0298154236BD4E4087244880D1A356C25
:1019A0009C41556C9C142A512C21FEFF0F939528C5
:1019B00054C40D2B85A600D51D102881D432A88AC9
:1019C0008D9342258A25C4FFFF61B212858AB861D2
:1019D000A5D01400D62790298154122390043912DF
:1019E00004C58887D8A02A364E0A95289610FFFF8E
:1019F00087C94A142AE28695425300D7060000811F
:101A000054D80600008154D91DD0298154224DF5A7
:101A1000F0D1A40711C4FFFF7F98AC44A1226E58F7
:101A200029340500DA1BD0298154244C96E259123E
:101A3000C4FFFF7F98AC44A1226E5829340500DB17
:101A400022D0298154236BD4E4087244880D1A35BE
:101A50006C0841FCFFFF87C94A142AE2869542536D
:101A600000DC209029815412239004391204C58887
:101A7000878E20FEFFFFC364250A1571C34AA12982
:101A800000DD0600008154DE0600008154DF3410C2
:101A900028815432894E159B42458811214684186D
:101AA0001162444815217286C819224888A420561C
:101AB000825C42FCEF929520928208122267889401
:101AC00002E03A12288156224FFD7810E3418C87BC
:101AD000C9D184CB1A952A438E0C3932E488932ECF
:101AE000C6AA919B27E588102442900841220489C8
:101AF0001433F240C883302A082112E136122881BB
:101B000056244DF9EC617734E1B246A5CA902343DF
:101B10008E0C39E2A48BB16AE4E6493922048910BB
:101B2000244290084122C58C3C10F2208C0A428845
:101B300004E23D122881D62A6CF8E8108264068EF1
:101B40001A0F8BA30997352A55861C197264C81180
:101B5000275D8C5523374FCA1121488420118244B8
:101B600008122966E4819007615410422400E306BC
:101B700000008154E43CD227815612239404491278
:101B800044C58887B3A30997352A55861C19726402
:101B9000C811275D8C5523374FCA11214884201165
:101BA000824408122966E48190076154103A340097
:101BB000E50600008154E63C1826815CB20E09AAB5
:101BC00007651E9C2864281931649412234A8C28C6
:101BD00031420F8A3C38F1E0835344891125469401
:101BE000183154C5D21C2AF1E0C8034349D09532BC
:101BF0000400E723902775D432A88A8D9342258A62
:101C000025C498FE1061B212858AB861A5D02C61F6
:101C100092B7340700E82610288154224DF5F0E9E8
:101C2000A135A88A8D9342258A25C4E1831F30A659
:101C3000713122858AB861A5D01400E92510288168
:101C400054244BF1EC616150151B27854A144B88D5
:101C5000C3073F604CE362630A1571C34AA12900C0
:101C6000EA2B10288154236B12E1907183460D1BDF
:101C70000FA541556C9C142A512C210E1FFC80315C
:101C80008D8B8D2954C40D2B85A600EB2AD027817E
:101C90005412239004391204C58887B541556C9CB1
:101CA000142A512C210E1FFC80318D8B8D2954C498
:101CB0000D2B85A600EC150728814C203488A251F5
:101CC000E3C9D0FF7F5349195202ED15073881CC83
:101CD00021426646E3C1D0FFFFA69232A44400EE43
:101CE0001C0CF8804C22670AD1903183460C1B0FE4
:101CF0009A20FDFF87D515242A0400EF1A091881C0
:101D0000CB102382040A1262C443498AFEFFAB8AC5
:101D10004A91130100F00600008154F10600008191
:101D200054F225D02981D4294C9A62D2A4C7C3BFCA
:101D300031A88A8D9342258A25C4FF61B212858A13
:101D4000B861A5D01400F32110288154244BF1EC84
:101D5000616150151B27854A144B88FFC364250A0F
:101D60001571C34AA12900F42710288154236B124E
:101D7000E1907183460D1B0FA541556C9C142A51AF
:101D80002C21FE0F93952854C40D2B85A600F51C1D
:101D9000102681D432A88A8D9342258A25C4FF61FA
:101DA000B212858AB861A5D01400F626D0278154D6
:101DB00012239004391204C58887B541556C9C14D0
:101DC0002A512C21FE0F93952854C40D2B85A60073
:101DD000F7168C4487D4124990A478681F7C301E73
:101DE0005A9104498A02F835102881D43241864D2F
:101DF0001327854A9452B523DE90404302490924B3
:101E0000449010414106051914641871B46A953262
:101E100055250A1571D2860D095300F91B1028812A
:101E200054224DF5F0E9212388FFFF3059894226DD
:101E30009EB869658200FA1A10288154244BF1EC8F
:101E4000A12588FFFF30598942269EB86965820026
:101E5000FB2010288154236B12E1907183460D1BE7
:101E60000F1141FCFF87C94A1432F1C44D2B1304F2
:101E7000FC1FD027815412239004391204C588878F
:101E80002141FCFF87C94A1432F1C44D2B1304FDD4
:101E90000600008154FE0600008154FF0600008108
:101EA0005400000004FFFF00000000000023002693
:101EB00000290000000000240027002A0000000084
:101EC00000250028002B0004040404040404040278
:101ED00002020202020303030303030102040810C7
:101EE0002040800102040810200102040810200094
:101EF00000000800020100000304070000000000C9
:101F00000000003E0004030505040506101000FE55
:101F10000AFE0BFF01C4037E0557200600A04701FF
:101F20002108413144E14200220985284621469B8F
:101F300000230E462544254F2E42B238C9130024F3
:101F40001447254427A822244424686C28442445A7
:101F5000510C00251947254443462422494488440E
:101F600054585484484448441219090026164725F9
:101F7000446526494C8A20A188109908A1881891A7
:101F8000910027078130468100280E83ED432522EA
:101F90002422246F426202290F83E943212624264A
:101FA000242F422242002A0FE7644427498A6C66A4
:101FB00022324913032B0CE76444272CCD4D581AC9
:101FC000002C0A82AC4341224202002D07242845FE
:101FD00081002E07422C4481002F0E4625442B51B0
:101FE000AAA0A8A054510030164625444526242214
:101FF00048662442226446282224460400310C45C7
:10200000294425462422289F143210462544832241
:1020100048282A462628559401331246254483220F
:1020200048282A642C4A4828820200341346254452
:102030002948262224454C444C8451540A00350F2B
:10204000462544E12A55595494500405003610465B
:1020500025446524282AAA2248A3080A00370D46E9
:102060002544C12A5154A2A84C0038104625448367
:1020700022485104459046111400390F46254483E7
:102080002248514455462123003A08E26C44818C91
:10209000003B0B22ED43814C224202003C092529E2
:1020A00044292657393D09A6A444C11EC6003E0A4C
:1020B000252544212A3739023F10462544832248EA
:1020C000282A28556C5408004016462544652446A5
:1020D0002442226222442244224464228C00410F82
:1020E0004625444526248B20A183208D02420E469E
:1020F0002544A12248914590461600430E462544AA
:10210000832248558E84222800440E46254481248B
:10211000262248DF449000450C462544E12A5545D7
:10212000545606460C462544E12A554554AE004710
:102130000F46254483224855122235121301480CBC
:102140004625442148A383201D05490A452944A169
:1021500024283F294A0F472544A5282C4F62426274
:102160006266004B154625442148262224458C9062
:1021700050444C489A88A0004C09462544212A7FA7
:10218000654D0E462544214868846442471A054E31
:1021900014462544216866462244224424422442AF
:1021A0006651004F0C4625448322483F8AA00050C8
:1021B0000D462544A12248914554AE00511A67E5C9
:1021C0004383242822282228222822282228224227
:1021D000224244844E005212462544A12248914591
:1021E000489A88988820A100530E462544832248A7
:1021F000994642111400540A472544E1262C7F03D6
:10220000550B46254421487F144101561547254466
:10221000214A55444C484C484C8AA088A8B0180024
:10222000570E4625442148175A8C900C0905581220
:1022300046254421482822241B2199902C8284027F
:102240005911472544214A2A222624264554586EEE
:10225000005A0B462544C12A515E45195B0A83F199
:10226000438124FF64005C0E462544212A2C5558E6
:102270005458AA005D0A83E5436124FF84005E0B85
:102280006664464526242228005F0727E443E100D0
:10229000600863A846212601610F06254483222891
:1022A0002AC2488DC444006210662544212A8B0945
:1022B00019218D66242600630D0625448322482AB1
:1022C00047111400640E6625442B8B099921DD48C3
:1022D0004C04650F062544832248E8202A51040552
:1022E00000660D6525444724284949509E0067161D
:1022F00066A5432B6242262226222664268A22488D
:1023000028820200680D662544212A8B0919213D87
:102310000A690B652944252850289F146A0DA5A534
:102320004329A1503E120911016B14662544212A4C
:102330009B8890143142113121692282026C0A6516
:1023400029444328FFA4006D160725446142222436
:10235000442444244424442444244424016E0C068C
:10236000254421624246488F026F0C062544832291
:10237000488F222800701146A5432162424648A397
:10238000198989A82800710E46A54363426648371B
:1023900012135109720D06254421624246482A57FC
:1023A00000730D0625448322484CA3080A00740CD0
:1023B0004525442528494950AE04750B062544217E
:1023C00048DF484C04760E0625442148514448DE37
:1023D0000889007715072544214A244424442444CD
:1023E0002444244424850A007812062544214828E0
:1023F00022244648262422482800790F46A5432156
:10240000484711212AA25250007A0A062544C12ABF
:1024100028AF0C7B11A4A943452226282624519AD3
:10242000909820017C07C1B143E1017D12A4A9432A
:10243000412826242628499AA0980811007E0C6776
:102440002446434624444602007F2610A2832122CC
:10245000BF879087978718A1881989088A0A89A059
:10246000881989088A1AA1B08797879787C81F009B
:10247000000010B2E809E2BC0F0A8DC5BC0B0AFFD0
:10248000FFAC001CACED833136C624302430243040
:102490008428262E262C282A8D586C1A00AC011967
:1024A000CDE98335A42A2C2A2C2AD9485C8860706F
:1024B0003CCC41704E00AC0419CDE98335A42A2CE4
:1024C0002A2C2AD9485C886070A2E08C0F4400ACAA
:1024D000081ECDE98335A42A2C2A2C2AD9485C88E9
:1024E00060703CCC4170D44154F0410800AC101EE7
:1024F000CDE98335A42A2C2A2C2AD9485C8860701F
:102500003CD0595458545854D80900AC111ECDE948
:102510008335A42A2C2A2C2AD9485C8860703C5028
:10252000545854D85954D80900AC1221CDE98335F8
:10253000A42A2C2A2C2AD9485C8860703C444C5030
:102540004CA298A2982C422A6402AC151BCDE983B8
:1025500035A42A2C2A2C2AD9485C8860703C12B3F6
:102560005461613600AC161DCDE98335A42A2C2AAE
:102570002C2AD9485C8860703CD06970A8449C5073
:102580000800AC191BCDE98335A42A2C2A2C2AD9A2
:10259000485C8860703CD059F059F00900AC1C23AD
:1025A000ACED83312430E4245548AA9054214431C1
:1025B00021413121314121A942C642024302430255
:1025C000AC7015ACED8337F62A9F10850585C5C420
:1025D00085044EC626AC7418CBE983D52A282A2850
:1025E0002A2668246E30341E3034E9C100AC7717D7
:1025F000CBE983D52A282A282A2668246E3034FE7F
:102600002834E901AC781BCBE983D52A282A282A6B
:102610002668246E3034FC2034E62026F42000ACFA
:10262000811BCBE983D52A282A282A2668246E30E4
:10263000343E2A282AE8282AE800AC8318CCE9830B
:1026400035A22A8F8266E2220463E3E162534A8460
:102650000905AC8C26ACED83332232E226222A26F1
:10266000222A26222A62222845508A98A88890B0D9
:1026700088B988C888C88800ACA816ACED8337F63E
:102680002A275489C2826268E24202276313ACA9F6
:1026900017CBE983D52A282A2866262C24AA303489
:1026A0001EF4203403ACAA1CCBE983D52A282A289F
:1026B00066262C24AA30341EAEA2282A282A282ACC
:1026C00000ACAC17CBE983D52A282A2866262C240F
:1026D000AA30347168D28301ACB01BCBE983D52A10
:1026E000282A2866262C24AA3034FC2034E620260A
:1026F000F42000ACBD1BCBE983D52A282A28662606
:102700002C24AA30341ED6282C262CC80200ACC497
:1027100027ACED83332232E226222A26222A6222A5
:102720002A2622284550C8444C54444858C45C4486
:102730006444644400ACE0104D2584E36038774184
:1027400071C1E90E0CACE716ADE583E54038C398DE
:10275000C0B003FB03A1E0C4072200ACF317ADE552
:1027600083E54038C398C0B0037B24C1B1118132E6
:102770004100ACF517ADE583E54038C398C0B00320
:102780007BF8BAA8B0A8B82200ACFC1EAEE5833531
:102790003AE820223622362236822826222E2A2E77
:1027A0002AE640223A1B00AD001DCEE58337C8263D
:1027B000322632662E262C24262CC9C1443C507465
:1027C000D6072200AD111DCEE58337C8263226324A
:1027D000662E262C24262CC9C1443C2ABBB0EC6CA6
:1027E00000AD1C1DCCE5833322C4225D44BA88B9F8
:1027F0008844211189521C48A48FCDF64000AD5069
:10280000154D2584E36038573121513181318131B3
:10281000510706AD6C0F8BE983E14034AF0FA8423E
:10282000B302AD6D12ADE583E54038FB03B3E0C004
:1028300003E19C00AD7016ADE583E540387BE8030D
:10284000B3E0C098C0E0E0031100AD7417ADE583BC
:10285000E54038FB03B3E0C003E1A003A1E00311AE
:1028600000ADC01ECCE583378B0389C888C888C8F3
:1028700088C888D8038AA0B0A0B0A0B0A0B000AD2E
:10288000DC168DE583E34038EF210E8C6202630293
:102890006302638200ADF80C0DA584E36038EF0F8E
:1028A0000CADF910ADE583E54038F707F607C239FE
:1028B00001ADFC12ADE583E54038F707F6D0C189DC
:1028C0000F4400AE0015ADE583E54038F707F60785
:1028D000C2410742C1072200AE0817ADE583E540BB
:1028E00038F707F60742714171417141072200AE86
:1028F0003017AAED8333F2262A262A262A262837DD
:10290000512161739109AE381BCBE983D52A282A5E
:10291000282A262C246E3034FC2034E62026F4208D
:1029200000AE4A1CCBE983D52A282A282A262C2443
:102930006E30341EF24028262C26E84000AE4C2192
:10294000AEE583353A8662242C26242C26242C26B8
:10295000842426554CA298A0985461A9D300AE5D5A
:1029600024CFE183398482262A28262A28262A2869
:10297000662428898C54783C60546054E06154E0AB
:102980000900AE6827AEE583352434A462244D9255
:102990003449D224218949922649444C50884C54C8
:1029A000484C58486848684800AEBC1FAEE5833BB9
:1029B000BA622A26554CAA9824243161213161112A
:1029C000317132813191D109AED82AAEE5833722F7
:1029D00036A2622622268B982C62524C84C404456F
:1029E00084C40445A4898A90098B88898B888D8842
:1029F0008D08AEF41FAEE5833BBA622A26554C1211
:102A00009A5421316121313114317132813191D1A6
:102A100009AF2D16ADE583A35954585458545C7032
:102A2000D881FD81704E00AF431BADE583A359549F
:102A3000585458545C70D8813D54A4696C44A04CDF
:102A40000C00AFB8106CE583A1A22A7F7E40169BD4
:102A50001500AFC81DADE583A3595458545854F818
:102A6000815970E081505C505C505CD0810800B0AE
:102A70000C20CCE583376D05494C50484C50484CF0
:102A800050486CEC0145505850585058505800B0C0
:102A90004C1AADE583A35954585458543CF081FD69
:102AA0008170D08150F0810800B0541CADE583A343
:102AB0005954585458543CF081FD81505C505C503E
:102AC0005CD0810800B05D1AADE583A35954585419
:102AD00058543CF081FD8150F08150F0810800B0E5
:102AE0007C1AACE58337B66226FF494C50484C50FF
:102AF000444C944C584C5C6C02B08C1FCDE183B9B3
:102B00008226514CA29844312141413352C1F140B7
:102B10006751615161516107B09819AEE583353A4B
:102B20004D644C644C64654C644C64CC41487436D0
:102B300000B09C18CEE583373A4968482869486850
:102B40008855745474D6072200B0A01CCEE5833794
:102B50003A4968482869486888553CD44174D84146
:102B600058F4410800B0A81CCEE583373A496848BC
:102B70002869486888553CD85D545C545C54DC092D
:102B800000B0AE1BCEE583373A49684828694868EB
:102B900088553CD86D74AC44A0500800B0B31BCE2F
:102BA000E583373A4968482869486888553C60E4B5
:102BB000815C6154601100B0B420AEE583352434EB
:102BC00024344432443244B23244324432E4402465
:102BD00069486848684800B0E517CEE583373A4948
:102BE000286948286988553C2ABBB0EC6C00B108BC
:102BF00010AEE5833BB5B0CA62C50752D119B11317
:102C000019CCE58337ADA820A9E85574454C544448
:102C10004C448BA8988806B11812CCE58337ADA830
:102C200020A9E8553CC855BE3AB12317CCE58337F7
:102C3000ADA820A9E8553C50DC81545954580900EE
:102C4000B12422AEE5833722362236423442344262
:102C500070423442344234E2402622362236223652
:102C60002200B14011AEE5833BB5B064B1CAE203C6
:102C7000A9E80CB14112CCE58337AD20A920E95574
:102C80003CF4416C06B14413CCE58337AD20A92058
:102C9000E9556C786CDA8301B15516CCE58337AD14
:102CA00020A920E9553CB855585058940500B178F2
:102CB000108D25842338C707F46882931D18B180CE
:102CC00018ADE5832538F1816070D881FD8170D021
:102CD0008150F0810800B1881AADE5832538F18173
:102CE0006070D881FD81505C505C505CD0810800E0
:102CF000B18D17ADE5832538F1816070D8813D7CB9
:102D00005D5458545C1100B19219ADE5832538F13A
:102D1000816070D8813DF481584C604CD8810800A6
:102D2000B19318ADE5832538F1816070D8813D50AD
:102D3000E081585D545C1100B20411ABE983213489
:102D4000A707F4700754A15901B20817ADE5832510
:102D500038F1813CF4815970604C6070F08108005A
:102D6000B2151AADE5832538F181FC815970605C9C
:102D7000505CD081505CD0810800B27417ADE583FF
:102D80002338C707F4C00746318131813181314191
:102D900000B2900E4DA5842338C707F4480F0CB23B
:102DA0009414ADE5832538F1813CF4813D7470E2E3
:102DB000031100B29817ADE5832538F1813CF48109
:102DC000FD8170D08150F0810800B2A516ADE58379
:102DD0002538F1813CF4813D7C5D5458545C1100F0
:102DE000B2A616ADE5832538F1813CF4813DBC697E
:102DF0006C44A04C0C00B2C80EACE58337ADA89E65
:102E00001EC8C466B2D811CCE58337ADA8A657F169
:102E10002057F9EA00B2E41AAEE583353AE62024F9
:102E20002632263226B2322632E620243A3700B243
:102E3000E61CCEE583373AC42A2434249434C42AC9
:102E40003A1E45BBA8B8A8B8A81000B2E818CEE54D
:102E500083373AC42A2434249434C42A3A5574D685
:102E6000072200B2EC1DCEE583373AC42A2434246D
:102E70009434C42A3A1EEA203AEC202CFA200400AA
:102E8000B2ED1FCEE583373AC42A2434249434C4E7
:102E90002A3A1EA4A22E2AA62A2632A62A0400B264
:102EA000F41DCEE583373AC42A2434249434C42A4A
:102EB0003A1EEC2E2A2E2A2E2AEE0400B2F51DCE42
:102EC000E583373AC42A2434249434C42A3A1E2C85
:102ED0002A2E2AEE2E2AEE0400B2F919CEE5833707
:102EE0003AC42A2434249434C42A3A1E955D587670
:102EF0003600B30021AEE583352434E44024443267
:102F0000443244B2324432E4402469486848684854
:102F1000684800B35412AEE5833BFA404A5865B1A5
:102F2000F08154740EB35813CCE58337F64A5490AD
:102F3000F42A361E36DB8301B37023AEE5833722D5
:102F400036E2402642344234427042344234E24057
:102F50002622362236223622362200B3C4128D258E
:102F600084E3802438E3037A34C1C90E0CB3C51559
:102F7000ADE583E5402838F8403038ECC0FE4038F5
:102F80002700B3C817ADE583E5402838F84030384E
:102F9000ECC01E3A38F1810800B3CC1AADE583E5E8
:102FA000402838F8403038ECC0FE4038E84028F877
:102FB000400400B3D919ADE583E5402838F8403026
:102FC00038ECC01EBE2E2A2C2AAE0800B41817CC2E
:102FD000E58337F6404654E9814C6CA2B0A0B003BB
:102FE0008AD804B45012ABE983E1A034D3037AB891
:102FF00003AAD0AC00B4581AADE583E5402838F8F0
:1030000040FEC02C38F04038E84028F8400400B4B6
:10301000A41BCCE58337F6604454E9C1486CEC014D
:1030200045505850585058505800B4C019ADE58319
:10303000E3802438E3037AE003A398C098C098C0E3
:10304000982000B4DC104DA584E3802438E3037A93
:10305000A40706B4E016ADE583E5402838F8401E25
:10306000FAC01E3A38F1810800B4E317ADE583E5F4
:10307000402838F8401EFAC0FE402838F181080088
:10308000B4E419ADE583E5402838F8401EFAC0FEE7
:103090004038E84028F8400400B4EF18ADE583E577
:1030A000402838F8401EFAC01E49706C44A04C10ED
:1030B00000B4F118ADE583E5402838F8401EFAC0A9
:1030C0001EBE2E2A2C2AAE0800B51410ACE583379C
:1030D000F6404654A70732B139B5301BAEE583350B
:1030E0003A86822226284D509AA0A0A2344169280F
:1030F00028A27303B53822CEE583373A64622824C8
:10310000262C24268C262C6462283A1EEA203AECCF
:10311000202CFA200400B5451ECEE583373A6462C0
:103120002824262C24268C262C6462283A1E955DA1
:1031300058763600B54C23AEE583352434A482227C
:103140004428895012A1A0A22442492A284242437D
:1031500042434243424302B5A018AEE5833BBA82E4
:1031600048284E284E28A8284E28AE82283A07B56F
:10317000A418CCE58337966248264C2688268C62B4
:1031800028361E36DB8301B5A81DCCE58337966251
:1031900048264C2688268C6228361EE22036E820F7
:1031A00028F62000B5BB1DCCE58337966248264C37
:1031B0002688268C6228361E28EE40AA2C2AAC04CB
:1031C00000B610178D2584A34954585458545854A8
:1031D00058453D9AE0640706B73B19ADE583858203
:1031E000285D501C053DF4813D92E0D8884099202F
:1031F00000B77C1AADE9833338E62432243224E662
:10320000A43026302630E624381B00B78C1DCDE9CB
:10321000833538C4282E28C48832C428381EE82CA8
:103220002A2C2A2C2AEC0400B7911ACDE9833538D0
:10323000C4282E28C48832C428381E8959AAB03020
:103240001B00B7971CCDE9833538C4282E28C488C5
:1032500032C428381E2CF040AC2E2AAE0800B79895
:1032600022ADE983332432E420245948B29090837C
:1032700090C210C110C1908390942191219121019D
:10328000B7A81FCBE983312230E224222A24E2842A
:103290002EE224223022FE282A282A282AE800B7F3
:1032A000EC16ADE98339F8202A2C2A2CEA20A45602
:1032B000ED41547006B7F015CBE98335F4282AE8C0
:1032C00084F228341E3034E9C100B7FC18CBE983FE
:1032D00035F4282AE884F22834FE282A282A282AC5
:1032E000E800B7FD18CBE98335F4282AE884F228F2
:1032F000343E2A282AE8282AE800B80718CBE983B0
:1033000035F4282AE884F228341E24EC40A82A55F3
:103310000900B80826ADE983352234E22026222CA4
:1033200026222C26E22062423242324232E220261B
:103330002234223422342200B82417ADE98339F82C
:10334000202A2C2A2CE4804A56B0F6202A3803B8CA
:103350002516CBE98335F4282AE44048EE4028348A
:103360001EF4203403B82816CBE98335F4282AE468
:103370004048EE4028347168D28301B8351ACBE951
:103380008335F4282AE44048EE4028343E2A282A8F
:10339000E8282AE800B8391ACBE98335F4282AE46A
:1033A0004048EE4028341ED6282C262CC80200B8EF
:1033B0004026ADE983352234E22026222C26222C19
:1033C00062E220264232426E4232E220262234223B
:1033D0003422342200B85C158D2584E54038D18133
:1033E0005070F0813C5870B20303B86019CDE5838A
:1033F000E54038E84028F8403038ECC01E3A38F153
:10340000810800B86D1ECDE583E54038E84028F816
:10341000403038ECC03E2E282EE840282EE84004EC
:1034200000B86F1BCDE583E54038E84028F8403010
:1034300038ECC01E49706C44A04C1000B8CC1A8DFA
:103440002584E54038D1815070F081584C604C6043
:103450004C604CD08101B8E815ABE983E34034C936
:10346000814868E881F00155685600B8F91ECDE53D
:1034700083E54038E84028F840FEC02C38302E283C
:103480002EE840282EE8400400B9581BADE583E53E
:103490004038D1815070F081FC81514C604C604CBF
:1034A000604C1000B96D1DCDE583E54038E840283B
:1034B000F840FEC0282630261EAC2E2A2C2AAE0844
:1034C00000B974134DA584E54038D1815070F08166
:1034D0003CF48101B97818CDE583E54038E840280F
:1034E000F8401EFAC01E3A38F1810800B9841DCD9B
:1034F000E583E54038E84028F8401EFAC0FE402841
:103500002E282E282EE8400400B9AC16ABE98335EE
:10351000F420262C262CE6204652E5414C6806B9BC
:10352000B014CBE98335F4282AE848F228347168CE
:10353000D28301B9BC18CBE98335F4282AE848F2D4
:103540002834FE282A282A282AE800B9C822AEE50D
:1035500083353AE62024262C24262C24262CA42C41
:1035600024262C24262C24E620243A1B00B9C91D2D
:10357000CEE58337C42A24282A24282A24288A2806
:103580002AC42A3A1EEA203A2700B9CC1DCEE58388
:1035900037C42A24282A24282A24288A282AC42A04
:1035A0003A5574D6072200B9CE25CFE58337C62A0F
:1035B00026282A26282A26286A22282AC62A3C1EA5
:1035C0002C2E2CE8266C2A4D50C90800B9D022CEEA
:1035D000E58337C42A24282A24282A24288A282A4A
:1035E000C42A3A1EEA203AEC202CFA200400B9D969
:1035F00022CEE58337C42A24282A24282A24288A8C
:10360000282AC42A3A1E2C2A2E2AEE2E2AEE04003C
:10361000B9DB20CEE58337C42A24282A24282A248B
:10362000288A282AC42A3A1E363AAD44A0500400FB
:10363000B9DE21CEE58337C42A24282A24282A2467
:10364000288A282AC42A3A1EEC363A5622502804E0
:1036500000B9E11FCEE58337C42A24282A24282A6A
:1036600024288A282AC42A3A1EEC2EFA2EFA0400AC
:10367000B9E427AEE583352434E44024442C2444C3
:103680002C24442CA42C24442C24442C24E4402416
:1036900069486848684800BA381AAEE5833BFA4082
:1036A0004A2C4A2C4A2CA42C4A2C4A2CEA402A3A6E
:1036B00003BA3917CCE583F74A284A284A288628CE
:1036C000EA2A361EFA203603BA3C17CCE583F74ABD
:1036D000284A284A288628EA2A361E36DB8301BA79
:1036E000401CCCE583F74A284A284A288628EA2A3B
:1036F000361EE22036E82028F62000BA5429AEE52E
:1037000083372236E24026422C26422C26422C6267
:10371000422C26422C26422C26E2402622362236F5
:1037200022362200BA701AAEE5833BFA404A2C4A90
:103730002CA42C4A2C4A2CA42CEA402A3A03BA7412
:1037400018CCE583F74A284A2886284A28E6402AE2
:1037500036796CDA8301BA851CCCE583F74A284AAE
:103760002886284A28E6402A361EDC2A2C282CCA1D
:103770000200BA871CCCE583F74A284A2886284AE3
:1037800028E6402A361E2AF03034224E4600BAA8D7
:10379000188D2584E3802432243224322432E480BC
:1037A0001E4D70B20303BAA919CDE583E540282E5A
:1037B000282E282EE8403038ECC0FE40382700BACA
:1037C000B820CDE583E540282E282E282EE840306D
:1037D00038ECC0FE40282E282E282EE8400400BADF
:1037E000BB1DCDE583E540282E282E282EE840304D
:1037F00038ECC01E49706C44A04C1000BB3411ABB7
:10380000E983E1A0529707B50754A15901BB381DC0
:10381000CDE583E540282E282E282EE8401EFAC04C
:103820002C3830263038F8400400BB3B1CCDE583F3
:10383000E540282E282E282EE840FEC02C38F040E7
:103840002838F1810800BB3C1ECDE583E540282ED9
:10385000282E282EE840FEC02C38F04038E84028BA
:10386000F8400400BB5028CCE58337E22024222C0A
:1038700024222C24222C24222C24222C24E2202436
:10388000F68022282C28A4282C282C00BBF81AAC5F
:10389000E58337F640462C462C462C462C462C46D3
:1038A0002CE640263603BBFC17CCE583F74A284AB2
:1038B000284A284A28EA2A36796CDA8301BBFF189D
:1038C000CCE583F74A284A284A284A28EA2A361E9D
:1038D000E42A36ED01BC0F1BCCE583F74A284A28C1
:1038E0004A284A28EA2A361E2AF03034224E460058
:1038F000BC1119CCE583F74A284A284A284A28EA05
:103900002A361EE42AF62AF600BC1420ADE98333D9
:1039100038262A24262A24262A24E6A42A24262AEB
:1039200024262A24E624381B00BC161FCEE5833744
:103930003A24282A24282AC48A282AC42A3A1E4536
:10394000BBA8B8A8B8A81000BC181BCEE583373AAE
:1039500024282A24282AC48A282AC42A3A5574D614
:10396000072200BC1B1CCEE583373A24282A2428D2
:103970002AC48A282AC42A3A1EEC2E3AF50900BC29
:103980001C20CEE583373A24282A24282AC48A28F2
:103990002AC42A3A1EEA203AEC202CFA200400BC61
:1039A0001D22CEE583373A24282A24282AC48A28CF
:1039B0002AC42A3A1EA4A22E2AA62A2632A62A04FD
:1039C00000BC2420CEE583373A24282A24282AC4A0
:1039D0008A282AC42A3A1EEC2E2A2E2A2E2AEE04DF
:1039E00000BC2520CEE583373A24282A24282AC47F
:1039F0008A282AC42A3A1E2C2A2E2AEE2E2AEE04BF
:103A000000BC291CCEE583373A24282A24282AC45E
:103A10008A282AC42A3A1E955D58763600BC30277B
:103A2000ADE983332432442A24442A24442A24E45A
:103A300020A42A24442A24442A24E4202465486417
:103A400048644800BC841AADE98339582A4A2A4A96
:103A50002AEA20A42A4A2A4A2AEA202A3803BC88C9
:103A600016CCE5833756284A28EA8628EA2A361EE5
:103A700036DB8301BC8C1BCCE5833756284A28EA09
:103A80008628EA2A361EE22036E82028F62000BCE6
:103A90009518CCE5833756284A28EA8628EA2A363C
:103AA0001E242AABAB5407BCBD18CCE5833756287F
:103AB0004A28E6404A28E6402A361EFA203603BC49
:103AC000C018CCE5833756284A28E6404A28E64005
:103AD0002A36796CDA8301BCC41DCCE583375628BD
:103AE0004A28E6404A28E6402A361EE22036E820E8
:103AF00028F62000BCD11CCCE5833756284A28E69E
:103B0000404A28E6402A361EDC2A2C282CCA02000D
:103B1000BCF41A8D2584252E282E282EE840282E28
:103B2000282EE8401E2C38D98101BCF81BCDE58336
:103B3000252E282EE840282EE8403038ECC01E3ACA
:103B400038F1810800BD0420CDE583252E282EE81C
:103B500040282EE8403038ECC0FE40282E282E2881
:103B60002EE8400400BD801AABE983232E242E24C6
:103B70002EE440242E242EE440F8802A342B00BD6D
:103B8000841DCDE583252E282EE840282EE8401EF2
:103B9000FAC02C3830263038F8400400BD881ECDDD
:103BA000E583252E282EE840282EE840FEC02C383C
:103BB000F04038E84028F8400400BD991ECDE58368
:103BC000252E282EE840282EE840FEC02C38F04054
:103BD00028F84028F8400400BE0C184DA584252E76
:103BE000282E282EE840282E282EE8401EFAC00055
:103BF000BE441AABE98335542A462A462AE62046B3
:103C00002A462A462AE620263403BE5B1ACCE583E0
:103C10003756284A28EA4A28EA2A361E2AF030343B
:103C2000224E4600BE6019ADE983333826249B90AE
:103C30006C42B23929C926249B93E0DC00BE681F80
:103C4000CEE5833724A3908C42320A39224914727C
:103C5000141D0F75101D7610167D1002BE7C22AD4E
:103C6000E983332432442413914C4432390829C95E
:103C70004424938390942191219121912101BFD0DB
:103C80001DCDE58323284950920392A02407F4C058
:103C90000766C1813181C1C1072200C058184DA5F6
:103CA000842328495092A0240724414982921CD0A1
:103CB000031F18C0AC1BAEE583353A302830282EE0
:103CC0002A2E8A2622282A268D5448746E00C0B0D7
:103CD00017CEE583373A2C576223A9428452A78A2C
:103CE000CEFA400400C0B41BCEE583373A2C5762AD
:103CF00023A9428452C7431D44871D84451F840065
:103D0000C0B61FCEE583373A2C576223A9428452AE
:103D1000C78354D445C4C454C4A48A89A92801C003
:103D2000BC1BCEE583373A2C576223A9428452C785
:103D300083DD45C545C545C59D00C0C118CEE58399
:103D4000373A2C576223A9428452C7A3B20BCBCE79
:103D50000600C0C826AEE583352434242A28242A48
:103D60002824282A24288A262228244D92A990A48F
:103D700021A121A121A12101C0DD1FCCE583332296
:103D800032222845508A18A19134114321119111F2
:103D9000F1F06551995500C11C18AEE5833B555CA7
:103DA000545C506050144D445C484CD854EA1CC1DB
:103DB0001D16CCE58337515850588CD048AAA1B471
:103DC000F1D007B119C12016CCE5833751585058AE
:103DD0008CD048AAA1B4F1B0D91E0CC1241BCCE5EB
:103DE0008337515850588CD048AAA1B4F11007B16C
:103DF000410741B10701C12D18CCE5833751585017
:103E0000588CD048AAA1B4F12051595DA53AC131CE
:103E10001ACCE58337515850588CD048AAA1B4F138
:103E2000E056614161511600C13828AEE583372262
:103E300036222A45548AA0B088A0A0899888A888EC
:103E40009098A088A99888D888D888D888D88800D9
:103E5000C13C1ECCE583332232222845508A18917A
:103E6000899034114321119111F1B1D91E08C14833
:103E70001FCCE583332232222845508A189189903D
:103E800034114321119111F12057F9EA00C18C1628
:103E90008D25842F383638362232264C2A1E2E386D
:103EA000D98101C18D16CDE5832F385634244E2893
:103EB0003238ECC0FE40382700C19018CDE5832F82
:103EC000385634244E283238ECC01E3A38F1810876
:103ED00000C1A11ACDE5832F385634244E2832383C
:103EE000ECC01EBE2E2A2C2AAE0800C1E01CCCE578
:103EF0008337558EC282C26222A2426282A6628249
:103F0000C282C20E286213C21816ABE9832D343266
:103F10003432222E26482AFA802A342B00C21C1A58
:103F2000CDE5832F385634244E281EFCC02C383063
:103F3000263038F8400400C2201CCDE5832F3856C7
:103F400034244E281EE2C02C38F04038E84028F8CF
:103F5000400400C2321DCDE5832F385634244E284C
:103F60001EE2C02C381EEC402C263026EC4004000B
:103F7000C2502ECEE58337222A45548AA0B088A0AD
:103F8000B0889888A8889098A088A99888D888032D
:103F90008A44611141311441611141611101C26CC6
:103FA00020CCE583372A47614161311151213141EC
:103FB0005331B10714416141614161416101C27DE9
:103FC0001BECE5832B4752312141114231B10714DB
:103FD00051D90346657595EA00C2A4144DA5842FF6
:103FE000383638362232264C2A1EFCC000C2A817AA
:103FF000CDE5832F385634244E281EFCC01E3A3897
:10400000F1810800C2B41CCDE5832F385634244E0C
:10401000281EFCC0FE40282E282E282EE840040032
:10402000C2B51CCDE5832F385634244E281EFCC063
:104030003E2E282EE840282EE8400400C2B719CDB5
:10404000E5832F385634244E281EFCC01E49706C60
:1040500044A04C1000C2DC16ACE58337558EC282FA
:10406000C26222A2426282A6626273C2DD16CCE5FF
:104070008337515850588C5848AAA1B4F1D007B191
:1040800019C2E016CCE58337515850588C5848AACD
:10409000A1B4C963D31E0CC2E41BCCE583375158CD
:1040A00050588C5848AAA1B4F11007B1410741B14A
:1040B0000701C2EB1FCEE583373A2C5762412151ED
:1040C0002142A9E3418A02232E6A66C262426A46FD
:1040D00000C2EC17CCE58337515850588C5848AA89
:1040E000A1B4F12057F9EA00C2F61BCCE5833751A1
:1040F0005850588C5848AAA1B4F1C00752317131B8
:10410000510702C2F822AFE183373C2E26242E2627
:10411000242E26244C248626224D544C44488C8838
:104120004C44786E00C30021CEE583373A28242A18
:1041300028242A46226C22AB908CA2E3A10EA2C3B3
:104140000EC2A20F4200C3681FAFE1833D514C5421
:10415000504C54504C548C480C4D44B2909888A804
:104160001199A0F01CC4F0192DA5842B26302630FF
:10417000264E2430225D4C4490884CFC8101C500C1
:104180001EADE5832B2630262E262E22AB98F40773
:10419000F60742714171417141072200C5281DADEA
:1041A000E18339514CA298443169448262221285DC
:1041B000C444C48CC88404E700C52C19CCE58337FB
:1041C00049AA9054111261115989248A4D1E9BF6F7
:1041D0006000C53B20CDE583373826242A26242AD3
:1041E00044222C2422554448A2E078C8E0A412714D
:1041F0004201C54419AEE583353A8A289B642131D2
:10420000612165214169A288A27303C5451ACDE9E0
:104210008335862A2428495092A020A23454C1F123
:104220003007C13901C5481ACDE98335862A2428CB
:10423000495092A020A23454C18982333E1001C556
:104240004920CDE98335862A2428495092A020A20E
:104250003454C1F1E041357141614214221200C56C
:104260004A23CEE98335882A26284D509AA0A08972
:10427000A04454D1F140715141276143513131255E
:104280002300C54C1FCDE98335862A242849509246
:10429000A020A23454C1F13007C1510751C10721F8
:1042A00000C5591CCDE98335862A2428495092A09F
:1042B00020A23454C1F148CC528585D900C55E1F77
:1042C000CDE98335862A2428495092A020A234546F
:1042D000C1F1F0076231813161072200C56028AE6B
:1042E000E58335243424842824222826442C24449D
:1042F0002CA42C2445504C4808514868486848680C
:1043000048684800C57C19AEE583353A8A289B6425
:1043100021652131612141694888A27303C57D1B54
:10432000CDE98335862A24284950105192A0A0094E
:10433000AAE0789883E09C00C5911DCDE98335867D
:104340002A24284950105192A0A009AAE078246696
:10435000A9C2C26C00C59827AEE5833524342484F5
:104360002824222826442CA42C24442C2445500CF8
:10437000095148684868486848684800C5B419AE9B
:10438000E5833B095D44509858945848595444502B
:1043900058085D740EC5B518CBE98335824A2848A4
:1043A00028482884280555683CE8416806C5B8199E
:1043B000CBE98335824A284828482884280555684F
:1043C0003C6068D28301C5BB18CBE98335824A289B
:1043D000482848288428055568FC5168D203C5BC84
:1043E0001CCBE98335824A2848284828842805556B
:1043F00068F84168CC414CE84100C5C41CCBE98356
:1044000035824A28482848288428055568FC515494
:1044100050545054D001C5C51CCBE98335824A287D
:104420004828482884280555687C545054D0515455
:10443000D001C5C623CDE98335862A242849509268
:10444000A09091A03454C1F141498292188504C5CD
:10445000444458C804C5C71DCCE98335842A2228A2
:1044600045508AA09089A02454B1F170B12925C289
:104470008402C5EC19AEE5833B095D445098584869
:104480005994585444500C095D740EC5ED19CBE98C
:104490008335824A2848288428482864822A341E82
:1044A000F4203403C5F019CBE98335824A28482823
:1044B0008428482864822A347168D28301C5F41D97
:1044C000CBE98335824A2848288428482864822AF0
:1044D00034FC2034E62026F42000C6011DCBE983FD
:1044E00035824A2848288428482864822A341ED6DF
:1044F000282C262CC80200C6061ECBE98335824A2A
:104500002848288428482864822A341EF240282615
:104510002C26E84000C60827AEE5833722362284E1
:104520002A22510AB18809B19808B1988844211308
:10453000215411B111B111B111B11101C61B26CD18
:10454000E983312286262224282422248822242832
:10455000242224882286262234221E3438A9449C10
:104560005000C62416AD2584A92E2A5D505C505CEF
:1045700054BA7A64C1C90E0CC62C1CCDE583A92E91
:104580002A2C2A2C2AAE3438ECC0FE4038E84028C9
:10459000F8400400C62E21CDE583A92E2A2C2A2C12
:1045A0002AAE3438ECC0BCA22C2226A42226242A0F
:1045B00026A4A20200C6371BCDE583A92E2A2C2AE9
:1045C0002C2AAE3438ECC01E49706C44A04C10004C
:1045D000C6441ECEE58337A828262A2655CC445447
:1045E0004C50515892838978A0E8AC0F4400C65CC7
:1045F0002DCEE58335243424A42624222A24442ED7
:1046000022442E22442E82222A24494D48505448C6
:104610005054C8C144486848684800C6781ECCE574
:104620008337495144548C5C885C885C4844544CC2
:104630004851B2A0B0038AD804C6941CAD2584A901
:104640002E2A5D505C505C54BA7AB098C098C098DD
:10465000C098A00303C6A91DCDE583A92E2A2C2A44
:104660002C2AAE30263026E8C01EBE2E2A2C2AAEBA
:104670000800C6B017ABE983A72A4D5C485C485CCC
:104680004C5454F90155685600C6B118CDE583A9BC
:104690002E2A2C2A2C2AAE1EE4C02C38F0403827B3
:1046A00000C6B41BCDE583A92E2A2C2A2C2AAE1EC7
:1046B000FEC02C3830263038F8400400C6B81DCD76
:1046C000E583A92E2A2C2A2C2AAE1EE4C02C38F011
:1046D0004038E84028F8400400C6C01FCDE583A953
:1046E0002E2A2C2A2C2AAE1EE4C02C38F040282E6C
:1046F000282E282EE8400400C6C31CCDE583A92E31
:104700002A2C2A2C2AAE1EE4C02C381E343836221D
:1047100050260800C6D01FECE583A528222A2622B1
:104720002A26222A26A42836F680222A842A27B17D
:10473000690F06C6D423ECE583A528222A26222A5F
:1047400026222A26A428F680222A842A3DC4416CE7
:10475000D04150EC4100C70423CCE58337A4282284
:104760002A462E442E442E24222A26A428F68022CD
:10477000282C282C282C282C00C7201DADE583A927
:104780002E2A5D505C505C54BA7A9003A398C0986E
:10479000C098C0982000C7211ACDE583A92E2A2CE5
:1047A0002A2C2AAE1EE4C028263026EC40382700EA
:1047B000C73C146DA584A92E2A5D505C505C54BA88
:1047C0007AD40706C74018CDE583A92E2A2C2A2CB7
:1047D0002AAE1EFEC01E3A38F1810800C7441BCD28
:1047E000E583A92E2A2C2A2C2AAE1EFEC0FE4038B4
:1047F000E84028F8400400C74C1DCDE583A92E2AC7
:104800002C2A2C2AAE1EFEC0FE40282E282E282E32
:10481000E8400400C7581CCCE58337495144548C08
:104820005C885C885C4844544C4851EC01456C06FB
:10483000C77418ACE583370955445090588C588C90
:10484000584C445012AAD81CC77818CBE98335823B
:104850004A28482848284828055568E2D0A4070374
:10486000C77C1CCBE98335824A2848284828482839
:10487000055568F84168CC414CE84100C77D1BCB29
:10488000E98335824A284828482848280555686C15
:1048900045519495A45500C78321CDE98335862AD7
:1048A0002428495092A0244169A882E38BE2220E79
:1048B0006A46C262226A4600C7841CCBE9833582FD
:1048C0004A28482848284828055568FC515450541F
:1048D0005054D001C7851CCBE98335824A2848282B
:1048E000482848280555687C545054D05154D0016C
:1048F000C7871CCCE98335842A222845508AA01416
:104900004149A862E3E162534A840905C78822CD80
:10491000E98335862A2428495092A0244169A88237
:10492000E3E14222430223D2C5440489C804C78A72
:104930001BCBE98335824A28482848284828055552
:1049400068FC6168A044945000C7901BADE98333B4
:1049500038E624302630262E8846282A2426462863
:1049600024383700C79118CEE583373AC42A2CB3D0
:104970001189A810A1D4F15007D13901C79418CEDC
:10498000E583373AC42A2CB31189A810A1D4A9A26F
:10499000B33E1001C7981DCEE583373AC42A2CB325
:1049A0001189A810A1D4F15007D1610761D1072165
:1049B00000C7A01DCEE583373AC42A2CB31189A8BD
:1049C00010A1D4F160775171517151712700C7A1C5
:1049D0001DCEE583373AC42A2CB31189A810A1D47F
:1049E000F160517151717751712700C7A519CEE55A
:1049F00083373AC42A2CB31189A810A1D4F1A8ECAA
:104A0000C2B2B301C7AC24ADE983332432E420241D
:104A1000554C48544C4850108D504836214321295C
:104A20004322432243224302C7C120CCE5833322E1
:104A300032E22622284550D088444CC45048446471
:104A4000443C7C5954661500C80017ADE98339F819
:104A5000202A59545850108D5C48B2A1A8E01CC8B7
:104A60000117CCE58337F62A282C286844226A28C7
:104A70006D3CF4416C06C80417CCE58337F62A2850
:104A80002C286844226A286D3C6CB60703C8081CB1
:104A9000CCE58337F62A282C286844226A286D3C06
:104AA000C4416CD04150EC4100C80A1FCCE58337AB
:104AB000F62A282C286844226A286D744555444CEF
:104AC00044454C44544C4403C81017CCE58337F696
:104AD0002A282C286844226A286D3CC855BE3AC84A
:104AE0001119CCE58337F62A282C286844226A2835
:104AF0006D3C48545657A90EC8151BCCE58337F6B4
:104B00002A282C286844226A286D3CB855585058E9
:104B1000940500C81C28ADE983352234E220262202
:104B20002A28222A2822286622462A222451C450D2
:104B30004C44684468446844684400C870158D2536
:104B400084E73638365634244E281E2E38D9810153
:104B5000C87116CDE583C73654224E281E2E38EC78
:104B6000C0FE40382700C87418CDE583C7365422EC
:104B70004E281E2E38ECC01E3A38F1810800C8803D
:104B80001DCDE583C73654224E281E2E38ECC0FEBC
:104B900040282E282E282EE8400400C8851ACDE58E
:104BA00083C73654224E281E2E38ECC01EBE2E2A35
:104BB0002C2AAE0800C88B1BCDE583C73654224E85
:104BC000281E2E38ECC01E28F040AC2E2AAE08005D
:104BD000C8FC15ABE983E53234325230244A28FA56
:104BE000802A342B00C8FD17CDE583C73638542200
:104BF0004E281EE2C02C38F040382700C9001ACDDC
:104C0000E583C7363854224E281EFCC02C38302687
:104C10003038F8400400C9041CCDE583C736385449
:104C2000224E281EE2C02C38F04038E84028F840D8
:104C30000400C9111BCDE583C7363854224E281E07
:104C4000E2C02C381EB02E2A2C2AAE0800C98914C6
:104C5000CDE583C73654224E281EF181FD81704E6A
:104C600000C99019CDE583C73654224E281EF18124
:104C7000FD8170D08150F0810800C9981BCDE5837B
:104C8000C73654224E281EF181FD81505C505C5085
:104C90005CD0810800C9C017ABE98335F420262A0F
:104CA000282A28558C5448A2A198D01CC9C117CCD9
:104CB000E58337F62A282C282C44226A286D3CF4F8
:104CC000416C06C9C417CCE58337F62A282C282C5A
:104CD00044226A286DF2D8B40703C9C81CCCE58306
:104CE00037F62A282C282C44226A286D3CC4416CB3
:104CF000D04150EC4100C9D119CCE58337F62A28C0
:104D00002C282C44226A286D3C48545657A90EC9B9
:104D1000D31BCDE5833738C22A5954588C44548468
:104D200050E278C8E0A412714201C9D51BCCE583DA
:104D300037F62A282C282C44226A286D3CB855586E
:104D40005058940500C9E725CFE183393C666228B5
:104D50004D54504CD4448E4262328F07AA88098C3D
:104D60008809AA288A8A09AA2801C9F82BAFE183F1
:104D700037243624826224514C48A2989034223140
:104D800034116942D24484848CC84484C486C48665
:104D9000C486C48604CA4C1FAFE1833D05C5545088
:104DA0004C54504C548C480C4D44B2909888A811E7
:104DB00099A0F01CCABD18CDE583835D4C5C4C5CAA
:104DC0004456312983C30EEC0F847302CC281CADEA
:104DD000E983332C2A2C2AE62430262E8846282ADA
:104DE0002426462824383700CC2C1ACEE583373ABF
:104DF0002A2EC42ADD484458884C5474AAE8AC0FC3
:104E00004400CC2E22CFE583373C2C2EC62A2C6EB4
:104E100026222C46262A3C1E2C2E2CE8266C2A4DB7
:104E200050C90800CC301FCEE583373A2A2EC42A59
:104E3000DD484458884C54743CD44174D84158F4EB
:104E4000410800CC381FCEE583373A2A2EC42ADD2C
:104E5000484458884C54743CD85D545C545C54DCD1
:104E60000900CC3E1ECEE583373A2A2EC42ADD48FF
:104E70004458884C54743CD86D74AC44A05008001D
:104E8000CC4425ADE9833324262A24262AE4202491
:104E9000554C4850108D5048362143212943224318
:104EA0002243224302CC451ECCE583332232222604
:104EB0002AE22622266A24222862264564443CC42B
:104EC000416C0ECC9818ADE98339263026F0202AA3
:104ED0005950108D5C48B2A1A8E01CCC9C17CCE5C1
:104EE00083374DDC554CD44844D84C546C3C6CB69C
:104EF0000703CCAB1DCDE5833738282EC22A286A9C
:104F000026222C42262A381E3238A9449C5000CC36
:104F1000AD1BCCE583374DDC554CD44844D84C54BC
:104F20006C3CB855585058940500CCB429ADE98371
:104F30003522262C22262CE22026222A2822286608
:104F400022462A222451C4504C4468446844684490
:104F5000684400CD0815AD25842D38F236AD68487B
:104F60009C503C5C70B20303CD5C20CCE5833728B9
:104F70002C282CE2262C282A91544C485084504C42
:104F8000505850D801456C02CD9415CBE9832D348F
:104F9000EE32A560489450F00155685600CE3519A0
:104FA000CDE5832DD234362250261EFEC01EBE2EE5
:104FB0002A2C2AAE0800CE5818ABE98335262C26B9
:104FC000EC20262A28558C5448A2A198D01CCE5CEF
:104FD00017CCE583374DDC554C5C4844D84C546CB9
:104FE000F2D8B40703CE601CCCE583374DDC554CBA
:104FF0005C4844D84C546C3CC4416CD04150EC41AA
:1050000000CE6817CCE583374DDC554C5C4844D85E
:105010004C546C3CC855BE3ACE741CACED83313652
:10502000C6243024302430E440262E262C282A8D15
:10503000586C1A00CEE415ACED8337F62A9F1C8815
:105040000585C5C485044EC626CEF415CCE583F788
:105050002A57374361217293F12057F9EA00CF00B4
:1050600026ACED83332232E226222A26222A262269
:105070002A62C2282228454C54444858C45C4464DF
:1050800044644400CF54154D2584E38038C9017130
:10509000585458545870DC8101D06C0F0DA584E32E
:1050A0008038C90171160706D07C1AADE583E5404A
:1050B00038E84038FD81FD81505C505C505CD08107
:1050C0000800D0A417AAED8333F2262A262A262A1E
:1050D000C6289BA890B0B9C804D0C018ADE98333E6
:1050E00038E62426302630E6A4302630E624383749
:1050F00000D0D519CEE583373AC42A2434C48A3483
:10510000C42A3A1E955D58763600D0DC22ADE9837C
:10511000332432E4202444304430E420A4304430AA
:10512000E42024654864486448644800D13014ADE4
:10513000E98339F8204A56F620A456F6202A380783
:10514000D14C24ADE983352234E22026423242326A
:10515000E2206242324232E22026223422342234D9
:1051600022342200D15420CCE583332232E226427D
:1051700030E2624230E2262232221EE22036E8206D
:1051800028F62000D1B51BCDE583E54028F840285E
:10519000F8403038ECC01EBE2E2A2C2AAE0800D2B1
:1051A0002C14ABE983E1A034F4A034F480F6802A17
:1051B000342B00D2B8146DA584E3802438F8802401
:1051C00038F8801EE98101D2B916CDE583E5402883
:1051D000F84028F8401EFAC0FE40382700D2F014EC
:1051E000ABE98335F4204652F2204652F2202634B1
:1051F00007D30013CCE58337F64AF44AF42A361E67
:10520000E42A5F1DD30C1CAEE583353AE640222A22
:1052100026554CAA981892985431690E24A273030B
:10522000D31422CEE583373AE4202628242A2824E2
:105230006A2455C8414C743CD44174D84158F44157
:105240000800D37C1DAEE5833BFA602824262C247D
:10525000262C24268624262C2426EC60283A07D3E4
:10526000B41DAEE5833BFA602824262C2426862430
:10527000262C24262C2426E6C0283A07D3B818CC9E
:10528000E58337F6402624CD48AA90340734B1C9C7
:1052900063D31E0CD3C91CCCE58337F6402624CD3E
:1052A00048AA90340734B1F1E056614161511600CB
:1052B000D45C1D8D2584E380282A2C2A2C2A2C2AB4
:1052C000E8801E26614C604C604CD08101D4801E69
:1052D000CDE583E5402C2630263026EC40FEC02C60
:1052E00038F04038E84028F8400400D48820CDE564
:1052F00083E5402C2630263026EC40FEC02C38F0CA
:1053000040282E282E282EE8400400D4E81FADE5C2
:1053100083E380282A2C2A2C2A2C2AE8801EF8C015
:1053200028263026302630260800D504164DA584C0
:10533000E380282A2C2A2C2A2C2AE8801EE98101C5
:10534000D53C1CACE58337F660244D50484C5048A2
:105350004C50484C50484CD0C1486C0ED5441DCCE4
:10536000E58337F64026245548AA90540732B1F118
:105370001007B1410741B10701D5581DADE9832799
:105380002A2C2AE6246A284D5621552131512141E3
:1053900031A98682B301D5591CCEE583272EE42896
:1053A000682C26554CAA8998A8A0B1E878A883E86B
:1053B0009C00D55C1CCEE583272EE428682C26555E
:1053C0004CAA8998A8A0B1E854D1591F8800D5608B
:1053D00021CEE583272EE428682C26554CAA8998EF
:1053E000A8A0B1E878A883E8B083B0E8831000D51E
:1053F0006821CEE583272EE428682C26554CAA89FF
:1054000098A8A0B1E878B0BBA8B8A8B8A8B813000D
:10541000D56D1DCEE583272EE428682C26554CAA91
:105420008998A8A0B1E878547661D9D900D57428B4
:10543000ADE983272A24262AE42024C95048444C75
:1054400012A990AA9010A990143149428642224391
:105450002243224302D58922CCE583272AE2202455
:10546000226428224D8A3431133129428622222394
:10547000E2E1CBA232AB00D5A51DCEE583272EE419
:1054800028682C26D5444C544CAA91B1E87854761F
:1054900061D9D900D5D81DCCE58327EE2028642C0E
:1054A00022262A22266622262A642C361EE42A5F19
:1054B0001DD6001EADE983273026F0202A642E2257
:1054C00026A62A4A2A4A2A8422262C642E3803D663
:1054D000041DCCE58327EE2028642C222666222694
:1054E0002A222666642C36796CDA8301D61521CC03
:1054F000E58327EE2028642C22266622262A2226EF
:1055000066642C361EDC2A2C282CCA0200D63816DB
:10551000AD25842D38F21EAA2E2A2C2AAE1E303834
:10552000D98101D63917EDE5832DF2AE2E2A2C2A2A
:10553000AE3438ECC0FE40382700D63C19EDE58388
:105540002DF2AE2E2A2C2AAE3438ECC01E3A38F199
:10555000810800D65422CEE583352E2A2E2AE8244F
:105560003AAA26282A84222A24AA262E2A2E2AE685
:1055700040223A0D00D6551ECEE583292CE6266A38
:105580002A2826682426286A2A2CC9C1443CD441EA
:10559000744E00D6581FCEE583292CE6266A2A28A9
:1055A00026682426286A2A2CC9C1443C5074D60790
:1055B0002200D65C23CEE583292CE6266A2A2826FB
:1055C000682426286A2A2CC9C1443CD44174D84195
:1055D00058F4410800D6691FCEE583292CE6266AD7
:1055E0002A2826682426286A2A2CC9C1443C2ABBBA
:1055F000B0EC6C00D68C1FCCE58337282C282CE22D
:105600002636A428222A26222A26A4285950D80140
:10561000456C02D68D1DCCE583292CE226662A2412
:105620002628242628662A28EC80221EE220360717
:10563000D6A81BAD25842D38F21EAA2E2A2C2AAE00
:105640003026302630263026E8C000D6C415CBE9F7
:10565000832B34EE1EA22A515454F901556856008A
:10566000D6CC1DEDE5832DF2AE2E2A2C2AAE1EE4FB
:10567000C02C38F04038E84028F8400400D6E82133
:10568000ECE583292CE226662A242628662AF68061
:10569000222A842A3DC4416CD04150EC4100D750AD
:1056A000146DA5842D38F21EAA2E2A2C2AAE1EFEB9
:1056B000C000D75418EDE5832DF2AE2E2A2C2AAE69
:1056C0001EFEC01E3A38F1810800D7881EABE98360
:1056D000272C26EC2026642A2226482A462A462AF7
:1056E00026222628642A3403D7981DCCE58327EE8A
:1056F0002028642C22262A22262A22262A642C36B6
:105700001EE42A5F1D000000863811241FBECFEF63
:10571000D8E0DEBFCDBF12E0A0E0B1E0E4E0F5E705
:1057200002C005900D92AC37B107D9F727E0ACE77E
:10573000B2E001C01D92AC3BB207E1F71BE2C5E845
:10574000DBE204C02197FE010E94643AC438D1070D
:10575000C9F70E9425390C94803A0C940000662306
:1057600029F06A3019F0862F90E008958FEF9FEFAF
:105770000895CF92DF92EF92FF920F931F93CF93F2
:10578000DF93EC01842F8770E1E0F0E0082E01C088
:10579000EE0F0A94EAF73E2F7E0199E7E90EF11C1D
:1057A000D7019C9110E0923018F41E2F913029F10E
:1057B00050E0487FE8ADF9ADC880D980D601509659
:1057C0009C91949F6001959FD00C11246C0D7D2DB0
:1057D000711DDF01A60FB71F011115C08C91812B20
:1057E00083278D932150D1F7DF91CF911F910F9196
:1057F000FF90EF90DF90CF90089530E0D9CF110F58
:10580000330F222389F39C91912B93279C938F5FD5
:10581000877021508111F3CF9CADA90FB11DF70105
:105820009081923028F4913009F031E011E0E9CF15
:1058300031E0E7CF80E0089580E00895CF93DF93D3
:10584000C9E3D7E08FAFEAADFBAD0190F081E02D69
:105850008DE397E00995EAADFBAD0280F381E02D81
:105860008DE397E0DF91CF9109949B01DC011896BD
:10587000ED91FC9141E067E10994833081F028F4D7
:10588000813099F08230A9F008958730A9F08830EE
:10589000C9F08430B1F4809180008F7D03C0809185
:1058A00080008F7780938000089584B58F7784BDC2
:1058B000089584B58F7DFBCF8091B0008F77809362
:1058C000B00008958091B0008F7DF9CF1F93CF93E2
:1058D000DF93282F30E0F901E151F14E8491F90175
:1058E000E552F14ED491F901E953F14EC491CC2324
:1058F000A9F0162F81110E943D2CEC2FF0E0EE0F45
:10590000FF1FE354F14EA591B4918FB7F894EC9139
:10591000111108C0D095DE23DC938FBFDF91CF91AA
:105920001F910895DE2BF8CFCF93DF9390E0FC0119
:10593000E552F14E24918953914EFC0184918823C4
:10594000D1F090E0880F991FFC01ED54F14EA59124
:10595000B491FC01E354F14EC591D491623071F4DD
:105960009FB7F8943C91822F809583238C93E88194
:105970002E2B28839FBFDF91CF9108958FB7F89486
:10598000EC912E2B2C938FBFF6CF3FB7F8948091DC
:10599000350390913603A0913703B091380326B5B3
:1059A000A89B05C02F3F19F00196A11DB11D3FBF57
:1059B000BA2FA92F982F8827BC01CD01620F711D26
:1059C000811D911D42E0660F771F881F991F4A9520
:1059D000D1F708958F929F92AF92BF92CF92DF92AC
:1059E000EF92FF926B017C010E94C52C4B015C0180
:1059F000C114D104E104F104B9F00E94C52C681966
:105A000079098A099B09683E73408105910580F3F5
:105A100021E0C21AD108E108F10888EE880E83E07F
:105A2000981EA11CB11CE4CFFF90EF90DF90CF90A7
:105A3000BF90AF909F908F90089585ED8093BC00AC
:105A40008091BC0084FDFCCF10920A030895209140
:105A5000E602260F3327331F21323105ECF4209163
:105A60000A03FC0190E080E0243069F082E00895B0
:105A7000A091E6022191AC014A535D4FA40FB52FCE
:105A8000B11D2C930196861798F38091E602680F5A
:105A90006093E60280E0089581E0089508958FEF15
:105AA0009FEF08958FEF9FEF08958091C50290E0DA
:105AB0009195819591090895CF93DF93CB01EA01E8
:105AC000642F0E94272DCE01DF91CF910895CF93AF
:105AD000DF931F92CDB7DEB7698361E0CE010196F7
