:100000000C94641C0C948C1C0C948C1C0C948C1CF8
:100010000C948C1C0C948C1C0C948C1C0C948C1CC0
:100020000C948C1C0C948C1C0C948C1C0C948C1CB0
:100030000C948C1C0C948C1C0C948C1C0C948C1CA0
:100040000C949B260C948C1C0C948C1C0C948C1C77
:100050000C948C1C0C948C1C0C948C1C0C948C1C80
:100060000C94E5260C948C1C000000002300260054
:10007000290000000000240027002A0000000000E2
:10008000250028002B0004040404040404040202D4
:100090000202020203030303030301020408102007
:1000A0004080010204081020010204081020000012
:1000B0000008000201000003040700000000000027
:1000C00000003E0004030505040506101000FE0AAA
:1000D000FE0BFF01C4037E0557200600A047012147
:1000E00008413144E14200220985284621469B000F
:1000F000230E462544254F2E42B238C9130024143E
:1001000047254427A822244424686C2844244551C8
:100110000C00251947254443462422494488445469
:100120005854844844484412190900261647254467
:100130006526494C8A20A188109908A188189191B8
:100140000027078130468100280E83ED43252224B5
:1001500022246F426202290F83E9432126242624A8
:100160002F422242002A0FE7644427498A6C662204
:10017000324913032B0CE76444272CCD4D581A0049
:100180002C0A82AC4341224202002D0724284581DB
:10019000002E07422C4481002F0E4625442B51AAE5
:1001A000A0A8A054510030164625444526242248D4
:1001B000662442226446282224460400310C452944
:1001C0004425462422289F14321046254483224881
:1001D000282A46262855940133124625448322486E
:1001E000282A642C4A4828820200341346254429D0
:1001F00048262224454C444C8451540A00350F466D
:100200002544E12A555954945004050036104625DA
:10021000446524282AAA2248A3080A00370D462547
:1002200044C12A5154A2A84C0038104625448322C8
:10023000485104459046111400390F462544832245
:1002400048514455462123003A08E26C44818C0011
:100250003B0B22ED43814C224202003C09252944FC
:10026000292657393D09A6A444C11EC6003E0A25C9
:100270002544212A3739023F104625448322482845
:100280002A28556C54080040164625446524462407
:1002900042226222442244224464228C00410F46BE
:1002A00025444526248B20A183208D02420E46251D
:1002B00044A12248914590461600430E46254483AA
:1002C0002248558E84222800440E46254481242647
:1002D0002248DF449000450C462544E12A55455408
:1002E0005606460C462544E12A554554AE00470FB4
:1002F00046254483224855122235121301480C46E4
:1003000025442148A383201D05490A452944A124E9
:10031000283F294A0F472544A5282C4F6242626294
:1003200066004B154625442148262224458C9050D2
:10033000444C489A88A0004C09462544212A7F65F0
:100340004D0E462544214868846442471A054E14E0
:1003500046254421686646224422442442244266BB
:1003600051004F0C4625448322483F8AA000500D7F
:10037000462544A12248914554AE00511A67E543F1
:1003800083242822282228222822282228224222A6
:100390004244844E005212462544A12248914548C9
:1003A0009A88988820A100530E46254483224899B4
:1003B0004642111400540A472544E1262C7F035578
:1003C0000B46254421487F144101561547254421F9
:1003D0004A55444C484C484C8AA088A8B01800574D
:1003E0000E4625442148175A8C900C090558124690
:1003F000254421482822241B2199902C82840259CB
:1004000011472544214A2A222624264554586E00A5
:100410005A0B462544C12A515E45195B0A83F143B4
:100420008124FF64005C0E462544212A2C55585433
:1004300058AA005D0A83E5436124FF84005E0B66D1
:1004400064464526242228005F0727E443E1006034
:100450000863A846212601610F0625448322282A25
:10046000C2488DC444006210662544212A8B0919B4
:10047000218D66242600630D0625448322482A47E1
:10048000111400640E6625442B8B099921DD484C1C
:1004900004650F062544832248E8202A51040500FC
:1004A000660D6525444724284949509E0067166615
:1004B000A5432B6242262226222664268A22482829
:1004C000820200680D662544212A8B0919213D0A04
:1004D000690B652944252850289F146A0DA5A5435A
:1004E00029A1503E120911016B14662544212A9B53
:1004F0008890143142113121692282026C0A6529E7
:10050000444328FFA4006D16072544614222244479
:100510002444244424442444244424016E0C062509
:100520004421624246488F026F0C062544832248CC
:100530008F222800701146A5432162424648A31924
:100540008989A82800710E46A54363426648371280
:10055000135109720D06254421624246482A57006C
:10056000730D0625448322484CA3080A00740C45E9
:1005700025442528494950AE04750B0625442148D9
:10058000DF484C04760E0625442148514448DE08D5
:1005900089007715072544214A244424442444240F
:1005A00044244424850A0078120625442148282240
:1005B000244648262422482800790F46A54321488E
:1005C0004711212AA25250007A0A062544C12A283E
:1005D000AF0C7B11A4A943452226282624519A90CA
:1005E0009820017C07C1B143E1017D12A4A94341D8
:1005F0002826242628499AA0980811007E0C6724F2
:1006000046434624444602007F2610A2832122BF8F
:10061000879087978718A1881989088A0A89A088EE
:100620001989088A1AA1B08797879787C81F000081
:100630000010B2E809E2BC0F0A8DC5BC0B0AFFFF2F
:10064000AC001CACED833136C62430243024308419
:1006500028262E262C282A8D586C1A00AC0119CD7C
:10066000E98335A42A2C2A2C2AD9485C8860703C5E
:10067000CC41704E00AC0419CDE98335A42A2C2A54
:100680002C2AD9485C886070A2E08C0F4400AC082A
:100690001ECDE98335A42A2C2A2C2AD9485C8860EF
:1006A000703CCC4170D44154F0410800AC101ECDD8
:1006B000E98335A42A2C2A2C2AD9485C8860703C0E
:1006C000D0595458545854D80900AC111ECDE98360
:1006D00035A42A2C2A2C2AD9485C8860703C5054B6
:1006E0005854D85954D80900AC1221CDE98335A407
:1006F0002A2C2A2C2AD9485C8860703C444C504CE7
:10070000A298A2982C422A6402AC151BCDE983352D
:10071000A42A2C2A2C2AD9485C8860703C12B35435
:1007200061613600AC161DCDE98335A42A2C2A2C34
:100730002AD9485C8860703CD06970A8449C5008F5
:1007400000AC191BCDE98335A42A2C2A2C2AD948C0
:100750005C8860703CD059F059F00900AC1C23ACA7
:10076000ED83312430E4245548AA905421443121AA
:10077000413121314121A942C6420243024302AC28
:100780007015ACED8337F62A9F10850585C5C485A5
:10079000044EC626AC7418CBE983D52A282A282A09
:1007A0002668246E30341E3034E9C100AC7717CB94
:1007B000E983D52A282A282A2668246E3034FE2880
:1007C00034E901AC781BCBE983D52A282A282A26CC
:1007D00068246E3034FC2034E62026F42000AC81FE
:1007E0001BCBE983D52A282A282A2668246E303490
:1007F0003E2A282AE8282AE800AC8318CCE9833569
:10080000A22A8F8266E2220463E3E162534A8409EA
:1008100005AC8C26ACED83332232E226222A262236
:100820002A26222A62222845508A98A88890B088D1
:10083000B988C888C88800ACA816ACED8337F62AFA
:10084000275489C2826268E24202276313ACA91767
:10085000CBE983D52A282A2866262C24AA30341EE0
:10086000F4203403ACAA1CCBE983D52A282A2866B5
:10087000262C24AA30341EAEA2282A282A282A0090
:10088000ACAC17CBE983D52A282A2866262C24AAC3
:1008900030347168D28301ACB01BCBE983D52A28F0
:1008A0002A2866262C24AA3034FC2034E62026F49C
:1008B0002000ACBD1BCBE983D52A282A2866262C2C
:1008C00024AA30341ED6282C262CC80200ACC427FB
:1008D000ACED83332232E226222A26222A62222A01
:1008E0002622284550C8444C54444858C45C4464AB
:1008F00044644400ACE0104D2584E36038774171D6
:10090000C1E90E0CACE716ADE583E54038C398C0ED
:10091000B003FB03A1E0C4072200ACF317ADE583ED
:10092000E54038C398C0B0037B24C1B11181324186
:1009300000ACF517ADE583E54038C398C0B0037B44
:10094000F8BAA8B0A8B82200ACFC1EAEE583353AD0
:10095000E820223622362236822826222E2A2E2AE5
:10096000E640223A1B00AD001DCEE58337C8263293
:100970002632662E262C24262CC9C1443C5074D61F
:10098000072200AD111DCEE58337C8263226326618
:100990002E262C24262CC9C1443C2ABBB0EC6C006A
:1009A000AD1C1DCCE5833322C4225D44BA88B988CE
:1009B00044211189521C48A48FCDF64000AD50153A
:1009C0004D2584E3603857312151318131813151D6
:1009D0000706AD6C0F8BE983E14034AF0FA842B33B
:1009E00002AD6D12ADE583E54038FB03B3E0C00313
:1009F000E19C00AD7016ADE583E540387BE803B3BC
:100A0000E0C098C0E0E0031100AD7417ADE583E5E8
:100A10004038FB03B3E0C003E1A003A1E0031100F1
:100A2000ADC01ECCE583378B0389C888C888C888C9
:100A3000C888D8038AA0B0A0B0A0B0A0B000ADDC38
:100A4000168DE583E34038EF210E8C62026302636A
:100A500002638200ADF80C0DA584E36038EF0F0C43
:100A6000ADF910ADE583E54038F707F607C2390167
:100A7000ADFC12ADE583E54038F707F6D0C1890F2C
:100A80004400AE0015ADE583E54038F707F607C230
:100A9000410742C1072200AE0817ADE583E54038A3
:100AA000F707F60742714171417141072200AE30EC
:100AB00017AAED8333F2262A262A262A262837511A
:100AC0002161739109AE381BCBE983D52A282A28E6
:100AD0002A262C246E3034FC2034E62026F4200014
:100AE000AE4A1CCBE983D52A282A282A262C246E34
:100AF00030341EF24028262C26E84000AE4C21AEB1
:100B0000E583353A8662242C26242C26242C268440
:100B10002426554CA298A0985461A9D300AE5D2418
:100B2000CFE183398482262A28262A28262A286685
:100B30002428898C54783C60546054E06154E00966
:100B400000AE6827AEE583352434A462244D923488
:100B500049D224218949922649444C50884C544812
:100B60004C58486848684800AEBC1FAEE5833BBAA5
:100B7000622A26554CAA9824243161213161113111
:100B80007132813191D109AED82AAEE58337223650
:100B9000A2622622268B982C62524C84C40445847F
:100BA000C40445A4898A90098B88898B888D888D97
:100BB00008AEF41FAEE5833BBA622A26554C129A62
:100BC0005421316121313114317132813191D10996
:100BD000AF2D16ADE583A35954585458545C70D8C2
:100BE00081FD81704E00AF431BADE583A35954587E
:100BF0005458545C70D8813D54A4696C44A04C0C8A
:100C000000AFB8106CE583A1A22A7F7E40169B1529
:100C100000AFC81DADE583A3595458545854F8810A
:100C20005970E081505C505C505CD0810800B00C81
:100C300020CCE583376D05494C50484C50484C500A
:100C4000486CEC0145505850585058505800B04C22
:100C50001AADE583A35954585458543CF081FD8192
:100C600070D08150F0810800B0541CADE583A359C9
:100C700054585458543CF081FD81505C505C505C99
:100C8000D0810800B05D1AADE583A359545854587B
:100C9000543CF081FD8150F08150F0810800B07C1F
:100CA0001AACE58337B66226FF494C50484C504495
:100CB0004C944C584C5C6C02B08C1FCDE183B982D3
:100CC00026514CA29844312141413352C1F1406731
:100CD00051615161516107B09819AEE583353A4DC4
:100CE000644C644C64654C644C64CC41487436007C
:100CF000B09C18CEE583373A496848286948688827
:100D000055745474D6072200B0A01CCEE583373A40
:100D10004968482869486888553CD44174D8415886
:100D2000F4410800B0A81CCEE583373A496848284A
:100D300069486888553CD85D545C545C54DC0900B3
:100D4000B0AE1BCEE583373A4968482869486888C1
:100D5000553CD86D74AC44A0500800B0B31BCEE530
:100D600083373A4968482869486888553C60E48177
:100D70005C6154601100B0B420AEE58335243424A6
:100D8000344432443244B23244324432E44024697E
:100D9000486848684800B0E517CEE583373A4928E7
:100DA0006948286988553C2ABBB0EC6C00B1081032
:100DB000AEE5833BB5B0CA62C50752D119B113196C
:100DC000CCE58337ADA820A9E85574454C54444C74
:100DD000448BA8988806B11812CCE58337ADA820BB
:100DE000A9E8553CC855BE3AB12317CCE58337ADC9
:100DF000A820A9E8553C50DC81545954580900B149
:100E00002422AEE583372236223642344234427001
:100E1000423442344234E2402622362236223622FE
:100E200000B14011AEE5833BB5B064B1CAE203A99D
:100E3000E80CB14112CCE58337AD20A920E9553C3F
:100E4000F4416C06B14413CCE58337AD20A920E909
:100E5000556C786CDA8301B15516CCE58337AD203B
:100E6000A920E9553CB855585058940500B1781060
:100E70008D25842338C707F46882931D18B1801824
:100E8000ADE5832538F1816070D881FD8170D08116
:100E900050F0810800B1881AADE5832538F18160F2
:100EA00070D881FD81505C505C505CD0810800B1ED
:100EB0008D17ADE5832538F1816070D8813D7C5D6B
:100EC0005458545C1100B19219ADE5832538F18175
:100ED0006070D8813DF481584C604CD8810800B1D5
:100EE0009318ADE5832538F1816070D8813D50E0DD
:100EF00081585D545C1100B20411ABE9832134A721
:100F000007F4700754A15901B20817ADE5832538DD
:100F1000F1813CF4815970604C6070F0810800B23E
:100F2000151AADE5832538F181FC815970605C505C
:100F30005CD081505CD0810800B27417ADE583238A
:100F400038C707F4C0074631813181318131410012
:100F5000B2900E4DA5842338C707F4480F0CB29405
:100F600014ADE5832538F1813CF4813D7470E203D2
:100F70001100B29817ADE5832538F1813CF481FD6D
:100F80008170D08150F0810800B2A516ADE58325AF
:100F900038F1813CF4813D7C5D5458545C1100B2C1
:100FA000A616ADE5832538F1813CF4813DBC696C22
:100FB00044A04C0C00B2C80EACE58337ADA89E1E11
:100FC000C8C466B2D811CCE58337ADA8A657F120C6
:100FD00057F9EA00B2E41AAEE583353AE620242652
:100FE00032263226B2322632E620243A3700B2E6E2
:100FF0001CCEE583373AC42A2434249434C42A3AD4
:101000001E45BBA8B8A8B8A81000B2E818CEE58362
:10101000373AC42A2434249434C42A3A5574D6075F
:101020002200B2EC1DCEE583373AC42A243424943E
:1010300034C42A3A1EEA203AEC202CFA200400B2EA
:10104000ED1FCEE583373AC42A2434249434C42ACD
:101050003A1EA4A22E2AA62A2632A62A0400B2F4F8
:101060001DCEE583373AC42A2434249434C42A3A62
:101070001EEC2E2A2E2A2E2AEE0400B2F51DCEE5F5
:1010800083373AC42A2434249434C42A3A1E2C2A9E
:101090002E2AEE2E2AEE0400B2F919CEE583373A55
:1010A000C42A2434249434C42A3A1E955D587636D2
:1010B00000B30021AEE583352434E44024443244B7
:1010C0003244B2324432E44024694868486848688F
:1010D0004800B35412AEE5833BFA404A5865B1F07C
:1010E0008154740EB35813CCE58337F64A5490F408
:1010F0002A361E36DB8301B37023AEE583372236F2
:10110000E2402642344234427042344234E24026C5
:1011100022362236223622362200B3C4128D25848E
:10112000E3802438E3037A34C1C90E0CB3C515AD8E
:10113000E583E5402838F8403038ECC0FE403827D9
:1011400000B3C817ADE583E5402838F8403038ECE7
:10115000C01E3A38F1810800B3CC1AADE583E540F2
:101160002838F8403038ECC0FE4038E84028F840D5
:101170000400B3D919ADE583E5402838F84030388C
:10118000ECC01EBE2E2A2C2AAE0800B41817CCE5DF
:101190008337F6404654E9814C6CA2B0A0B0038A74
:1011A000D804B45012ABE983E1A034D3037AB80376
:1011B000AAD0AC00B4581AADE583E5402838F84011
:1011C000FEC02C38F04038E84028F8400400B4A4B1
:1011D0001BCCE58337F6604454E9C1486CEC01450B
:1011E000505850585058505800B4C019ADE583E3DA
:1011F000802438E3037AE003A398C098C098C0988D
:101200002000B4DC104DA584E3802438E3037AA4E5
:101210000706B4E016ADE583E5402838F8401EFA2D
:10122000C01E3A38F1810800B4E317ADE583E5400C
:101230002838F8401EFAC0FE402838F1810800B472
:10124000E419ADE583E5402838F8401EFAC0FE40B9
:1012500038E84028F8400400B4EF18ADE583E540D5
:101260002838F8401EFAC01E49706C44A04C10008B
:10127000B4F118ADE583E5402838F8401EFAC01EE9
:10128000BE2E2A2C2AAE0800B51410ACE58337F622
:10129000404654A70732B139B5301BAEE583353A25
:1012A00086822226284D509AA0A0A234416928287F
:1012B000A27303B53822CEE583373A646228242628
:1012C0002C24268C262C6462283A1EEA203AEC2034
:1012D0002CFA200400B5451ECEE583373A64622817
:1012E00024262C24268C262C6462283A1E955D58D0
:1012F000763600B54C23AEE583352434A4822244EF
:1013000028895012A1A0A22442492A2842424342DD
:10131000434243424302B5A018AEE5833BBA82483C
:10132000284E284E28A8284E28AE82283A07B5A471
:1013300018CCE58337966248264C2688268C62288E
:10134000361E36DB8301B5A81DCCE583379662488F
:10135000264C2688268C6228361EE22036E8202875
:10136000F62000B5BB1DCCE58337966248264C2697
:1013700088268C6228361E28EE40AA2C2AAC04004F
:10138000B610178D2584A3495458545854585458AE
:10139000453D9AE0640706B73B19ADE58385822891
:1013A0005D501C053DF4813D92E0D88840992000B5
:1013B000B77C1AADE9833338E62432243224E6A41C
:1013C0003026302630E624381B00B78C1DCDE9834B
:1013D0003538C4282E28C48832C428381EE82C2A60
:1013E0002C2A2C2AEC0400B7911ACDE9833538C495
:1013F000282E28C48832C428381E8959AAB0301B28
:1014000000B7971CCDE9833538C4282E28C488320C
:10141000C428381E2CF040AC2E2AAE0800B7982203
:10142000ADE983332432E420245948B2909083906C
:10143000C210C110C190839094219121912101B7D4
:10144000A81FCBE983312230E224222A24E2842E11
:10145000E224223022FE282A282A282AE800B7EC93
:1014600016ADE98339F8202A2C2A2CEA20A456ED5F
:1014700041547006B7F015CBE98335F4282AE88487
:10148000F228341E3034E9C100B7FC18CBE98335AB
:10149000F4282AE884F22834FE282A282A282AE870
:1014A00000B7FD18CBE98335F4282AE884F2283404
:1014B0003E2A282AE8282AE800B80718CBE983350D
:1014C000F4282AE884F228341E24EC40A82A55097E
:1014D00000B80826ADE983352234E22026222C26E6
:1014E000222C26E22062423242324232E22026227E
:1014F00034223422342200B82417ADE98339F8208D
:101500002A2C2A2CE4804A56B0F6202A3803B82523
:1015100016CBE98335F4282AE44048EE4028341EEF
:10152000F4203403B82816CBE98335F4282AE440A4
:1015300048EE4028347168D28301B8351ACBE9836C
:1015400035F4282AE44048EE4028343E2A282AE888
:10155000282AE800B8391ACBE98335F4282AE44070
:1015600048EE4028341ED6282C262CC80200B8404D
:1015700026ADE983352234E22026222C26222C6255
:10158000E220264232426E4232E2202622342234C7
:1015900022342200B85C158D2584E54038D1815075
:1015A00070F0813C5870B20303B86019CDE583E553
:1015B0004038E84028F8403038ECC01E3A38F18115
:1015C0000800B86D1ECDE583E54038E84028F840B6
:1015D0003038ECC03E2E282EE840282EE84004008B
:1015E000B86F1BCDE583E54038E84028F840303837
:1015F000ECC01E49706C44A04C1000B8CC1A8D256C
:1016000084E54038D1815070F081584C604C604C7A
:10161000604CD08101B8E815ABE983E34034C9815F
:101620004868E881F00155685600B8F91ECDE58399
:10163000E54038E84028F840FEC02C38302E282EEF
:10164000E840282EE8400400B9581BADE583E5408A
:1016500038D1815070F081FC81514C604C604C60FD
:101660004C1000B96D1DCDE583E54038E84028F801
:1016700040FEC0282630261EAC2E2A2C2AAE08009A
:10168000B974134DA584E54038D1815070F0813C88
:10169000F48101B97818CDE583E54038E84028F8B1
:1016A000401EFAC01E3A38F1810800B9841DCDE50C
:1016B00083E54038E84028F8401EFAC0FE40282E56
:1016C000282E282EE8400400B9AC16ABE98335F487
:1016D00020262C262CE6204652E5414C6806B9B05F
:1016E00014CBE98335F4282AE848F228347168D20B
:1016F0008301B9BC18CBE98335F4282AE848F228DD
:1017000034FE282A282A282AE800B9C822AEE58310
:10171000353AE62024262C24262C24262CA42C24FE
:10172000262C24262C24E620243A1B00B9C91DCEE1
:10173000E58337C42A24282A24282A24288A282A08
:10174000C42A3A1EEA203A2700B9CC1DCEE58337D9
:10175000C42A24282A24282A24288A282AC42A3A5F
:101760005574D6072200B9CE25CFE58337C62A2681
:10177000282A26282A26286A22282AC62A3C1E2CFD
:101780002E2CE8266C2A4D50C90800B9D022CEE58F
:101790008337C42A24282A24282A24288A282AC4C9
:1017A0002A3A1EEA203AEC202CFA200400B9D92269
:1017B000CEE58337C42A24282A24282A24288A28E4
:1017C0002AC42A3A1E2C2A2E2AEE2E2AEE0400B90A
:1017D000DB20CEE58337C42A24282A24282A24287B
:1017E0008A282AC42A3A1E363AAD44A0500400B9C9
:1017F000DE21CEE58337C42A24282A24282A242857
:101800008A282AC42A3A1EEC363A56225028040066
:10181000B9E11FCEE58337C42A24282A24282A24A4
:10182000288A282AC42A3A1EEC2EFA2EFA0400B975
:10183000E427AEE583352434E44024442C24442CAE
:1018400024442CA42C24442C24442C24E440246937
:10185000486848684800BA381AAEE5833BFA404AFF
:101860002C4A2C4A2CA42C4A2C4A2CEA402A3A0313
:10187000BA3917CCE583F74A284A284A288628EA45
:101880002A361EFA203603BA3C17CCE583F74A28DD
:101890004A284A288628EA2A361E36DB8301BA40BF
:1018A0001CCCE583F74A284A284A288628EA2A36A3
:1018B0001EE22036E82028F62000BA5429AEE5833F
:1018C000372236E24026422C26422C26422C624207
:1018D0002C26422C26422C26E24026223622362274
:1018E000362200BA701AAEE5833BFA404A2C4A2CE5
:1018F000A42C4A2C4A2CA42CEA402A3A03BA741885
:10190000CCE583F74A284A2886284A28E6402A3622
:10191000796CDA8301BA851CCCE583F74A284A281A
:1019200086284A28E6402A361EDC2A2C282CCA02A1
:1019300000BA871CCCE583F74A284A2886284A281B
:10194000E6402A361E2AF03034224E4600BAA81845
:101950008D2584E3802432243224322432E4801E14
:101960004D70B20303BAA919CDE583E540282E28AE
:101970002E282EE8403038ECC0FE40382700BAB898
:1019800020CDE583E540282E282E282EE84030384B
:10199000ECC0FE40282E282E282EE8400400BABBBA
:1019A0001DCDE583E540282E282E282EE84030382E
:1019B000ECC01E49706C44A04C1000BB3411ABE964
:1019C00083E1A0529707B50754A15901BB381DCD3B
:1019D000E583E540282E282E282EE8401EFAC02C4C
:1019E0003830263038F8400400BB3B1CCDE583E599
:1019F00040282E282E282EE840FEC02C38F0402803
:101A000038F1810800BB3C1ECDE583E540282E2837
:101A10002E282EE840FEC02C38F04038E84028F848
:101A2000400400BB5028CCE58337E22024222C243C
:101A3000222C24222C24222C24222C24E22024F6C2
:101A40008022282C28A4282C282C00BBF81AACE5CE
:101A50008337F640462C462C462C462C462C462CEA
:101A6000E640263603BBFC17CCE583F74A284A2814
:101A70004A284A28EA2A36796CDA8301BBFF18CC57
:101A8000E583F74A284A284A284A28EA2A361EE4E3
:101A90002A36ED01BC0F1BCCE583F74A284A284AB9
:101AA000284A28EA2A361E2AF03034224E4600BC44
:101AB0001119CCE583F74A284A284A284A28EA2AF5
:101AC000361EE42AF62AF600BC1420ADE98333382A
:101AD000262A24262A24262A24E6A42A24262A245E
:101AE000262A24E624381B00BC161FCEE583373A8D
:101AF00024282A24282AC48A282AC42A3A1E45BB14
:101B0000A8B8A8B8A81000BC181BCEE583373A24A3
:101B1000282A24282AC48A282AC42A3A5574D6078F
:101B20002200BC1B1CCEE583373A24282A24282A0D
:101B3000C48A282AC42A3A1EEC2E3AF50900BC1C95
:101B400020CEE583373A24282A24282AC48A282A42
:101B5000C42A3A1EEA203AEC202CFA200400BC1DCC
:101B600022CEE583373A24282A24282AC48A282A20
:101B7000C42A3A1EA4A22E2AA62A2632A62A040085
:101B8000BC2420CEE583373A24282A24282AC48A74
:101B9000282AC42A3A1EEC2E2A2E2A2E2AEE0400C7
:101BA000BC2520CEE583373A24282A24282AC48A53
:101BB000282AC42A3A1E2C2A2E2AEE2E2AEE0400A7
:101BC000BC291CCEE583373A24282A24282AC48A33
:101BD000282AC42A3A1E955D58763600BC3027ADB7
:101BE000E983332432442A24442A24442A24E42046
:101BF000A42A24442A24442A24E42024654864484E
:101C0000644800BC841AADE98339582A4A2A4A2A12
:101C1000EA20A42A4A2A4A2AEA202A3803BC88163B
:101C2000CCE5833756284A28EA8628EA2A361E3623
:101C3000DB8301BC8C1BCCE5833756284A28EA8617
:101C400028EA2A361EE22036E82028F62000BC9535
:101C500018CCE5833756284A28EA8628EA2A361E11
:101C6000242AABAB5407BCBD18CCE5833756284AB1
:101C700028E6404A28E6402A361EFA203603BCC031
:101C800018CCE5833756284A28E6404A28E6402AF9
:101C900036796CDA8301BCC41DCCE5833756284AFB
:101CA00028E6404A28E6402A361EE22036E8202868
:101CB000F62000BCD11CCCE5833756284A28E640E4
:101CC0004A28E6402A361EDC2A2C282CCA0200BCF0
:101CD000F41A8D2584252E282E282EE840282E281B
:101CE0002EE8401E2C38D98101BCF81BCDE5832598
:101CF0002E282EE840282EE8403038ECC01E3A3816
:101D0000F1810800BD0420CDE583252E282EE84072
:101D1000282EE8403038ECC0FE40282E282E282EF1
:101D2000E8400400BD801AABE983232E242E242E24
:101D3000E440242E242EE440F8802A342B00BD8475
:101D40001DCDE583252E282EE840282EE8401EFADA
:101D5000C02C3830263038F8400400BD881ECDE550
:101D600083252E282EE840282EE840FEC02C38F08F
:101D70004038E84028F8400400BD991ECDE5832591
:101D80002E282EE840282EE840FEC02C38F04028AF
:101D9000F84028F8400400BE0C184DA584252E28D4
:101DA0002E282EE840282E282EE8401EFAC000BE1D
:101DB000441AABE98335542A462A462AE620462AA5
:101DC000462A462AE620263403BE5B1ACCE5833732
:101DD00056284A28EA4A28EA2A361E2AF0303422AF
:101DE0004E4600BE6019ADE983333826249B906CC3
:101DF00042B23929C926249B93E0DC00BE681FCE7D
:101E0000E5833724A3908C42320A39224914721494
:101E10001D0F75101D7610167D1002BE7C22ADE9D7
:101E200083332432442413914C4432390829C94461
:101E300024938390942191219121912101BFD01D60
:101E4000CDE58323284950920392A02407F4C007CC
:101E500066C1813181C1C1072200C058184DA584D7
:101E60002328495092A0240724414982921CD00380
:101E70001F18C0AC1BAEE583353A302830282E2A17
:101E80002E8A2622282A268D5448746E00C0B01748
:101E9000CEE583373A2C576223A9428452A78ACED3
:101EA000FA400400C0B41BCEE583373A2C576223B6
:101EB000A9428452C7431D44871D84451F8400C026
:101EC000B61FCEE583373A2C576223A9428452C706
:101ED0008354D445C4C454C4A48A89A92801C0BC6D
:101EE0001BCEE583373A2C576223A9428452C7831D
:101EF000DD45C545C545C59D00C0C118CEE5833744
:101F00003A2C576223A9428452C7A3B20BCBCE0608
:101F100000C0C826AEE583352434242A28242A2884
:101F200024282A24288A262228244D92A990A421F4
:101F3000A121A121A12101C0DD1FCCE583332232E3
:101F4000222845508A18A19134114321119111F191
:101F5000F06551995500C11C18AEE5833B555C54A2
:101F60005C506050144D445C484CD854EA1CC11D70
:101F700016CCE58337515850588CD048AAA1B4F1FB
:101F8000D007B119C12016CCE58337515850588C71
:101F9000D048AAA1B4F1B0D91E0CC1241BCCE58352
:101FA00037515850588CD048AAA1B4F11007B1410C
:101FB0000741B10701C12D18CCE58337515850585E
:101FC0008CD048AAA1B4F12051595DA53AC1311A6B
:101FD000CCE58337515850588CD048AAA1B4F1E0D1
:101FE00056614161511600C13828AEE5833722366B
:101FF000222A45548AA0B088A0A0899888A88890F1
:1020000098A088A99888D888D888D888D88800C106
:102010003C1ECCE583332232222845508A18918910
:102020009034114321119111F1B1D91E08C1481FFB
:10203000CCE583332232222845508A189189903486
:10204000114321119111F12057F9EA00C18C168D2D
:1020500025842F383638362232264C2A1E2E38D97F
:102060008101C18D16CDE5832F385634244E283298
:1020700038ECC0FE40382700C19018CDE5832F38DA
:102080005634244E283238ECC01E3A38F18108000C
:10209000C1A11ACDE5832F385634244E283238ECAE
:1020A000C01EBE2E2A2C2AAE0800C1E01CCCE5833F
:1020B00037558EC282C26222A2426282A66282C268
:1020C00082C20E286213C21816ABE9832D34323453
:1020D00032222E26482AFA802A342B00C21C1ACD1E
:1020E000E5832F385634244E281EFCC02C38302669
:1020F0003038F8400400C2201CCDE5832F38563418
:10210000244E281EE2C02C38F04038E84028F84021
:102110000400C2321DCDE5832F385634244E281ECC
:10212000E2C02C381EEC402C263026EC400400C2C5
:10213000502ECEE58337222A45548AA0B088A0B01D
:10214000889888A8889098A088A99888D888038AB1
:1021500044611141311441611141611101C26C208E
:10216000CCE583372A476141613111512131415317
:1021700031B10714416141614161416101C27D1B7F
:10218000ECE5832B4752312141114231B107145103
:10219000D90346657595EA00C2A4144DA5842F386D
:1021A0003638362232264C2A1EFCC000C2A817CD73
:1021B000E5832F385634244E281EFCC01E3A38F1D1
:1021C000810800C2B41CCDE5832F385634244E2834
:1021D0001EFCC0FE40282E282E282EE8400400C2F7
:1021E000B51CCDE5832F385634244E281EFCC03E46
:1021F0002E282EE840282EE8400400C2B719CDE56D
:10220000832F385634244E281EFCC01E49706C445F
:10221000A04C1000C2DC16ACE58337558EC282C2DA
:102220006222A2426282A6626273C2DD16CCE5839C
:1022300037515850588C5848AAA1B4F1D007B11959
:10224000C2E016CCE58337515850588C5848AAA1A3
:10225000B4C963D31E0CC2E41BCCE583375158507C
:10226000588C5848AAA1B4F11007B1410741B107F1
:1022700001C2EB1FCEE583373A2C57624121512131
:1022800042A9E3418A02232E6A66C262426A46007C
:10229000C2EC17CCE58337515850588C5848AAA146
:1022A000B4F12057F9EA00C2F61BCCE58337515848
:1022B00050588C5848AAA1B4F1C00752317131511D
:1022C0000702C2F822AFE183373C2E26242E2624B3
:1022D0002E26244C248626224D544C44488C884C6F
:1022E00044786E00C30021CEE583373A28242A289B
:1022F000242A46226C22AB908CA2E3A10EA2C30E2C
:10230000C2A20F4200C3681FAFE1833D514C54503D
:102310004C54504C548C480C4D44B2909888A811A1
:1023200099A0F01CC4F0192DA5842B263026302648
:102330004E2430225D4C4490884CFC8101C5001E27
:10234000ADE5832B2630262E262E22AB98F407F6F9
:102350000742714171417141072200C5281DADE15D
:102360008339514CA298443169448262221285C457
:1023700044C48CC88404E700C52C19CCE5833749D4
:10238000AA9054111261115989248A4D1E9BF6603E
:1023900000C53B20CDE583373826242A26242A444D
:1023A000222C2422554448A2E078C8E0A4127142AD
:1023B00001C54419AEE583353A8A289B6421316111
:1023C0002165214169A288A27303C5451ACDE9831D
:1023D00035862A2428495092A020A23454C1F130D5
:1023E00007C13901C5481ACDE98335862A24284911
:1023F0005092A020A23454C18982333E1001C549B5
:1024000020CDE98335862A2428495092A020A23481
:1024100054C1F1E041357141614214221200C54AB4
:1024200023CEE98335882A26284D509AA0A089A07A
:102430004454D1F140715141276143513131252339
:1024400000C54C1FCDE98335862A2428495092A027
:1024500020A23454C1F13007C1510751C1072100F6
:10246000C5591CCDE98335862A2428495092A020DD
:10247000A23454C1F148CC528585D900C55E1FCD28
:10248000E98335862A2428495092A020A23454C1D9
:10249000F1F0076231813161072200C56028AEE5A5
:1024A0008335243424842824222826442C24442CB4
:1024B000A42C2445504C480851486848684868484E
:1024C000684800C57C19AEE583353A8A289B6421AB
:1024D000652131612141694888A27303C57D1BCD07
:1024E000E98335862A24284950105192A0A009AAD0
:1024F000E0789883E09C00C5911DCDE98335862A5C
:1025000024284950105192A0A009AAE0782466A975
:10251000C2C26C00C59827AEE583352434248428D4
:1025200024222826442CA42C24442C2445500C0975
:102530005148684868486848684800C5B419AEE51D
:10254000833B095D44509858945848595444505816
:10255000085D740EC5B518CBE98335824A28482832
:10256000482884280555683CE8416806C5B819CB59
:10257000E98335824A284828482884280555683C3C
:102580006068D28301C5BB18CBE98335824A2848ED
:102590002848288428055568FC5168D203C5BC1C0E
:1025A000CBE98335824A284828482884280555687D
:1025B000F84168CC414CE84100C5C41CCBE98335E7
:1025C000824A28482848288428055568FC515450D8
:1025D000545054D001C5C51CCBE98335824A2848E4
:1025E00028482884280555687C545054D05154D02C
:1025F00001C5C623CDE98335862A2428495092A0F7
:102600009091A03454C1F141498292188504C54487
:102610004458C804C5C71DCCE98335842A222845FF
:10262000508AA09089A02454B1F170B12925C284A8
:1026300002C5EC19AEE5833B095D445098584859F2
:1026400094585444500C095D740EC5ED19CBE983C0
:1026500035824A2848288428482864822A341EF46F
:10266000203403C5F019CBE98335824A28482884F1
:1026700028482864822A347168D28301C5F41DCBAE
:10268000E98335824A2848288428482864822A34E5
:10269000FC2034E62026F42000C6011DCBE983355A
:1026A000824A2848288428482864822A341ED6284A
:1026B0002C262CC80200C6061ECBE98335824A2888
:1026C00048288428482864822A341EF24028262C70
:1026D00026E84000C60827AEE58337223622842A42
:1026E00022510AB18809B19808B198884421132170
:1026F0005411B111B111B111B11101C61B26CDE9AF
:102700008331228626222428242224882224282455
:102710002224882286262234221E3438A9449C5042
:1027200000C62416AD2584A92E2A5D505C505C5449
:10273000BA7A64C1C90E0CC62C1CCDE583A92E2A19
:102740002C2A2C2AAE3438ECC0FE4038E84028F859
:10275000400400C62E21CDE583A92E2A2C2A2C2A3E
:10276000AE3438ECC0BCA22C2226A42226242A2671
:10277000A4A20200C6371BCDE583A92E2A2C2A2C41
:102780002AAE3438ECC01E49706C44A04C1000C610
:10279000441ECEE58337A828262A2655CC44544C1F
:1027A00050515892838978A0E8AC0F4400C65C2D44
:1027B000CEE58335243424A42624222A24442E2240
:1027C000442E22442E82222A24494D4850544850F7
:1027D00054C8C144486848684800C6781ECCE583A0
:1027E00037495144548C5C885C885C4844544C485C
:1027F00051B2A0B0038AD804C6941CAD2584A92E7A
:102800002A5D505C505C54BA7AB098C098C098C0A9
:1028100098A00303C6A91DCDE583A92E2A2C2A2C36
:102820002AAE30263026E8C01EBE2E2A2C2AAE083C
:1028300000C6B017ABE983A72A4D5C485C485C4CE6
:102840005454F90155685600C6B118CDE583A92E38
:102850002A2C2A2C2AAE1EE4C02C38F0403827003F
:10286000C6B41BCDE583A92E2A2C2A2C2AAE1EFE27
:10287000C02C3830263038F8400400C6B81DCDE5ED
:1028800083A92E2A2C2A2C2AAE1EE4C02C38F04014
:1028900038E84028F8400400C6C01FCDE583A92EC3
:1028A0002A2C2A2C2AAE1EE4C02C38F040282E28D0
:1028B0002E282EE8400400C6C31CCDE583A92E2A8D
:1028C0002C2A2C2AAE1EE4C02C381E343836225056
:1028D000260800C6D01FECE583A528222A26222A36
:1028E00026222A26A42836F680222A842A27B1699D
:1028F0000F06C6D423ECE583A528222A26222A2601
:10290000222A26A428F680222A842A3DC4416CD09B
:102910004150EC4100C70423CCE58337A428222A88
:10292000462E442E442E24222A26A428F68022282D
:102930002C282C282C282C00C7201DADE583A92E7F
:102940002A5D505C505C54BA7A9003A398C098C03A
:1029500098C0982000C7211ACDE583A92E2A2C2AD9
:102960002C2AAE1EE4C028263026EC40382700C7AB
:102970003C146DA584A92E2A5D505C505C54BA7A33
:10298000D40706C74018CDE583A92E2A2C2A2C2A65
:10299000AE1EFEC01E3A38F1810800C7441BCDE5CB
:1029A00083A92E2A2C2A2C2AAE1EFEC0FE4038E80F
:1029B0004028F8400400C74C1DCDE583A92E2A2CE1
:1029C0002A2C2AAE1EFEC0FE40282E282E282EE8D5
:1029D000400400C7581CCCE58337495144548C5CF3
:1029E000885C885C4844544C4851EC01456C06C7EF
:1029F0007418ACE583370955445090588C588C585E
:102A00004C445012AAD81CC77818CBE98335824AA7
:102A100028482848284828055568E2D0A40703C755
:102A20007C1CCBE98335824A284828482848280559
:102A30005568F84168CC414CE84100C77D1BCBE9A3
:102A40008335824A284828482848280555686C4517
:102A5000519495A45500C78321CDE98335862A2456
:102A600028495092A0244169A882E38BE2220E6A91
:102A700046C262226A4600C7841CCBE98335824A7B
:102A800028482848284828055568FC515450545077
:102A900054D001C7851CCBE98335824A2848284891
:102AA0002848280555687C545054D05154D001C74B
:102AB000871CCCE98335842A222845508AA01441FA
:102AC00049A862E3E162534A840905C78822CDE937
:102AD0008335862A2428495092A0244169A882E39C
:102AE000E14222430223D2C5440489C804C78A1B99
:102AF000CBE98335824A2848284828482805556864
:102B0000FC6168A044945000C7901BADE983333842
:102B1000E624302630262E8846282A2426462824D5
:102B2000383700C79118CEE583373AC42A2CB31141
:102B300089A810A1D4F15007D13901C79418CEE566
:102B400083373AC42A2CB31189A810A1D4A9A2B3FF
:102B50003E1001C7981DCEE583373AC42A2CB31125
:102B600089A810A1D4F15007D1610761D1072100D4
:102B7000C7A01DCEE583373AC42A2CB31189A8100B
:102B8000A1D4F160775171517151712700C7A11D16
:102B9000CEE583373AC42A2CB31189A810A1D4F109
:102BA00060517151717751712700C7A519CEE58326
:102BB000373AC42A2CB31189A810A1D4F1A8ECC2C9
:102BC000B2B301C7AC24ADE983332432E4202455E9
:102BD0004C48544C4850108D5048362143212943CD
:102BE00022432243224302C7C120CCE58333223251
:102BF000E22622284550D088444CC45048446444BE
:102C00003C7C5954661500C80017ADE98339F8209B
:102C10002A59545850108D5C48B2A1A8E01CC80134
:102C200017CCE58337F62A282C286844226A286DB9
:102C30003CF4416C06C80417CCE58337F62A282CEF
:102C4000286844226A286D3C6CB60703C8081CCC6F
:102C5000E58337F62A282C286844226A286D3CC46C
:102C6000416CD04150EC4100C80A1FCCE58337F6D7
:102C70002A282C286844226A286D744555444C44FF
:102C8000454C44544C4403C81017CCE58337F62A0E
:102C9000282C286844226A286D3CC855BE3AC811C1
:102CA00019CCE58337F62A282C286844226A286D37
:102CB0003C48545657A90EC8151BCCE58337F62A55
:102CC000282C286844226A286D3CB85558505894DE
:102CD0000500C81C28ADE983352234E22026222ACB
:102CE00028222A2822286622462A222451C4504C0F
:102CF00044684468446844684400C870158D25845D
:102D0000E73638365634244E281E2E38D98101C86D
:102D10007116CDE583C73654224E281E2E38ECC0DE
:102D2000FE40382700C87418CDE583C73654224EBC
:102D3000281E2E38ECC01E3A38F1810800C8801DCC
:102D4000CDE583C73654224E281E2E38ECC0FE40F7
:102D5000282E282E282EE8400400C8851ACDE583A9
:102D6000C73654224E281E2E38ECC01EBE2E2A2CEA
:102D70002AAE0800C88B1BCDE583C73654224E28E7
:102D80001E2E38ECC01E28F040AC2E2AAE0800C81B
:102D9000FC15ABE983E53234325230244A28FA80FC
:102DA0002A342B00C8FD17CDE583C7363854224E90
:102DB000281EE2C02C38F040382700C9001ACDE5A3
:102DC00083C7363854224E281EFCC02C383026309B
:102DD00038F8400400C9041CCDE583C736385422B6
:102DE0004E281EE2C02C38F04038E84028F8400455
:102DF00000C9111BCDE583C7363854224E281EE288
:102E0000C02C381EB02E2A2C2AAE0800C98914CD39
:102E1000E583C73654224E281EF181FD81704E0095
:102E2000C99019CDE583C73654224E281EF181FD85
:102E30008170D08150F0810800C9981BCDE583C70F
:102E40003654224E281EF181FD81505C505C505C4E
:102E5000D0810800C9C017ABE98335F420262A28A1
:102E60002A28558C5448A2A198D01CC9C117CCE57A
:102E70008337F62A282C282C44226A286D3CF441FA
:102E80006C06C9C417CCE58337F62A282C282C44B5
:102E9000226A286DF2D8B40703C9C81CCCE5833771
:102EA000F62A282C282C44226A286D3CC4416CD078
:102EB0004150EC4100C9D119CCE58337F62A282CC2
:102EC000282C44226A286D3C48545657A90EC9D371
:102ED0001BCDE5833738C22A5954588C445484504A
:102EE000E278C8E0A412714201C9D51BCCE5833752
:102EF000F62A282C282C44226A286D3CB8555850B4
:102F000058940500C9E725CFE183393C6662284D16
:102F100054504CD4448E4262328F07AA88098C8860
:102F200009AA288A8A09AA2801C9F82BAFE18337A0
:102F3000243624826224514C48A2989034223134A1
:102F4000116942D24484848CC84484C486C486C433
:102F500086C48604CA4C1FAFE1833D05C554504C5E
:102F600054504C548C480C4D44B2909888A81199F8
:102F7000A0F01CCABD18CDE583835D4C5C4C5C445D
:102F800056312983C30EEC0F847302CC281CADE9A3
:102F900083332C2A2C2AE62430262E8846282A24FD
:102FA00026462824383700CC2C1ACEE583373A2A17
:102FB0002EC42ADD484458884C5474AAE8AC0F4407
:102FC00000CC2E22CFE583373C2C2EC62A2C6E2631
:102FD000222C46262A3C1E2C2E2CE8266C2A4D50EC
:102FE000C90800CC301FCEE583373A2A2EC42ADD2B
:102FF000484458884C54743CD44174D84158F441E6
:103000000800CC381FCEE583373A2A2EC42ADD4883
:103010004458884C54743CD85D545C545C54DC096E
:1030200000CC3E1ECEE583373A2A2EC42ADD484422
:1030300058884C54743CD86D74AC44A0500800CCF3
:103040004425ADE9833324262A24262AE420245566
:103050004C4850108D5048362143212943224322A9
:1030600043224302CC451ECCE58333223222262A5A
:10307000E22622266A24222862264564443CC44172
:103080006C0ECC9818ADE98339263026F0202A59E9
:1030900050108D5C48B2A1A8E01CCC9C17CCE583F5
:1030A000374DDC554CD44844D84C546C3C6CB60776
:1030B00003CCAB1DCDE5833738282EC22A286A26DB
:1030C000222C42262A381E3238A9449C5000CCAD0E
:1030D0001BCCE583374DDC554CD44844D84C546C5C
:1030E0003CB855585058940500CCB429ADE9833507
:1030F00022262C22262CE22026222A28222866227A
:10310000462A222451C4504C4468446844684468A8
:103110004400CD0815AD25842D38F236AD68489CA5
:10312000503C5C70B20303CD5C20CCE58337282C87
:10313000282CE2262C282A91544C485084504C507C
:103140005850D801456C02CD9415CBE9832D34EE4F
:1031500032A560489450F00155685600CE3519CD1F
:10316000E5832DD234362250261EFEC01EBE2E2AE6
:103170002C2AAE0800CE5818ABE98335262C26EC55
:1031800020262A28558C5448A2A198D01CCE5C1722
:10319000CCE583374DDC554C5C4844D84C546CF23C
:1031A000D8B40703CE601CCCE583374DDC554C5CAE
:1031B0004844D84C546C3CC4416CD04150EC410064
:1031C000CE6817CCE583374DDC554C5C4844D84C71
:1031D000546C3CC855BE3ACE741CACED833136C637
:1031E000243024302430E440262E262C282A8D58E2
:1031F0006C1A00CEE415ACED8337F62A9F1C8805C7
:1032000085C5C485044EC626CEF415CCE583F72AC1
:1032100057374361217293F12057F9EA00CF002616
:10322000ACED83332232E226222A26222A26222AC3
:1032300062C2282228454C54444858C45C44644423
:10324000644400CF54154D2584E38038C90171587A
:103250005458545870DC8101D06C0F0DA584E38064
:1032600038C90171160706D07C1AADE583E54038F0
:10327000E84038FD81FD81505C505C505CD0810895
:1032800000D0A417AAED8333F2262A262A262AC6BE
:10329000289BA890B0B9C804D0C018ADE9833338D2
:1032A000E62426302630E6A4302630E624383700DF
:1032B000D0D519CEE583373AC42A2434C48A34C41D
:1032C0002A3A1E955D58763600D0DC22ADE983336C
:1032D0002432E4202444304430E420A4304430E458
:1032E0002024654864486448644800D13014ADE93E
:1032F0008339F8204A56F620A456F6202A3807D1FA
:103300004C24ADE983352234E2202642324232E2B7
:10331000206242324232E2202622342234223422F7
:10332000342200D15420CCE583332232E2264230CD
:10333000E2624230E2262232221EE22036E82028D3
:10334000F62000D1B51BCDE583E54028F84028F8EC
:10335000403038ECC01EBE2E2A2C2AAE0800D22CDB
:1033600014ABE983E1A034F4A034F480F6802A346D
:103370002B00D2B8146DA584E3802438F88024385B
:10338000F8801EE98101D2B916CDE583E54028F821
:103390004028F8401EFAC0FE40382700D2F014AB97
:1033A000E98335F4204652F2204652F220263407B3
:1033B000D30013CCE58337F64AF44AF42A361EE4E8
:1033C0002A5F1DD30C1CAEE583353AE640222A263F
:1033D000554CAA981892985431690E24A27303D3BD
:1033E0001422CEE583373AE4202628242A28246AAA
:1033F0002455C8414C743CD44174D84158F4410818
:1034000000D37C1DAEE5833BFA602824262C2426BD
:103410002C24268624262C2426EC60283A07D3B4B4
:103420001DAEE5833BFA602824262C24268624261C
:103430002C24262C2426E6C0283A07D3B818CCE53D
:103440008337F6402624CD48AA90340734B1C963A7
:10345000D31E0CD3C91CCCE58337F6402624CD48B7
:10346000AA90340734B1F1E056614161511600D49D
:103470005C1D8D2584E380282A2C2A2C2A2C2AE8FE
:10348000801E26614C604C604CD08101D4801ECDE2
:10349000E583E5402C2630263026EC40FEC02C3853
:1034A000F04038E84028F8400400D48820CDE58377
:1034B000E5402C2630263026EC40FEC02C38F0406B
:1034C000282E282E282EE8400400D4E81FADE583DE
:1034D000E380282A2C2A2C2A2C2AE8801EF8C028CF
:1034E000263026302630260800D504164DA584E364
:1034F00080282A2C2A2C2A2C2AE8801EE98101D532
:103500003C1CACE58337F660244D50484C50484C89
:1035100050484C50484CD0C1486C0ED5441DCCE5A9
:103520008337F64026245548AA90540732B1F1104B
:1035300007B1410741B10701D5581DADE983272ADD
:103540002C2AE6246A284D5621552131512141313A
:10355000A98682B301D5591CCEE583272EE42868BD
:103560002C26554CAA8998A8A0B1E878A883E89C95
:1035700000D55C1CCEE583272EE428682C26554C0C
:10358000AA8998A8A0B1E854D1591F8800D5602114
:10359000CEE583272EE428682C26554CAA8998A8C6
:1035A000A0B1E878A883E8B083B0E8831000D568BC
:1035B00021CEE583272EE428682C26554CAA89982D
:1035C000A8A0B1E878B0BBA8B8A8B8A8B81300D52F
:1035D0006D1DCEE583272EE428682C26554CAA893C
:1035E00098A8A0B1E878547661D9D900D57428ADEF
:1035F000E983272A24262AE42024C95048444C126F
:10360000A990AA9010A990143149428642224322DF
:1036100043224302D58922CCE583272AE2202422B3
:103620006428224D8A34311331294286222223E232
:10363000E1CBA232AB00D5A51DCEE583272EE42831
:10364000682C26D5444C544CAA91B1E87854766144
:10365000D9D900D5D81DCCE58327EE2028642C22AB
:10366000262A22266622262A642C361EE42A5F1D7C
:10367000D6001EADE983273026F0202A642E2226AC
:10368000A62A4A2A4A2A8422262C642E3803D604E3
:103690001DCCE58327EE2028642C22266622262ACC
:1036A000222666642C36796CDA8301D61521CCE5A6
:1036B0008327EE2028642C22266622262A222666CC
:1036C000642C361EDC2A2C282CCA0200D63816ADF3
:1036D00025842D38F21EAA2E2A2C2AAE1E3038D967
:1036E0008101D63917EDE5832DF2AE2E2A2C2AAEB4
:1036F0003438ECC0FE40382700D63C19EDE5832D68
:10370000F2AE2E2A2C2AAE3438ECC01E3A38F181A3
:103710000800D65422CEE583352E2A2E2AE8243AF4
:10372000AA26282A84222A24AA262E2A2E2AE640DD
:10373000223A0D00D6551ECEE583292CE6266A2AAC
:103740002826682426286A2A2CC9C1443CD44174FE
:103750004E00D6581FCEE583292CE6266A2A282655
:10376000682426286A2A2CC9C1443C5074D60722F2
:1037700000D65C23CEE583292CE6266A2A28266813
:103780002426286A2A2CC9C1443CD44174D8415803
:10379000F4410800D6691FCEE583292CE6266A2A63
:1037A0002826682426286A2A2CC9C1443C2ABBB092
:1037B000EC6C00D68C1FCCE58337282C282CE22615
:1037C00036A428222A26222A26A4285950D8014580
:1037D0006C02D68D1DCCE583292CE226662A242690
:1037E00028242628662A28EC80221EE2203607D6C6
:1037F000A81BAD25842D38F21EAA2E2A2C2AAE3005
:1038000026302630263026E8C000D6C415CBE98302
:103810002B34EE1EA22A515454F90155685600D695
:10382000CC1DEDE5832DF2AE2E2A2C2AAE1EE4C06F
:103830002C38F04038E84028F8400400D6E821EC65
:10384000E583292CE226662A242628662AF6802289
:103850002A842A3DC4416CD04150EC4100D7501419
:103860006DA5842D38F21EAA2E2A2C2AAE1EFEC06B
:1038700000D75418EDE5832DF2AE2E2A2C2AAE1E69
:10388000FEC01E3A38F1810800D7881EABE98327B5
:103890002C26EC2026642A2226482A462A462A2656
:1038A000222628642A3403D7981DCCE58327EE20EE
:1038B00028642C22262A22262A22262A642C361E16
:1038C000E42A5F1D0000002811241FBECFEFD8E0BE
:1038D000DEBFCDBF11E0A0E0B1E0E2E8F4E502C058
:1038E00005900D92AE39B107D9F726E0AEE9B1E007
:1038F00001C01D92AA3BB207E1F71CE1C4E6DCE17E
:1039000004C02197FE010E94322AC336D107C9F7AD
:103910000E949F280C943F2A0C940000662329F0F3
:103920006A3019F0862F90E008958FEF9FEF089589
:10393000CF92DF92EF92FF920F931F93CF93DF937B
:10394000EC01842F8770E1E0F0E0082E01C0EE0F5B
:103950000A94EAF73E2F7E0199E7E90EF11CD701A0
:103960009C9110E0923018F41E2F913029F150E014
:10397000487FE8ADF9ADC880D980D60150969C91BA
:10398000949F6001959FD00C11246C0D7D2D711DAD
:10399000DF01A60FB71F011115C08C91812B832762
:1039A0008D932150D1F7DF91CF911F910F91FF900F
:1039B000EF90DF90CF90089530E0D9CF110F330F03
:1039C000222389F39C91912B93279C938F5F87707F
:1039D00021508111F3CF9CADA90FB11DF70190814A
:1039E000923028F4913009F031E011E0E9CF31E074
:1039F000E7CF80E0089580E00895CF93DF93C7E399
:103A0000D6E08FAFEAADFBAD0190F081E02D8BE306
:103A100096E00995EAADFBAD0280F381E02D8BE3E2
:103A200096E0DF91CF9109949B01DC011896ED910E
:103A3000FC9141E067E10994833081F028F4813002
:103A400099F08230A9F008958730A9F08830C9F044
:103A50008430B1F4809180008F7D03C0809180001C
:103A60008F7780938000089584B58F7784BD089503
:103A700084B58F7DFBCF8091B0008F778093B000AD
:103A800008958091B0008F7DF9CF1F93CF93DF937E
:103A9000282F30E0F901E255FF4F8491F901E656F5
:103AA000FF4FD491F901EA57FF4FC491CC23A9F0FD
:103AB000162F81110E941C1DEC2FF0E0EE0FFF1F4E
:103AC000E458FF4FA591B4918FB7F894EC91111180
:103AD00008C0D095DE23DC938FBFDF91CF911F917B
:103AE0000895DE2BF8CFCF93DF9390E0FC01E656EC
:103AF000FF4F24918A579F4FFC0184918823D1F076
:103B000090E0880F991FFC01EE58FF4FA591B491EA
:103B1000FC01E458FF4FC591D491623071F49FB716
:103B2000F8943C91822F809583238C93E8812E2BEF
:103B300028839FBFDF91CF9108958FB7F894EC91C0
:103B40002E2B2C938FBFF6CF3FB7F8948091330282
:103B500090913402A0913502B091360226B5A89B0F
:103B600005C02F3F19F00196A11DB11D3FBFBA2F0F
:103B7000A92F982F8827BC01CD01620F711D811DCF
:103B8000911D42E0660F771F881F991F4A95D1F754
:103B900008958F929F92AF92BF92CF92DF92EF9251
:103BA000FF926B017C010E94A41D4B015C01C114BA
:103BB000D104E104F104B9F00E94A41D6819790947
:103BC0008A099B09683E73408105910580F321E0D5
:103BD000C21AD108E108F10888EE880E83E0981E29
:103BE000A11CB11CE4CFFF90EF90DF90CF90BF906D
:103BF000AF909F908F90089585ED8093BC00809149
:103C0000BC0084FDFCCF1092080208952091E401CD
:103C1000260F3327331F21323105ECF4209108029F
:103C2000FC0190E080E0243069F082E00895A091EA
:103C3000E4012191AC014C535E4FA40FB52FB11D8F
:103C40002C930196861798F38091E401680F609396
:103C5000E40180E0089581E0089508958FEF9FEFDB
:103C600008958FEF9FEF08958091C30190E09195A3
:103C7000819591090895CF93DF93CB01EA01642FD9
:103C80000E94061ECE01DF91CF910895CF93DF935E
:103C90001F92CDB7DEB7698361E0CE0101960E9425
:103CA000061E81E090E00F90DF91CF910895DC0136
:103CB0001A96ED91FC9130E020E00994DC01149615
:103CC000ED91FC9130E020E040E060E10994DC01FE
:103CD0001696ED91FC9130E020E040E069E1099416
:103CE000DC011696ED91FC9130E020E040E068E1C7
:103CF00009949A01DC011696ED91FC91462F67E13B
:103D00000994EF92FF920F931F93CF93DF931F922B
:103D1000CDB7DEB77C018B01D8016C91673129F1F9
:103D200050F46531A0F40F90DF91CF911F910F9166
:103D3000FF90EF9008956A3118F16E3FA1F7F801F6
:103D40004181498369E2C7010E94571E0BC0F801F7
:103D500041814983D7011696ED91FC9130E020E036
:103D6000C70109950E5F1F4FD7CFF8018181898365
:103D7000AE014F5F5F4F61E0C7010E94791EF2CF35
:103D80000F5F1F4FD7011696ED91FC9130E020E0B8
:103D900040E0C7010995C0CF462FDC011696ED9192
:103DA000FC9130E020E066E10994462FDC01169694
:103DB000ED91FC9130E020E065E10994EF92FF92F3
:103DC0000F931F93CF93DF93EC01042F79016D3094
:103DD00009F446C050F46B30C9F1693009F49FC052
:103DE0006A3009F465C080E046C06E3009F452C004
:103DF0006F3099F70E94701EF7011381110F110F98
:103E0000110F6C89160F60E4CE010E94D51E612F40
:103E100062956F706061CE010E94D51E612F6F7038
:103E2000CE010E94CC1EF7016481606BCE010E941E
:103E3000CC1EF701408151816281660F660F660FCB
:103E4000CE010E94791E0150A1F72EC063E171E0FE
:103E5000442311F06EE071E0CE010E94811E0AC081
:103E6000411110C067E071E00E94811EE881F98174
:103E700082898C8B81E0DF91CF911F910F91FF9010
:103E8000EF90089560E071E00E94811EE881F98161
:103E90008389EFCF0E94701E61E8CE010E94D51E7B
:103EA000602FCE010E94CC1ECE010E94671EE2CF81
:103EB000EA85FB8530E020E040E068E2CE0109952C
:103EC000EE81FF8130E020E040E064E1CE01099521
:103ED00041E06BE4CE010E94571EE881F9814481E4
:103EE00069E2CE010E94571E40E06BE4CE010E94C1
:103EF000571EE881F981448169E2CE010E94571E74
:103F000041E06BE4CE010E94571EE881F9814581B2
:103F100069E2CE010E94571E68E171E09DCF8DE4F9
:103F200091E0998388831C8AA5CF41E06DE40C94CD
:103F3000571EDC01ED91FC9145856DE20C94571EF6
:103F4000CF93DF93EC0141E06CE40E94571ECE0159
:103F5000DF91CF910C94991FCF93DF93EC016623EF
:103F600079F00E94951FCE010E94991FCE010E94F8
:103F7000A01F40E06CE4CE01DF91CF910C94571E5E
:103F800040E06DE40E94571EEECF1F93CF93DF9366
:103F9000EC01162F60780E94AC1F612F6074CE0177
:103FA0000E94AC1F612F6072CE010E94AC1F612F76
:103FB0006071CE010E94AC1F612F6870CE010E941B
:103FC000AC1F612F6470CE010E94AC1F612F627024
:103FD000CE010E94AC1F612F6170CE010E94AC1F08
:103FE000CE010E94951FCE010E94991FCE010E9412
:103FF000A01FCE010E94951FCE010E94991F40E094
:104000006CE4CE01DF91CF911F910C94571EDC011F
:104010001896ED91FC9130E020E040E069E10994D0
:10402000DC011896ED91FC9130E020E040E068E181
:104030000994CF93DF931F92CDB7DEB76983BE019A
:104040006F5F7F4F0E94141D0F90DF91CF910895F5
:10405000EF92FF921F93CF93DF93EC01162F7A011B
:104060000E94102060E4CE010E941920E885F985A5
:104070009701412F67E1CE010995CE01DF91CF91E4
:104080001F91FF90EF900C940720EF92FF921F93E7
:10409000CF93DF93EC01142F7901663181F138F46D
:1040A000643109F44BC0653179F080E022C0683199
:1040B000C9F150F16931C9F78091C201882391F1AA
:1040C000CE010E9407202EC08091C201882319F0E2
:1040D000CE010E940720CE010E94102060E0CE0198
:1040E0000E941920612FCE010E94192081E0809347
:1040F000C201DF91CF911F91FF90EF900895642F3F
:104100000E94192081E0F5CF8091C201882319F027
:10411000CE010E940720A701193138F4612FCE018A
:104120000E9428201092C201EDCF68E1CE010E94CA
:104130002820185188E1E80EF11CEDCF8E898F3FC1
:1041400011F488E78E8BE885F9859701412F64E1AA
:10415000CE01DF91CF911F91FF90EF900994FC0168
:104160006623D9F16A30C9F1808D811125C06C3F79
:1041700048F085E0808F617070E0738B628B2EEF6A
:104180003FEF29C0683F20F084E0808F6370F4CF58
:10419000603F20F083E0808F6770EECF603E20F0BC
:1041A00082E0808F6F70E8CF262F30E0603C98F07F
:1041B00081E0808F6F71E0CF8150808F22893389B9
:1041C00096E0220F331F9A95E1F76F73262B338BFE
:1041D000228B8111D4CFC90108952FEF3FEFFBCF80
:1041E0000F93DC01DE963C91DE97431BD496ED9154
:1041F000FC9109950F910895CF93DF93FC01A08165
:10420000B18182AD982F990F990F990F95AF509664
:104210009C915097903208F09FE1990F990F990F58
:1042200094AF23AD922F990F990F990F96AF519696
:104230003C915197682F620F7727771F3617170623
:1042400014F4832F821B97AFEF01C05CDF4F880F00
:10425000880F880F890F8883219680EF8883549672
:104260008D919C915597813F910508F48883EE5B71
:10427000FF4F56968C918083DF91CF9108950F93D5
:10428000FC01EB5BFF4F308131965081451730F4D4
:10429000301738F0041728F080E013C03017D0F33F
:1042A000FBCFFC01ED5BFF4F30818C5B9F4FFC012E
:1042B0008081681740F481E0321718F081E02617FA
:1042C00058F70F9108953217C8F3E6CF2F923F9217
:1042D0004F925F926F927F928F929F92AF92BF9216
:1042E000CF92DF92EF92FF920F931F93CF93DF93C2
:1042F000EC014C0183E4880E911CF401108232978A
:1043000020805E01F4E4AF0EB11CF50120823FACC9
:104310006E01F5E4CF0ED11CF60130823597408056
:104320007E01F6E4EF0EF11CF70140823496108115
:10433000329760803196708032975080012F262D01
:10434000472D652DCE010E943F21CD58DF4F8111B1
:1043500014C01882DF91CF911F910F91FF90EF90C1
:10436000DF90CF90BF90AF909F908F907F906F9095
:104370005F904F903F902F90089581E08883552063
:1043800011F0F4015082621410F4F50160823714C8
:1043900010F4F60170821415E8F6F7011083DACFF5
:1043A0000F93DC01802FFD01ED58FF4F9081992381
:1043B000E9F12223D9F1223020F0023079F56F5F44
:1043C000621B082F0170FD0180FD32C0EB5BFF4FC7
:1043D0008081481758F131968081481738F5329717
:1043E000908131978081260F2617F0F46917D8F451
:1043F0002FEF290F8217D0F4681708F4682F2917B8
:1044000008F4922F961BD696ED91FC91D7970480D5
:10441000F581E02D292FCD01099508C0033089F6DB
:104420004F5F421BCECF682F691720F30F9108957D
:10443000ED5BFF4F80816817C8F331968081681764
:10444000A8F73296908131978081240F241778F451
:10445000491760F42FEF290F821740F7481708F427
:10446000482F291708F4922F941BCDCF482F4917B6
:10447000E8F6F2CF213039F020F0223031F0840F0D
:104480000895860F0895841B0895861B0895213092
:1044900039F020F0223031F0861B0895840F089502
:1044A000860F0895841B08955F926F927F928F927A
:1044B0009F92AF92BF92CF92DF92EF92FF920F93B3
:1044C0001F93CF93DF935C01162F642EEC01C15B29
:1044D000DF4FDC80ED804C0189E7880E911CFE8067
:1044E000FD18C12EF11608F4CF2C5B800C85202F0F
:1044F0004E2D6D2D8A810E943A22782E202F4E2D2E
:104500006D2D852D0E944722482F662071F08A85E7
:10451000F40180832C2D672DC5010E94D0211F1529
:1045200048F01F19E394D12CDACF89858111F7CF98
:104530008B85EECF1D0D1C83ED82DF91CF911F91F6
:104540000F91FF90EF90DF90CF90BF90AF909F9032
:104550008F907F906F905F900895DC0118964C913A
:104560001897ED91FC911197249130E0042E02C030
:10457000359527950A94E2F7842F860F883068F0E6
:1045800031961196FC93EE93E49198E0941B01C050
:10459000EE0F9A95EAF72E2B885018968C938FEF92
:1045A0009FEF01C0880F6A95EAF7809582230895EE
:1045B000FC01E60FF11D849190E0982F8827319639
:1045C000E4918E0F911D0895AF92BF92CF92DF922A
:1045D000EF92FF920F931F93CF93DF9300D000D001
:1045E0001F92CDB7DEB78C01DC01DA96AC90DA977A
:1045F000DB96EC90DB97ED91FC91B188FE2CD12CF1
:10460000C12CD801ED91FC9111978089D8962D91FC
:104610003C911C82FD828B83B8E08B9FC0011124EA
:104620008C9DA0018D9D500D9C9D500D1124240F3B
:10463000351F3A832983D8011496ED91FC919E0190
:104640002F5F3F4F41E06FE0C8010995F3948F2D34
:104650008E198A1528F4BFEFCB1ADB0AFB1488F2F7
:104660000F900F900F900F900F90DF91CF911F91AF
:104670000F91FF90EF90DF90CF90BF90AF90089593
:10468000EF92FF921F93CF93DF93EC01142F7901E8
:10469000683151F130F46431D1F06731A9F080E034
:1046A00006C0693109F443C06032C9F781E0DF9187
:1046B000CF911F91FF90EF900895F70161917F01D5
:1046C000CE010E94C51F11501111F7CFEFCF41E06D
:1046D0006CE40E94571E41E06DE4CE010E94571E1B
:1046E000CE010E94991FE2CF8F89882349F0CE0125
:1046F0000E94951FCE010E94991FCE010E94A01F0B
:10470000CE010E94951F40E06DE4CE010E94571E2D
:10471000CE010E94991F40E06CE4CE010E94571E1A
:1047200081E08F8B6E89CE010E94C51FBFCF40E014
:104730006DE40E94571ECE010E94991FCE010E9477
:10474000A01FCE010E94951FCE010E94991F1F8AB3
:10475000ADCF0F931F93CF93DF93EC01862F642F80
:104760008C3208F03AC08A3208F060C0883209F40E
:104770004BC0893209F460C0803408F475C0982FAA
:104780009F73FE01E90FF11D868D8F3F09F44EC026
:10479000903108F436C0282F30E0F901E255FF4F80
:1047A0008491F901E656FF4F0491F901EA57FF4F52
:1047B0001491112379F081110E941C1DE12FF0E06A
:1047C000EE0FFF1FE859FF4FA591B491EC910E2316
:1047D00081E009F480E0898F29C08D3299F108F4D5
:1047E000CBCF94EB980F923008F0C6CF8F73C80FE1
:1047F000D11D8E8D411134C061E00E94731D60E0B7
:104800008E8D0E94451D12C08E01025E1F4FD0E0AA
:10481000F80181918F018F3F31F061E0D03108F0D4
:1048200062E00E94731DDF5FD63191F781E0DF9176
:10483000CF911F910F91089570E090E080E00E9469
:10484000C91DF4CF85E090E0433010F082E090E0A5
:10485000880F991F880F991F05970197F1F7E6CFE9
:1048600062E00E94731DE2CF80E0E1CFCF92DF9241
:10487000EF92FF920F931F93CF93DF936C01EB01A5
:104880007B01E40EF51E10E000E0CE15DF0561F0BF
:104890006991D601ED91FC910190F081E02DC60166
:1048A0000995080F191FF1CFC801DF91CF911F9112
:1048B0000F91FF90EF90DF90CF9008952F923F924D
:1048C0004F925F926F927F928F929F92AF92BF9220
:1048D000CF92DF92EF92FF920F931F93CF93DF93CC
:1048E00000D000D000D0CDB7DEB77C016C0124E051
:1048F000C20ED11CFC01E158FF4F0190F081E02D68
:10490000C60109958C018E3F9F4F08F05BC03701AF
:1049100082E8680E711CF301F081FB83470121E8F6
:10492000820E911CF401F081FD839701215A3F4FC3
:104930003A832983F9018081813009F46AC008F43F
:104940005CC0823009F471C0833009F47AC0F70189
:10495000EB5AFF4F2D81208331963B81308337976F
:104960008081918147969C838B830F3F110511F0C5
:1049700008F015C1B4960136110530F40134110563
:1049800058F0F701EF58FF4F808191812B813C81D6
:10499000280F391F3C832B838B819C810196FC015E
:1049A000249121115AC0412CE981FA818081813002
:1049B00009F492C108F48BC1823009F48FC18330AD
:1049C00009F491C181E090E026960FB6F894DEBF1D
:1049D0000FBECDBFDF91CF911F910F91FF90EF9050
:1049E000DF90CF90BF90AF909F908F907F906F900F
:1049F0005F904F903F902F900895F701EF5AFF4F2F
:104A00000190F081E02DC6010995FB81F80FFB8331
:104A10009ECFF701EF5AFF4F0190F081E02DC601C4
:104A200009952D81281B2D8392CFF701EF5AFF4F57
:104A30000190F081E02DC60109953B81381B3B8335
:104A400086CFF701EF5AFF4F0190F081E02DC601AC
:104A500009959D81980F9D837ACFEB81FC812491EC
:104A60002017110609F094C0CF010296009709F4AF
:104A70009ACFF701ED5AFF4FFE83ED839183808338
:104A80001086719660818D819E810E94AD22ED819C
:104A9000FE818683F701EB59FF4F60818D819E81F6
:104AA0000E94AD22582EED81FE8187839701235805
:104AB0003F4F3C832B83F9019081ED81FE819287EA
:104AC00081E0911180E0ED81FE818387F701EA5951
:104AD000FF4FB0806B2D8D819E810E94AD22382EBC
:104AE000F701E959FF4F2080622D8D819E810E9440
:104AF000AD22182FF701E859FF4F0081602F8D81FB
:104B00009E810E94AD22015021E030E0A90101C048
:104B1000440F0A95EAF7482E441AED81FE8106817A
:104B200010160CF041CFBA94C90101C0880FBA9495
:104B3000EAF7381AB484150D2A9401C0220F2A947A
:104B4000EAF7A22EA11A2B2D4A2D632D82810E94F5
:104B50003A22182FED81FE8182832B2D4A2D632D61
:104B600083810E944722ED81FE818383F1E0BF169D
:104B700009F493C0BF1608F450C022E0B21609F43D
:104B800092C033E0B31609F499C0082F212F49C011
:104B9000FC0184912B813C81280F311DFBCEF70154
:104BA000EB58FF4F80819181EB81FC81E80FF91F69
:104BB000FC83EB835F0160E0C5010E94D8222B815A
:104BC0003C81280F391F3C832B8362E0C5010E9482
:104BD000D82234E0A30EB11C8017910760F3EB815B
:104BE000FC81849190E0982F88273196E4918E2B58
:104BF000009709F4D8CE0817190721F48B819C81FE
:104C0000039634CFEB81FC813296E4912B813C8179
:104C10002E0F311D3C832B83E2CF202F210F082F35
:104C2000050D482F612FC6010E943F21882309F4FA
:104C3000BBCEED81FE81148215825701F2E6AF0EE4
:104C4000B11C23E6E20EF11CF50160818D819E818D
:104C50000E94AD22082FF70160818D819E810E9404
:104C6000AD22182F40E0602FC6010E94542241E07F
:104C7000612FC6010E94542261E08D819E810E94B5
:104C8000AD228111EFCFED81FE8185818515E4F2A2
:104C90008285EB81FC81808387CEB51821E0210FCE
:104CA000080F1B0DBECF91E0392F301B21E0210FE3
:104CB000951901E0080F890F130FB3CF212F250D90
:104CC000982F901B01E0080F81E0890FAACFF40113
:104CD0008081480E408276CEF301FACFF4018081C4
:104CE000841980836FCEF301FACF089590E080E0BD
:104CF0000895FC0101900020E9F73197AF01481BAE
:104D0000590BBC0187E396E00C943624FC01A0818A
:104D1000B18150962C9182AD38E0839FC00111245F
:104D2000289FA001299F500D112470E060E080AD04
:104D300091AD0C94382A1F920F920FB60F92112446
:104D40002F933F938F939F93AF93BF9380912F02A5
:104D500090913002A0913102B091320230912E0236
:104D600023E0230F2D3758F50196A11DB11D209387
:104D70002E0280932F0290933002A0933102B093C1
:104D800032028091330290913402A0913502B091A9
:104D900036020196A11DB11D809333029093340217
:104DA000A0933502B0933602BF91AF919F918F913E
:104DB0003F912F910F900FBE0F901F90189526E8EE
:104DC000230F0296A11DB11DD2CF1F920F920FB6D5
:104DD0000F9211242F933F934F935F936F937F9381
:104DE0008F939F93AF93BF93EF93FF938091B900FD
:104DF000887F803609F44AC0F0F5883209F4A5C0EE
:104E000018F5803109F499C0B8F4882309F4F5C085
:104E1000883009F492C0FF91EF91BF91AF919F91BB
:104E20008F917F916F915F914F913F912F910F9053
:104E30000FBE0F901F901895883109F486C08032FC
:104E400051F78093070214C0803409F49BC040F4EA
:104E50008033B9F38833F9F68093070285ECAEC04E
:104E6000803509F483C0883509F494C0883499F6F4
:104E70000E94FC1DD0CF883909F48AC038F58837E4
:104E800029F050F4883611F0803729F683E08093BA
:104E900008021092060255C0883809F479C080399A
:104EA00019F0803809F0B7CF80910602803208F0FF
:104EB0006FC0E091060281E08E0F80930602809120
:104EC000BB00F0E0EA51FE4F80833BC0803B39F0ED
:104ED000D0F4803A09F477C0883A09F09CCF84E096
:104EE000809308021092E5011092E401F0E0E0E006
:104EF00009958091E40181110FC081E08093E40164
:104F00001092C40109C0803C09F4A8CF883C09F480
:104F1000A5CF883B09F07FCFE091E50181E08E0FBE
:104F20008093E501F0E0EC53FE4F80818093BB005D
:104F30009091E5018091E40129C080912D02809338
:104F4000BB0085EC8093BC0066CF90912C028091D1
:104F50002B02981758F5E0912C0281E08E0F809378
:104F60002C02F0E0E55FFD4F8081E9CFE0912C025B
:104F700081E08E0F80932C028091BB00F0E0E55F12
:104F8000FD4F808390912C0280912B029817C8F2DC
:104F900085E8D8CFE0912C0281E08E0F80932C021F
:104FA0008091BB00F0E0E55FFD4F808380910A02B5
:104FB00081115ECF81E08093090284EA8093BC0076
:104FC0001092080228CF85EC8093BC001092080252
:104FD00080910602803230F4E0910602F0E0EA515E
:104FE000FE4F10826091060270E086EE91E0F0E0E4
:104FF000E0E00995109206020ECF1092070238CF1A
:10500000CF9310923A06109239068EE89CE1909365
:10501000B7068093B6061092B8061092B9061092A1
:10502000530689E691E090933806809337061092F4
:105030003C0610923B0610925006109247061092C2
:1050400048061092490610924A068FEF8093510647
:1050500080935506E9E5F6E08FE696E0CFEFC19341
:105060008E179F07E1F78EED9EE1909340068093A7
:105070003F0685E490E2909342068093410680E4E7
:1050800093E2909344068093430689EA93E29093D7
:1050900046068093450630E020E040E069E08BE37F
:1050A00096E00E94DE1E109287061092860688E91E
:1050B0009CE19093700680936F0687E392E0909353
:1050C00074068093730688E08093750610927606C6
:1050D000109293061092B30681E08093B4068093F9
:1050E000B50681E791E090937206809371068BE399
:1050F00096E00E94FC201092820610928406C093D3
:105100008306C0938506E0917106F09172060280D5
:10511000F381E02D8BE396E009958BEF9CE1909372
:105120008906809388061092960683E1809365062F
:1051300082E180936606C0936406CF9108957894C7
:1051400084B5826084BD84B5816084BD85B582608C
:1051500085BD85B5816085BD80916E00816080933D
:105160006E001092810080918100826080938100A6
:1051700080918100816080938100809180008160B6
:10518000809380008091B10084608093B100809111
:10519000B00081608093B00080917A008460809339
:1051A0007A0080917A00826080937A0080917A0000
:1051B000816080937A0080917A00806880937A0081
:1051C0001092C100E0913F06F091400630E020E0EF
:1051D00040E06AE08BE396E009958091B50688236C
:1051E00021F08BE396E00E94862680E00E94FD1C61
:1051F0008BE396E00E94E422C091760680917506CA
:10520000C80FE0913B06F0913C068189C81708F46D
:1052100004C18BE396E00E945E1E80E00E94FD1CAC
:10522000E0913F06F091400630E020E040E06BE086
:105230008BE396E009958FEA90E29093B70680930E
:10524000B60657EC252E50E0352E68EC462E60E071
:10525000562EC2ECD0E089EC682E80E0782E0AEC65
:1052600010E09BECE92E90E0F92E2CECC22E20E011
:10527000D22E3DECA32E30E0B32E4EEC842E40E037
:10528000942E8091860690918706825C904009F466
:105290008DC0D0938706C0938606E2ECF0E084913F
:1052A00080939706E3ECF0E0849180939806E4EC19
:1052B000F0E0849180939906E5ECF0E0849180938E
:1052C0009A06E6ECF0E0849180939B06F1018491CC
:1052D00080939C06F201849180939D06F301849152
:1052E00080939E06F801849180939F06F701849134
:1052F0008093A006F60184918093A106F501849124
:105300008093A206F40184918093A306EFECF0E071
:10531000E491E093A406E0EDF0E0E491E093A506CB
:10532000E1EDF0E0E491E093A606E2EDF0E0E49137
:10533000E093A70661E182EC90E00E94D82290936E
:10534000A9068093A80663E182EC90E00E94D8222F
:105350009093AB068093AA0665E182EC90E00E94F0
:10536000D8229093AD068093AC06809186069091EA
:105370008706892BD9F08091A4068093B0064091CE
:10538000A5064093B1069091AF06992379F091302C
:1053900009F04DC09091A606891714F49093B006B9
:1053A0008091A706841714F48093B1061092960694
:1053B0008BE396E00E9486261092B8068FE08093D9
:1053C000B90687E791E00E9479261092B80688E234
:1053D0008093B90684E891E00E9479261092B8067D
:1053E0008CE38093B90681E991E00E9479268BE3F2
:1053F00096E00E94E4228BE396E00E945E1E68EE37
:1054000073E080E090E00E94C91D80E090E0892B6D
:1054100009F437CF0E9400001ECF8091B506882383
:1054200021F08BE396E00E9486268C2FDFCE309110
:10543000A1062091A306082E000C990B622F022EC4
:10544000000C770B630F711D37FD7A958617970750
:105450001CF4320F3093B00624170CF0A7CF209322
:10546000B106A4CFEE0FFF1F0590F491E02D099433
:10547000DC0101C06D9341505040E0F70895F8946D
:02548000FFCF5C
:105482001815A015C019FF1815A115C819FF181570
:10549200AE19FF1815AF19FF1815AE15D5168015E0
:1054A200A8163F15D316001540158D161415201693
:1054B2000015A115C815DA1612158116CF15D916C1
:1054C200F115DB1640152E15A415A619FF000114BF
:1054D2000A6464323200127A00000428961008002E
:1054E2000080004000000000005E2436247626750D
:1054F20026FC206621F0204F4C4544205353443172
:1055020033303600EC9584EB9190EC9DB4EB85B88A
:0E55120000EC9DB4ED8BB0EBB3B4EB939C00BA
:00000001FF
