:100000000C94A9020C94D1020C94D1020C94D1024C
:100010000C94D1020C94D1020C94D1020C94D10214
:100020000C94D1020C94D1020C94D1020C94D10204
:100030000C94D1020C94D1020C94D1020C94D102F4
:100040000C94FF0C0C94D1020C94D1020C94D102AC
:100050000C94D1020C94D1020C94D1020C94D102D4
:100060000C94490D0C94D1020000000023002600DE
:10007000290000000000240027002A0000000000E2
:10008000250028002B0004040404040404040202D4
:100090000202020203030303030301020408102007
:1000A0004080010204081020010204081020000012
:1000B0000008000201000003040700000000000027
:1000C00000005F00020204040304050C0BFFFE089D
:1000D000FE08FE016A032C0471200500CC092108EA
:1000E00082C4C991F2082207336D4BB202231087F4
:1000F000447CCAA81C3365548E9932AA012410A5E9
:100100003C6B1E2AA938E28849A5A1230025158A3F
:10011000C49DD44A655523554995544649E5A8726E
:100120005600261188C4AC862A2395A186494B73B4
:10013000A4A5002706316DCA00280BA4B47A8C4A06
:10014000BA754601290AA4B44A46D974C91A2A09BB
:10015000555C6B55AD66042B0B554C6B4671C88CCA
:1001600022002C0742B4C9480A2D06135CCA002E8F
:100170000622C4C9082F0A84C47A99638E390330D1
:100180000E8544DB52238D34D24823A905310984DE
:10019000459B9ABE4600320C8544DB52236929F305
:1001A0003802330E8544DB5223498D461A492D000F
:1001B000340B8544EB95549A636439350D8544CBF3
:1001C0002BA391D14823A905360E8544DB52238FFA
:1001D000A4461A492D00370A8444CBA1638E2E0011
:1001E000380E8544DB5223A9A5461A492D00390E45
:1001F0008544DB52238DA4461E492D003A0752C484
:10020000C988233B0972B4C9882329003C0956CC0C
:100210003B9236D6583D083554CBD070083E0A562E
:10022000CC8BC61A4B1B013F0A8544DBB2A5CCB46C
:10023000094012A93CFD465A6698E248FE543293A2
:100240009A1E11411289433CCAD4C61B468DA21E78
:100250002366A4E608420E8744CC694935A4259557
:100260001C430143108744ECAA47461B6AA8518DE2
:10027000E24800440F88C4CCADA3565A69A5954EF8
:100280006302450E86C4CB25938A23AA28931C2398
:10029000460E86C4CB25934C2A8EA8A21E11470E6B
:1002A0008744ECAA47461BCAA155962B481289449D
:1002B000CD482369A9E518514B2DB51A69044909A0
:1002C00084C4CA48D2D7084A0C86C4EBC81A69E469
:1002D0002BCA094B1189C4CC88769619A90C87467C
:1002E000525B230E4C0F86C4CBC81A69A4914632C8
:1002F000C931024D158B44CEC823ED99549249253E
:10030000995492D18CD652234E1188C48C5E3ACE29
:1003100038524C23C699D54E004F0E8744ECAEF4AC
:10032000C8238FAC729E00500F8744CC694925D5F5
:10033000901A6A3432005113983CEC46396AA595FC
:10034000562349A5D148192A00520D88C4CC2D3D09
:10035000F3D0D235D200530D86C4DB39F2D068E831
:1003600011D702540E86C4CB915C51238D34D22315
:1003700001551088C4CC484B471D75D451479D4743
:1003800004561188C4CC484B479D55462A2395A155
:10039000C61A57158B44CE486A4919CDA8928A2AA5
:1003A000A9BC36D21A6909581088C4CC484BC795E5
:1003B000D1C61BA599D511591188C4CC484B679556
:1003C00091CA50638D351C115A0B86C4CB91F57CB4
:1003D000EB31025B08A334CA50FE1A5C0C84C44A99
:1003E000CE28679433CA015D08A334CAF2D7105EE1
:1003F0000A65546B4679A65A075F061634CB01602E
:100400000623748A14610954C4CA56238D01620EEE
:1004100086C48B461A69641D71C4B50063095544CE
:10042000DB925BA605640E86C4FB461AA931E288FE
:10043000232D0365095544DB52E34623660C85C42E
:10044000EA52498EA8CD9100670D86343B8A533914
:10045000F7D8632400680E86C48B461A69641D7140
:10046000C41105690A84C49AD470BA46006A09A303
:10047000B49ABDBC46026B0E86448B461A69648DE5
:1004800038A2B2066C0884C4CAF46B046D0D5AC459
:100490008D92EA11E5887244036E0B56C48B524765
:1004A0001C7144016F0C56C4DB4872C411D548005E
:1004B000700D76B48B52471C718CA4D106710E77E7
:1004C000B4DB505249A5A6D250A311720954C48A74
:1004D0001A239A00730954C4DA90230E0574097321
:1004E000445A52439902750B56C48B1C71C49196A1
:1004F00001760B56C4CBB2A2CA1A4900770C5944F4
:10050000CDF28A4A65A59109780A56C4CBB2B24E9B
:10051000D600790D76B4CBB2A2CA1AC9AD11007A51
:10052000085544CB25CD317B0AA4B4AA9296966E89
:10053000017C068146CB217D0AA4B48A96B6922E10
:10054000097E0726DCDB520B00000004FFFF0000E1
:10055000680E11241FBECFEFD8E0DEBFCDBF11E083
:10056000A0E0B1E0EEEBF1E202C005900D92A639F9
:10057000B107D9F727E0A6E9B1E001C01D92A73085
:10058000B207E1F712E0C9EAD2E004C02197FE0108
:100590000E94C110C83AD107C9F70E941D0F0C94E0
:1005A000DD100C940000662329F06A3019F0862FC4
:1005B00090E008958FEF9FEF0895CF92DF92EF9232
:1005C000FF920F931F93CF93DF93EC01842F8770DB
:1005D000E1E0F0E0082E01C0EE0F0A94EAF73E2FAA
:1005E0007E0199E7E90EF11CD7019C9110E0923051
:1005F00018F41E2F913029F150E0487FE8ADF9AD95
:10060000C880D980D60150969C91949F6001959F97
:10061000D00C11246C0D7D2D711DDF01A60FB71FAD
:10062000011115C08C91812B83278D932150D1F717
:10063000DF91CF911F910F91FF90EF90DF90CF90BE
:10064000089530E0D9CF110F330F222389F39C9105
:10065000912B93279C938F5F877021508111F3CF4B
:100660009CADA90FB11DF7019081923028F4913013
:1006700009F031E011E0E9CF31E0E7CF80E0089503
:1006800080E00895CF93DF93C4E8D6E08FAFEAAD62
:10069000FBAD0190F081E02D88E896E00995EAAD88
:1006A000FBAD0280F381E02D88E896E0DF91CF91E9
:1006B00009949B01DC011896ED91FC9141E067E102
:1006C0000994833081F028F4813099F08230A9F0C8
:1006D00008958730A9F08830C9F08430B1F4809152
:1006E00080008F7D03C0809180008F778093800091
:1006F000089584B58F7784BD089584B58F7DFBCF31
:100700008091B0008F778093B00008958091B00001
:100710008F7DF9CF1F93CF93DF93282F30E0F9011E
:10072000E255FF4F8491F901E656FF4FD491F9014C
:10073000EA57FF4FC491CC23A9F0162F81110E94D4
:100740006103EC2FF0E0EE0FFF1FE458FF4FA5917F
:10075000B4918FB7F894EC91111108C0D095DE23B5
:10076000DC938FBFDF91CF911F910895DE2BF8CFDF
:10077000CF93DF9390E0FC01E656FF4F24918A5718
:100780009F4FFC0184918823D1F090E0880F991F3E
:10079000FC01EE58FF4FA591B491FC01E458FF4FC6
:1007A000C591D491623071F49FB7F8943C91822F37
:1007B000809583238C93E8812E2B28839FBFDF9124
:1007C000CF9108958FB7F894EC912E2B2C938FBF77
:1007D000F6CF3FB7F8948091740290917502A09182
:1007E0007602B091770226B5A89B05C02F3F19F07D
:1007F0000196A11DB11D3FBFBA2FA92F982F8827A1
:10080000BC01CD01620F711D811D911D42E0660F7B
:10081000771F881F991F4A95D1F708958F929F924D
:10082000AF92BF92CF92DF92EF92FF926B017C0169
:100830000E94E9034B015C01C114D104E104F104FD
:10084000B9F00E94E903681979098A099B09683E91
:1008500073408105910580F321E0C21AD108E108B7
:10086000F10888EE880E83E0981EA11CB11CE4CF2D
:10087000FF90EF90DF90CF90BF90AF909F908F90C0
:10088000089585ED8093BC008091BC0084FDFCCF71
:1008900010924902089520912302260F3327331F17
:1008A00021323105ECF420914902FC0190E080E016
:1008B000243069F082E00895A09123022191AC01D7
:1008C0004F5F5D4FA40FB52FB11D2C930196861776
:1008D00098F380912302680F6093230280E00895CB
:1008E00081E00895089508950895E091FE018091B2
:1008F000FD01E81730F4F0E0E352FE4F808190E014
:1009000008958FEF9FEF08959091FE018091FD0172
:100910002FEF3FEF981748F4E92FF0E0E352FE4F36
:10092000208130E09F5F9093FE01C901089580917E
:10093000FD019091FE01891B990B0895CF92DF92E2
:10094000EF92FF920F931F93CF93DF937C01CB0124
:100950008A012091DC01222389F0EB016B01C40E96
:10096000D51ECC15DD0569F06991D701ED91FC919B
:100970000190F081E02DC7010995F3CF642F0E940B
:100980004B04C801DF91CF911F910F91FF90EF9021
:10099000DF90CF900895CF93DF931F92CDB7DEB74E
:1009A00069832091DC012223F9F02091FF0120329C
:1009B00058F021E030E0FC013383228390E080E0B6
:1009C0000F90DF91CF91089580910002E82FF0E021
:1009D000E454FE4F998190838F5F8093000280934F
:1009E000FF0181E090E0ECCF61E0CE0101960E9432
:1009F0004B04F7CFDC011A96ED91FC9130E020E03A
:100A00000994DC011496ED91FC9130E020E040E087
:100A100060E10994DC011696ED91FC9130E020E054
:100A200040E069E10994DC011696ED91FC9130E01B
:100A300020E040E068E109949A01DC011696ED910E
:100A4000FC91462F67E10994EF92FF920F931F9359
:100A5000CF93DF931F92CDB7DEB77C018B01D80116
:100A60006C91673129F150F46531A0F40F90DF915A
:100A7000CF911F910F91FF90EF9008956A3118F177
:100A80006E3FA1F7F8014181498369E2C7010E94E5
:100A9000FA040BC0F80141814983D7011696ED9104
:100AA000FC9130E020E0C70109950E5F1F4FD7CFC2
:100AB000F80181818983AE014F5F5F4F61E0C7011B
:100AC0000E941C05F2CF0F5F1F4FD7011696ED91C4
:100AD000FC9130E020E040E0C7010995C0CF462FEF
:100AE000DC011696ED91FC9130E020E066E109947E
:100AF000462FDC011696ED91FC9130E020E065E197
:100B00000994EF92FF920F931F93CF93DF93EC0121
:100B1000042F79016D3009F446C050F46B30C9F1EF
:100B2000693009F49FC06A3009F465C080E046C0AE
:100B30006E3009F452C06F3099F70E941305F70127
:100B40001381110F110F110F6C89160F60E4CE0184
:100B50000E947805612F62956F706061CE010E94DE
:100B60007805612F6F70CE010E946F05F7016481D7
:100B7000606BCE010E946F05F70140815181628157
:100B8000660F660F660FCE010E941C050150A1F78B
:100B90002EC063E171E0442311F06EE071E0CE01FC
:100BA0000E9424050AC0411110C067E071E00E9454
:100BB0002405E881F98182898C8B81E0DF91CF91D6
:100BC0001F910F91FF90EF90089560E071E00E94F7
:100BD0002405E881F9818389EFCF0E94130561E83C
:100BE000CE010E947805602FCE010E946F05CE01D4
:100BF0000E940A05E2CFEA85FB8530E020E040E074
:100C000068E2CE010995EE81FF8130E020E040E00E
:100C100064E1CE01099541E06BE4CE010E94FA0443
:100C2000E881F981448169E2CE010E94FA0440E042
:100C30006BE4CE010E94FA04E881F981448169E203
:100C4000CE010E94FA0441E06BE4CE010E94FA0456
:100C5000E881F981458169E2CE010E94FA0468E1E8
:100C600071E09DCF8DE491E0998388831C8AA5CFA4
:100C7000DC011896ED91FC9130E020E040E069E164
:100C80000994DC011896ED91FC9130E020E040E001
:100C900068E10994CF93DF931F92CDB7DEB76983E4
:100CA000BE016F5F7F4F0E9459030F90DF91CF917C
:100CB0000895EF92FF921F93CF93DF93EC01162FCD
:100CC0007A010E94410660E4CE010E944A06E8854E
:100CD000F9859701412F67E1CE010995CE01DF919A
:100CE000CF911F91FF90EF900C943806EF92FF92F6
:100CF0001F93CF93DF93EC01142F7901663181F1BB
:100D000038F4643109F44BC0653179F080E022C0D9
:100D10006831C9F150F16931C9F78091BB0188236D
:100D200091F1CE010E9438062EC08091BB0188232C
:100D300019F0CE010E943806CE010E94410660E003
:100D4000CE010E944A06612FCE010E944A0681E030
:100D50008093BB01DF91CF911F91FF90EF90089599
:100D6000642F0E944A0681E0F5CF8091BB01882361
:100D700019F0CE010E943806A701193138F4612F0D
:100D8000CE010E9459061092BB01EDCF68E1CE0161
:100D90000E945906185188E1E80EF11CEDCF8E89AA
:100DA0008F3F11F488E78E8BE885F9859701412FF5
:100DB00064E1CE01DF91CF911F91FF90EF900994F4
:100DC0000F93DC01DE963C91DE97431BD496ED91A8
:100DD000FC9109950F910895CF93DF93FC01A081B9
:100DE000B18182AD982F990F990F990F95AF5096B9
:100DF0009C915097903208F09FE1990F990F990FAD
:100E000094AF23AD922F990F990F990F96AF5196EA
:100E10003C915197682F620F7727771F3617170677
:100E200014F4832F821B97AFEF01C05CDF4F880F54
:100E3000880F880F890F8883219680EF88835496C6
:100E40008D919C915597813F910508F48883EE5BC5
:100E5000FF4F56968C918083DF91CF9108950F9329
:100E6000FC01EB5BFF4F308131965081451730F428
:100E7000301738F0041728F080E013C03017D0F393
:100E8000FBCFFC01ED5BFF4F30818C5B9F4FFC0182
:100E90008081681740F481E0321718F081E026174E
:100EA00058F70F9108953217C8F3E6CF2F923F926B
:100EB0004F925F926F927F928F929F92AF92BF926A
:100EC000CF92DF92EF92FF920F931F93CF93DF9316
:100ED000EC014C0183E4880E911CF40110823297DE
:100EE00020805E01F4E4AF0EB11CF50120823FAC1E
:100EF0006E01F5E4CF0ED11CF601308235974080AB
:100F00007E01F6E4EF0EF11CF70140823496108169
:100F1000329760803196708032975080012F262D55
:100F2000472D652DCE010E942F07CD58DF4F81112F
:100F300014C01882DF91CF911F910F91FF90EF9015
:100F4000DF90CF90BF90AF909F908F907F906F90E9
:100F50005F904F903F902F90089581E088835520B7
:100F600011F0F4015082621410F4F501608237141C
:100F700010F4F60170821415E8F6F7011083DACF49
:100F80000F93DC01802FFD01ED58FF4F90819923D5
:100F9000E9F12223D9F1223020F0023079F56F5F98
:100FA000621B082F0170FD0180FD32C0EB5BFF4F1B
:100FB0008081481758F131968081481738F532976B
:100FC000908131978081260F2617F0F46917D8F4A5
:100FD0002FEF290F8217D0F4681708F4682F29170C
:100FE00008F4922F961BD696ED91FC91D79704802A
:100FF000F581E02D292FCD01099508C0033089F630
:101000004F5F421BCECF682F691720F30F910895D1
:10101000ED5BFF4F80816817C8F3319680816817B8
:10102000A8F73296908131978081240F241778F4A5
:10103000491760F42FEF290F821740F7481708F47B
:10104000482F291708F4922F941BCDCF482F49170A
:10105000E8F6F2CF213039F020F0223031F0840F61
:101060000895860F0895841B0895861B08952130E6
:1010700039F020F0223031F0861B0895840F089556
:10108000860F0895841B08955F926F927F928F92CE
:101090009F92AF92BF92CF92DF92EF92FF920F9307
:1010A0001F93CF93DF935C01162F642EEC01C15B7D
:1010B000DF4FDC80ED804C0189E7880E911CFE80BB
:1010C000FD18C12EF11608F4CF2C5B800C85202F63
:1010D0004E2D6D2D8A810E942A08782E202F4E2DAC
:1010E0006D2D852D0E943708482F662071F08A8566
:1010F000F40180832C2D672DC5010E94C0071F15A8
:1011000048F01F19E394D12CDACF89858111F7CFEC
:101110008B85EECF1D0D1C83ED82DF91CF911F914A
:101120000F91FF90EF90DF90CF90BF90AF909F9086
:101130008F907F906F905F900895DC0118964C918E
:101140001897ED91FC911197249130E0042E02C084
:10115000359527950A94E2F7842F860F883068F03A
:1011600031961196FC93EE93E49198E0941B01C0A4
:10117000EE0F9A95EAF72E2B885018968C938FEFE6
:101180009FEF01C0880F6A95EAF780958223089542
:10119000FC01E60FF11D849190E0982F882731968D
:1011A000E4918E0F911D08956F927F928F929F927E
:1011B000AF92BF92CF92DF92EF92FF920F931F9365
:1011C000CF93DF93EC01062F142F7901FC01E55A30
:1011D000FF4F8081813009F445C0D0F1823009F49D
:1011E0004BC0833009F452C0FE01EF5AFF4F008319
:1011F0003196108337978081918147962FEFE216C1
:10120000F10411F008F0E6C0E1E6EE16F10408F48E
:1012100047C0FE01E159FF4F20813181820F931FAA
:101220009C012F5F3F4FF9014491411142C0712C45
:10123000872DDF91CF911F910F91FF90EF90DF905D
:10124000CF90BF90AF909F908F907F906F900895B8
:10125000FE01E35BFF4F0190F081E02DCE01099587
:10126000180FC2CFFE01E35BFF4F0190F081E02D2C
:10127000CE010995081BB8CFFE01E35BFF4F01903B
:10128000F081E02DCE010995181BAECFFE01E35B86
:10129000FF4F0190F081E02DCE010995080FA4CFFA
:1012A000F1E4EF16F10408F4BBCFFE01E359FF4F60
:1012B000B3CFFC0144914E151F0409F086C002967D
:1012C000009709F4B4CF7E01FFE4EF0EF11CF701A3
:1012D00091838083108671966081C7010E949D086A
:1012E000F701868372966081C7010E949D08A82E2F
:1012F000F70187836E01F9E7CF0ED11CF6019081CB
:10130000F701928781E0911180E0F7018387FE0168
:10131000EE59FF4FB0806B2DC7010E949D08882EAB
:10132000FE01ED59FF4F1081612FC7010E949D08FA
:10133000982EFE01EC59FF4F0081602FC7010E94DB
:101340009D08015041E050E09A0101C0220F0A952A
:10135000EAF7782E721AF701068110160CF068CFA2
:10136000BA94CA0101C0880FBA94EAF7881AB48403
:101370009A0C115001C0440F1A95EAF7F42FF9198D
:101380009F2E2B2D4F2F682DF70182810E942A0856
:10139000182FF70182832B2D492D682D83810E9400
:1013A0003708F7018383F1E0BF1609F47CC0BF164C
:1013B00008F43FC022E0B21609F47BC093E0B916EE
:1013C00009F482C0082F212F38C0F9012491820F1F
:1013D000911D26CFFE01EF58FF4F00811181080FAC
:1013E000191F680160E0C6010E94C808080F191F94
:1013F00062E0C6010E94C808F4E0CF0ED11C8E1531
:101400009F0580F3F801849190E0982F882731960A
:10141000E4918E2B009709F40ACFE816F90619F427
:10142000C80103964DCFF8013296E4910E0F111DBD
:10143000E9CF202F210F082F0A0D482F612FCE0151
:101440000E942F07882309F4F3CEF7011482158236
:101450008E01025A1F4F4E01FFE58F0E911CF801BD
:101460006081C7010E949D08682EF4016081C70158
:101470000E949D08B82E40E0662DCE010E944408CF
:1014800041E06B2DCE010E94440861E0C7010E943B
:101490009D088111F0CFF70185818A1504F38285BB
:1014A000F6018083C5CEBA1821E0210F080F1B0D6D
:1014B000C4CF91E0392F301B21E0210F9A1901E0B0
:1014C000080F890F130FB9CF212F2A0D982F901BCA
:1014D00001E0080F81E0890FB0CFEF92FF921F93D8
:1014E000CF93DF931092A00689E8E82E81E0F82ED2
:1014F00010E0DAE0C0E0F70161917F01E0918A0637
:10150000F0918B0688E896E009958F3F9807F1F0F7
:101510008E3F2FEF920779F39C014D2F6C2F88E8B7
:1015200096E00E94D4089091E306913049F030F0A3
:10153000923041F0933041F0180FDDCFC80FFCCF4F
:10154000D80FFACFC81BF8CFD81BF6CF812FDF9169
:10155000CF911F91FF90EF900895AF92BF92CF92DD
:10156000DF92EF92FF920F931F93CF93DF9300D000
:1015700000D01F92CDB7DEB78C01DC01DA96AC90BB
:10158000DA97DB96EC90DB97ED91FC91B188FE2C1D
:10159000D12CC12CD801ED91FC9111978089D8965E
:1015A0002D913C911C82FD828B83B8E08B9FC00102
:1015B00011248C9DA0018D9D500D9C9D500D1124DA
:1015C000240F351F3A832983D8011496ED91FC919D
:1015D0009E012F5F3F4F41E06FE0C8010995F394F2
:1015E0008F2D8E198A1528F4BFEFCB1ADB0AFB1456
:1015F00088F20F900F900F900F900F90DF91CF9186
:101600001F910F91FF90EF90DF90CF90BF90AF9020
:101610000895CF93DF93EC01862F683109F461C000
:1016200038F4B901843199F0873159F080E006C06F
:10163000693109F478C06032C9F781E0DF91CF9158
:10164000089550E088E792E00E949E04F6CF8C85D2
:101650009D85AE85BF85892B8A2B8B2B71F4E88104
:10166000F981A585B0E020EA36E841E050E00E942B
:10167000B6106C877D878E879F871092FE0110922F
:10168000FD01109200021092FF011092490281E0C8
:1016900080934B0210924A0261E082E10E948A0329
:1016A00061E083E10E948A038091B9008E7F80937C
:1016B000B9008091B9008D7F8093B90088E4809350
:1016C000B80085E48093BC0082E794E09093220206
:1016D0008093210283E794E0909326028093250271
:1016E000ACCF2C853D854E855F8560E074E284EF4C
:1016F00090E00E94941020513109410951095695FA
:101700004795379527952093B8008E8990E0959559
:10171000879591E09093DC018093BA0110920002CA
:101720001092FF018ACF2091FF01213208F041C0C1
:10173000809149028111FCCF8091BA0192E090938F
:10174000490291E090934B029FEF909348021092D0
:101750006D0220936C02ACEBB1E0ECE4F2E090E0BF
:1017600029132EC010926E0290916E02880F892B61
:1017700080936E0280914A02813031F510924A02C4
:1017800080916E028093BB008091BC0083FDF8CFF6
:1017900085EC8093BC00809149028230E1F3809116
:1017A00048028F3F31F080914802803211F08091E1
:1017B0004802109200021092FF011092DC013DCF0E
:1017C0003D9131939F5FCCCF85EEE3CF0F931F9375
:1017D000CF93DF93EC01862F642F8C3208F03AC050
:1017E0008A3208F060C0883209F44BC0893209F4AB
:1017F00060C0803408F475C0982F9F73FE01E90F14
:10180000F11D868D8F3F09F44EC0903108F436C02B
:10181000282F30E0F901E255FF4F8491F901E65697
:10182000FF4F0491F901EA57FF4F1491112379F00A
:1018300081110E946103E12FF0E0EE0FFF1FE859D4
:10184000FF4FA591B491EC910E2381E009F480E063
:10185000898F29C08D3299F108F4CBCF94EB980F82
:10186000923008F0C6CF8F73C80FD11D8E8D4111F5
:1018700034C061E00E94B80360E08E8D0E948A034C
:1018800012C08E01025E1F4FD0E0F80181918F01DE
:101890008F3F31F061E0D03108F062E00E94B80380
:1018A000DF5FD63191F781E0DF91CF911F910F91EA
:1018B000089570E090E080E00E940E04F4CF85E08F
:1018C00090E0433010F082E090E0880F991F880F7D
:1018D000991F05970197F1F7E6CF62E00E94B803E0
:1018E000E2CF80E0E1CFCF92DF92EF92FF920F93B1
:1018F0001F93CF93DF936C01EB017B01E40EF51E88
:1019000010E000E0CE15DF0561F06991D601ED91A0
:10191000FC910190F081E02DC6010995080F191F77
:10192000F1CFC801DF91CF911F910F91FF90EF9000
:10193000DF90CF900895CF92DF92EF92FF920F93B6
:101940001F93CF93DF93EC016C0124E0C20ED11CF6
:10195000FC01E158FF4F0190F081E02DC60109958F
:101960008E3FEFEF9E07C8F48E010E571F4F7E018A
:10197000F1E8EF0EF11C9C01F8014081F701608154
:10198000C6010E94D408C15ADF4F98819130A9F056
:1019900078F09230A1F09330B9F081E090E0DF91DF
:1019A000CF911F910F91FF90EF90DF90CF9008950E
:1019B000F7019081890F8083F0CFF801FACFF7010A
:1019C0009081981B892FF7CFF801FACF089590E006
:1019D00080E00895FC01A081B18150962C9182ADE8
:1019E00038E0839FC0011124289FA001299F500D3A
:1019F000112470E060E080AD91AD0C94D6101F9280
:101A00000F920FB60F9211242F933F938F939F93B2
:101A1000AF93BF938091700290917102A091720276
:101A2000B091730230916F0223E0230F2D3758F5E8
:101A30000196A11DB11D20936F02809370029093B7
:101A40007102A0937202B09373028091740290911C
:101A50007502A0917602B09177020196A11DB11D89
:101A60008093740290937502A0937602B0937702EC
:101A7000BF91AF919F918F913F912F910F900FBE8A
:101A80000F901F90189526E8230F0296A11DB11DF7
:101A9000D2CF1F920F920FB60F9211242F933F9324
:101AA0004F935F936F937F938F939F93AF93BF9366
:101AB000EF93FF938091B900887F803609F44AC084
:101AC000F0F5883209F4A7C018F5803109F49BC0FD
:101AD000B8F4882309F4F9C0883009F494C0FF9160
:101AE000EF91BF91AF919F918F917F916F915F9196
:101AF0004F913F912F910F900FBE0F901F9018950F
:101B0000883109F488C0803251F78093480214C0AC
:101B1000803409F49DC040F48033B9F38833F9F67A
:101B20008093480285ECB0C0803509F485C08835C3
:101B300009F496C0883499F60E944104D0CF8839C0
:101B400009F48CC038F5883729F050F4883611F044
:101B5000803729F683E0809349021092470257C0EC
:101B6000883809F47BC0803919F0803809F0B7CF84
:101B700080914702803208F071C0E091470281E015
:101B80008E0F809347028091BB00F0E0E95DFD4F2E
:101B900080833DC0803B39F0E0F4803A09F479C09D
:101BA000883A09F09CCF84E0809349021092240285
:101BB00010922302E0912102F09122020995809176
:101BC000230281110FC081E0809323021092010251
:101BD00009C0803C09F4A6CF883C09F4A3CF883B18
:101BE00009F07DCFE091240281E08E0F80932402E2
:101BF000F0E0EF5FFD4F80818093BB009091240265
:101C00008091230229C080916E028093BB0085ECF5
:101C10008093BC0064CF90916D0280916C02981704
:101C200058F5E0916D0281E08E0F80936D02F0E037
:101C3000E45BFD4F8081E9CFE0916D0281E08E0F82
:101C400080936D028091BB00F0E0E45BFD4F8083E8
:101C500090916D0280916C029817C8F285E8D8CFF8
:101C6000E0916D0281E08E0F80936D028091BB0048
:101C7000F0E0E45BFD4F808380914B0281115CCFEB
:101C800081E080934A0284EA8093BC00109249026A
:101C900026CF85EC8093BC001092490280914702C8
:101CA000803230F4E0914702F0E0E95DFD4F1082B0
:101CB0006091470270E0E0912502F091260287E2F0
:101CC00092E00995109247020ACF1092480234CF51
:101CD000CF9310927B0210927A0288EE93E0A0E0FC
:101CE000B0E080937C0290937D02A0937E02B0933B
:101CF0007F0289E691E090937902809378021092B6
:101D000087061092860683ED92E0909304078093F5
:101D1000030710920507109206071092A0068BE7A2
:101D200091E0909385068093840610928906109224
:101D3000880610929D0610929406109295061092B5
:101D40009606109297068FEF80939E068093A206C8
:101D5000E6EAF6E08CEB96E0CFEFC1938E179F0793
:101D6000E1F781E895E090938D0680938C0686E7F5
:101D700096E090938F0680938E0689E09BE0909387
:101D800091068093900686EE9BE090939306809355
:101D9000920630E020E040E069E088E896E00E94AA
:101DA00081051092D4061092D3068DED92E09093A7
:101DB000BD068093BC0684E892E09093C1068093B0
:101DC000C00688E08093C2061092C3061092E00617
:101DD0001092000781E0809301078093020783E857
:101DE00091E09093BF068093BE0688E896E00E943B
:101DF000EC061092CF061092D106C093D006C09385
:101E0000D206E091BE06F091BF060280F381E02D7C
:101E100088E896E0099580E493E09093D606809355
:101E2000D5061092E306C093B10683E18093B20613
:101E300082E18093B306CF910895789484B582604F
:101E400084BD84B5816084BD85B5826085BD85B55E
:101E5000816085BD80916E00816080936E001092DC
:101E60008100809181008260809381008091810057
:101E700081608093810080918000816080938000E8
:101E80008091B10084608093B1008091B000816046
:101E90008093B00080917A00846080937A00809172
:101EA0007A00826080937A0080917A0081608093CA
:101EB0007A0080917A00806880937A001092C10045
:101EC000E0918C06F0918D0630E020E040E06AE081
:101ED00088E896E0099580910207882321F088E838
:101EE00096E00E94EA0C80E00E94420388E896E0B7
:101EF0000E94AD0AC091C3068091C206C80FE0914E
:101F00008806F09189068189C81708F4E8C088E836
:101F100096E00E94010580E00E944203E0918C0659
:101F2000F0918D0630E020E040E06BE088E896E03C
:101F3000099557EC252E50E0352E68EC462E60E0D2
:101F4000562EC2ECD0E089EC682E80E0782E0AECA8
:101F500010E09BECE92E90E0F92E2CECC22E20E054
:101F6000D22E3DECA32E30E0B32E4EEC842E40E07A
:101F7000942E88E896E00E94EA0C8091D306909116
:101F8000D406825C904009F48CC0D093D406C093F0
:101F9000D306E2ECF0E084918093E406E3ECF0E019
:101FA00084918093E506E4ECF0E084918093E6066A
:101FB000E5ECF0E084918093E706E6ECF0E08491B4
:101FC0008093E806F10184918093E906F2018491FF
:101FD0008093EA06F30184918093EB06F8018491E3
:101FE0008093EC06F70184918093ED06F6018491CD
:101FF0008093EE06F50184918093EF06F4018491BD
:102000008093F006EFECF0E0E491E093F106E0ED70
:10201000F0E0E491E093F206E1EDF0E0E491E0938A
:10202000F306E2EDF0E0E491E093F40661E182EC86
:1020300090E00E94C8089093F6068093F50663E14D
:1020400082EC90E00E94C8089093F8068093F7060F
:1020500065E182EC90E00E94C8089093FA068093B4
:10206000F9068091D3069091D406892BD1F0809106
:10207000F1068093FD064091F2064093FE06909192
:10208000FC06992371F09130A1F59091F306891720
:1020900014F49093FD068091F406841714F4809351
:1020A000FE0683ED92E090938B0680938A060E9451
:1020B0006D0A88E896E00E94AD0A88E896E00E94E2
:1020C000010568EE73E080E090E00E940E0480E07D
:1020D00090E0892B09F44DCF0E94000034CF80910D
:1020E0000207882321F088E896E00E94EA0C8C2FF2
:1020F000FBCE3091EE062091F006082E000C990BD5
:10210000622F022E000C770B630F711D37FD7A953D
:10211000861797071CF4320F3093FD0624170CF036
:10212000C0CF2093FE06BDCFA1E21A2EAA1BBB1B77
:10213000FD010DC0AA1FBB1FEE1FFF1FA217B30793
:10214000E407F50720F0A21BB30BE40BF50B661FA9
:10215000771F881F991F1A9469F76095709580956D
:1021600090959B01AC01BD01CF0108950E94C7105D
:10217000A59F900DB49F900DA49F800D911D1124DB
:102180000895EE0FFF1F0590F491E02D0994A29F92
:10219000B001B39FC001A39F700D811D1124911D3B
:1021A000B29F700D811D1124911D0895DC0101C0A5
:0E21B0006D9341505040E0F70895F894FFCF32
:1021BE001815A015C019FF1815A115C819FF181567
:1021CE00AE19FF1815AF19FF1815AE15D5168015D7
:1021DE00A8163F15D316001540158D16141520168A
:1021EE000015A115C815DA1612158116CF15D916B8
:1021FE00F115DB1640152E15A415A619FF000114B6
:10220E000A6464323200127A000004289610080024
:10221E00008000400000000000CB049E04E70C7418
:10222E0004970484047504000000009B0C730CE7F3
:10223E000CE60CEC065607E00648656C6C6F2057F2
:06224E006F726C642100B8
:107E0000112484B714BE81FFF0D085E080938100F7
:107E100082E08093C00088E18093C10086E0809377
:107E2000C20080E18093C4008EE0C9D0259A86E02C
:107E300020E33CEF91E0309385002093840096BBD3
:107E4000B09BFECF1D9AA8958150A9F7CC24DD24C4
:107E500088248394B5E0AB2EA1E19A2EF3E0BF2EE7
:107E6000A2D0813461F49FD0082FAFD0023811F036
:107E7000013811F484E001C083E08DD089C08234E0
:107E800011F484E103C0853419F485E0A6D080C0E4
:107E9000853579F488D0E82EFF2485D0082F10E0AE
:107EA000102F00270E291F29000F111F8ED06801E7
:107EB0006FC0863521F484E090D080E0DECF843638
:107EC00009F040C070D06FD0082F6DD080E0C81688
:107ED00080E7D80618F4F601B7BEE895C0E0D1E017
:107EE00062D089930C17E1F7F0E0CF16F0E7DF06D8
:107EF00018F0F601B7BEE89568D007B600FCFDCFD4
:107F0000A601A0E0B1E02C9130E011968C91119780
:107F100090E0982F8827822B932B1296FA010C0160
:107F200087BEE89511244E5F5F4FF1E0A038BF0790
:107F300051F7F601A7BEE89507B600FCFDCF97BE46
:107F4000E89526C08437B1F42ED02DD0F82E2BD052
:107F50003CD0F601EF2C8F010F5F1F4F84911BD097
:107F6000EA94F801C1F70894C11CD11CFA94CF0C13
:107F7000D11C0EC0853739F428D08EE10CD085E9AC
:107F80000AD08FE07ACF813511F488E018D01DD067
:107F900080E101D065CF982F8091C00085FFFCCF94
:107FA0009093C60008958091C00087FFFCCF809118
:107FB000C00084FD01C0A8958091C6000895E0E648
:107FC000F0E098E1908380830895EDDF803219F02E
:107FD00088E0F5DFFFCF84E1DECF1F93182FE3DFCA
:107FE0001150E9F7F2DF1F91089580E0E8DFEE27F6
:047FF000FF270994CA
:027FFE00040479
:0400000300007E007B
:00000001FF
