:100000000C944D050C9475050C9475050C947505B0
:100010000C9475050C9475050C9475050C94750578
:100020000C9475050C9475050C9475050C94750568
:100030000C9475050C9475050C9475050C94750558
:100040000C94BF120C9475050C948D120C946712CD
:100050000C9475050C9475050C9475050C94750538
:100060000C9409130C94750500000000003E5B4FD2
:100070005B3E3E6B4F6B3E1C3E7C3E1C183C7E3C08
:10008000181C577D571C1C5E7F5E1C00183C180016
:10009000FFE7C3E7FF0018241800FFE7DBE7FF30A6
:1000A000483A060E2629792926407F050507407F14
:1000B00005253F5A3CE73C5A7F3E1C1C08081C1C87
:1000C0003E7F14227F22145F5F005F5F06097F017D
:1000D0007F006689956A606060606094A2FFA29468
:1000E00008047E040810207E201008082A1C080836
:1000F0001C2A08081E101010100C1E0C1E0C303884
:100100003E3830060E3E0E06000000000000005F84
:1001100000000007000700147F147F14242A7F2AA0
:100120001223130864623649562050000807030062
:10013000001C2241000041221C002A1C7F1C2A08AE
:10014000083E080800807030000808080808000011
:1001500060600020100804023E5149453E00427F85
:10016000400072494949462141494D331814127FD4
:100170001027454545393C4A494931412111090774
:100180003649494936464949291E000014000000F5
:1001900040340000000814224114141414140041C7
:1001A00022140802015909063E415D594E7C121184
:1001B000127C7F494949363E414141227F414141BC
:1001C0003E7F494949417F090909013E4141517337
:1001D0007F0808087F00417F41002040413F017FA8
:1001E000081422417F404040407F021C027F7F0470
:1001F00008107F3E4141413E7F090909063E4151B9
:10020000215E7F09192946264949493203017F01A8
:10021000033F4040403F1F2040201F3F4038403FA9
:10022000631408146303047804036159494D4300BF
:100230007F4141410204081020004141417F0402F6
:10024000010204404040404000030708002054548D
:1002500078407F284444383844444428384444286B
:100260007F385454541800087E090218A4A49C78BE
:100270007F0804047800447D40002040403D007F1A
:100280001028440000417F40007C047804787C08FA
:100290000404783844444438FC18242418182424CE
:1002A00018FC7C08040408485454542404043F44B3
:1002B000243C4040207C1C2040201C3C4030403CE2
:1002C00044281028444C9090907C4464544C440042
:1002D00008364100000077000000413608000201A6
:1002E0000204023C2623263C1EA1A161123A404092
:1002F000207A38545455592155557941225454780F
:1003000042215554784020545579400C1E527212A7
:100310003955555559395454545939555454580030
:1003200000457C410002457D420001457C407D1234
:1003300011127DF0282528F07C5455450020545496
:100340007C547C0A097F4932494949323A44444441
:100350003A324A4848303A4141217A3A424020787C
:10036000009DA0A07D3D4242423D3D4040403D3C7D
:1003700024FF2424487E4943662B2FFC2F2BFF09A2
:1003800029F620C0887E0903205454794100004496
:100390007D413048484A32384040227A007A0A0A81
:1003A000727D0D19317D2629292F282629292926F4
:1003B00030484D4020380808080808080808382F39
:1003C00010C8ACBA2F102834FA00007B00000814C3
:1003D0002A142222142A14085500550055AA55AA99
:1003E00055AAFF55FF55FF000000FF00101010FF39
:1003F00000141414FF001010FF00FF1010F010F094
:10040000141414FC001414F700FF0000FF00FF1484
:1004100014F404FC141417101F10101F101F1414D0
:10042000141F00101010F0000000001F101010101A
:100430001F10101010F010000000FF10101010100E
:1004400010101010FF10000000FF140000FF00FF4C
:1004500000001F10170000FC04F4141417101714E8
:1004600014F404F40000FF00F7141414141414140A
:10047000F700F7141414171410101F101F1414147D
:10048000F4141010F010F000001F101F0000001FE7
:1004900014000000FC140000F010F01010FF10FF1A
:1004A000141414FF141010101F00000000F010FFAF
:1004B000FFFFFFFFF0F0F0F0F0FFFFFF0000000093
:1004C00000FFFF0F0F0F0F0F3844443844FC4A4A17
:1004D0004A347E02020606027E027E0263554941CC
:1004E000633844443C04407E201E2006027E020203
:1004F00099A5E7A5991C2A492A1C4C7201724C3017
:100500004A4D4D303048784830BC625A463D3E49ED
:100510004949007E0101017E2A2A2A2A2A44445F91
:10052000444440514A444040444A51400000FF0185
:1005300003E080FF000008086B6B08361236243693
:10054000060F090F060000181800000010100030F8
:1005500040FF0101001F01011E00191D1712003C80
:100560003C3C3C0000000000000103070F1F3F7FE0
:100570000080C0E0F0F8FCFE00000008000201006E
:10058000000304070000000000000000DB40A4A6F8
:100590002EAF2000A1C8D300408DAED580A80000AA
:1005A000600000000000000000000000000000E00B
:1005B0000000000000000000000000000001E0005A
:1005C00000000000000000000000000001F000003A
:1005D000000000000000000000000003F000000028
:1005E0000000000000000000000007F00000000014
:1005F00000000000000000000007F80000000000FC
:1006000000000000000000000FF800000003C00020
:100610007E000001E0007F0FF800000003C000FE34
:10062000000001E000FFEFF800000003C000FE0042
:100630000001E000FFFFF800000003C000F0000030
:10064000000F007FFE7FC0000003C000F00000002C
:100650000F003FFE7FF83FF1FBCFFCFEF3BC3DEF08
:10066000E01FFE7FFF7FFBFFDFFEFEFFBC3DEFE0F4
:100670001FC6FFFF7FFBFFDFFEFEFFBC3DEFE00F6D
:10068000E3C7FE787BC3DE1EF0FFBC3DEF0007FF33
:1006900087FC787BC3DE1EF0F83C3DEF0001FFFFD6
:1006A000F0007BC3C01EF0F03C3DEF0001F37FE0A3
:1006B0003FFBC3CFFEF0F03C3DEF0003E33F807F04
:1006C000FBC3DFFEF0F03C3DEF0007E73C00787B2A
:1006D000C3DE1EF0F03C3DEF0007FFBE00787BC399
:1006E000DE1EF0F03C3DEF0007FFFE00787BC3DE2E
:1006F0001EF0F03C3DEF000FFFFE007FFBFFDFFE32
:10070000F0F03FFDEFE00FFFFF007FFBFFDFFEF0AB
:10071000F03FFDEFE00FF9FF003E79F9CF9EF0F0DA
:100720001F3DE7E01FF1FF00000000000000000097
:100730000000001F80FF007FFFFFFFFFFFFFFFFFA4
:10074000FFE01C007F007FFFFFFFFEB46D888D1867
:10075000E000001F007FFFFFFFFE95AD7DB577E055
:1007600000000F007FFFFFFFFEA5AD9D8D19E0008B
:100770000006007FFFFFFFFEB5ADEDB57EE0000097
:100780000000000180000000000000000000038065
:1007900000000000000000000007C0000000000092
:1007A0000000000007C00000000000000000000F73
:1007B000C00000000000000000001FE0000000007A
:1007C00000000000001FE00000000000000000002A
:1007D0003FE00000000000000000003FF0000000CB
:1007E0000000000000007FF0000000000000001F7B
:1007F000F87FF0000000000000003FFE7FF00000E6
:1008000000000000003FFF7FF0000000000000003B
:100810001FFFFBE0000000000000000FFFF9FFC019
:100820000000000000000FFFF9FFF80000000000CA
:100830000007FFF1FFFF00000000000003FC73FF52
:10084000FF80000000000001FE3FFFFF800000006D
:10085000000000FF1E0FFF000000000000007FFEF0
:100860001FFC000000000000003FFFFFF800000038
:10087000000000000FDFFFE0000000000000001F8C
:1008800019FFC0000000000000003F3CFF00000016
:1008900000000000007E7CF8000000000000000066
:1008A0007FFE7C0000000000000000FFFFFC000055
:1008B000000000000000FFFFFE000000000000003C
:1008C00000FFFFFE0000000000000001FFEFFE003F
:1008D00000000000000001FFCFFE0000000000004B
:1008E0000003FF07FE0000000000000003FC07FEFD
:1008F0000000000000000003F003FE000000000004
:100900000000018000FE0000000000000000000068
:100910007E000000000000000000003E000000001B
:100920000000000000000C00000000000007800034
:10093000FC000003C0000000078001FC000003C0B1
:10094000000000078001FC000003C00000000780D9
:1009500001E00000001E000000078001E000000030
:100960001E007FE3F79FF9FDE7787BDFC0FFF7FF0D
:10097000BFFDFDFF787BDFC0FFF7FFBFFDFDFF7808
:100980007BDFC0F0F787BC3DE1FF787BDE00F0F74E
:1009900087BC3DE1F0787BDE0000F787803DE1E039
:1009A000787BDE007FF7879FFDE1E0787BDE00FF4C
:1009B000F787BFFDE1E0787BDE00F0F787BC3DE123
:1009C000E0787BDE00F0F787BC3DE1E0787BDE007D
:1009D000F0F787BC3DE1E0787BDE00FFF7FFBFFD6D
:1009E000E1E07FFBDFC0FFF7FFBFFDE1E07FFBDF62
:1009F000C07CF3F39F3DE1E03E7BCFC000000000F0
:100A000000000000000000FFFFFFFFFFFFFFFFFFEF
:100A1000FFC0FFFFFFFFFD68DB111A31C0FFFFFFC2
:100A2000FFFD2B5AFB6AEFC0FFFFFFFFFD4B5B3B57
:100A30001A33C0FFFFFFFFFD6B5BDB6AFDC02200C6
:100A4000FF21005353443133303620EC97B0EAB2E3
:100A5000B020EC8BA4ED8CA800000000002500283D
:100A6000002B0000000000240027002A00040404DA
:100A70000404040404020202020202030303030347
:100A80000301020408102040800102040810200124
:100A90000204081020002814EA1811241FBECFEF0A
:100AA000D8E0DEBFCDBF11E0A0E0B1E0EEEBF4E3B3
:100AB00002C005900D92AE36B107D9F723E0AEE63D
:100AC000B1E001C01D92A931B207E1F715E0CCE415
:100AD000D5E004C02197FE010E941B19CB34D10739
:100AE000C9F70E94AB140C94521A0C94000090E0C9
:100AF000FC01EF57F54F24918359954FFC018491E8
:100B0000882399F090E0880F991FFC01ED59F54F6B
:100B1000A591B491FC01E75AF54F859194918FB757
:100B2000F894EC91E22BEC938FBF0895089508950B
:100B30000895AF92BF92CF92DF92EF92FF920F9300
:100B40001F93CF93DF936C017B018B01040F151F63
:100B5000EB015E01AE18BF08C017D10759F06991CB
:100B6000D601ED91FC910190F081E02DC60109952F
:100B7000892B79F7C501DF91CF911F910F91FF90DC
:100B8000EF90DF90CF90BF90AF900895FC01538D10
:100B9000448D252F30E0842F90E0821B930B541757
:100BA00010F0CF96089501970895FC01918D828DE4
:100BB000981761F0A28DAE0FBF2FB11D5D968C917D
:100BC000928D9F5F9F73928F90E008958FEF9FEFBC
:100BD0000895FC01918D828D981731F0828DE80F78
:100BE000F11D858D90E008958FEF9FEF0895FC0132
:100BF000918D228D892F90E0805C9F4F821B9109FF
:100C00008F73992708958CE292E00E94F70521E006
:100C1000892B09F420E0822F089580E090E0892B51
:100C200029F00E94030681110C9400000895FC0134
:100C3000A48DA80FB92FB11DA35ABF4F2C91848D3D
:100C400090E001968F739927848FA689B7892C939A
:100C5000A089B1898C91837080648C93938D848DED
:100C6000981306C00288F389E02D80818F7D8083F0
:100C70000895EF92FF920F931F93CF93DF93EC01B0
:100C800081E0888F9B8D8C8D98131AC0E889F98933
:100C9000808185FF15C09FB7F894EE89FF89608336
:100CA000E889F98980818370806480839FBF81E0B7
:100CB00090E0DF91CF911F910F91FF90EF900895F9
:100CC000F62E0B8D10E00F5F1F4F0F731127E02ED4
:100CD0008C8D8E110CC00FB607FCFACFE889F9890C
:100CE000808185FFF5CFCE010E941706F1CFEB8DF5
:100CF000EC0FFD2FF11DE35AFF4FF0829FB7F894E0
:100D00000B8FEA89FB8980818062CFCFCF93DF93FD
:100D1000EC01888D8823B9F0AA89BB89E889F98913
:100D20008C9185FD03C0808186FD0DC00FB607FC48
:100D3000F7CF8C9185FFF2CF808185FFEDCFCE017B
:100D40000E941706E9CFDF91CF91089590E0FC0152
:100D5000E858FA4F2491FC01EF57F54F3491FC010C
:100D6000E359F54FE491EE23C9F0222339F0233003
:100D700001F1A8F4213019F1223029F1F0E0EE0F51
:100D8000FF1FE75AF54FA591B4918FB7F894EC91F6
:100D9000611126C030953E233C938FBF08952730C4
:100DA000A9F02830C9F0243049F7809180008F7D68
:100DB00003C0809180008F7780938000DFCF84B55F
:100DC0008F7784BDDBCF84B58F7DFBCF8091B00062
:100DD0008F778093B000D2CF8091B0008F7DF9CF14
:100DE0003E2BDACF3FB7F89480911A0290911B0204
:100DF000A0911C02B0911D0226B5A89B05C02F3FF3
:100E000019F00196A11DB11D3FBFBA2FA92F982F30
:100E10008827BC01CD01620F711D811D911D42E02B
:100E2000660F771F881F991F4A95D1F708958F92F3
:100E30009F92AF92BF92CF92DF92EF92FF924B01BF
:100E40005C010E94F2066B017C010E94F2066C19A3
:100E50007D098E099F09683E734081059105A8F3BD
:100E600021E0821A9108A108B10888EEC80E83E03B
:100E7000D81EE11CF11C81149104A104B10429F7CE
:100E8000FF90EF90DF90CF90BF90AF909F908F90AA
:100E90000895EF92FF920F931F93CF93DF93EC018E
:100EA000EC80FD806E157F050CF070C057FF04C00C
:100EB000240F351F50E040E08E819F81FA01E20F40
:100EC000F31F8E179F071CF49C01241B350B121671
:100ED00013060CF05BC0922F842F8695869586951D
:100EE0008E9DD0018F9DB00D11246A0F7B1FAF8D99
:100EF000B8A1A60FB71F477049F188E0841B482F9F
:100F0000682F70E0FB01E059FA4FE491281708F0D0
:100F100063C0621B71092FEF30E002C03595279541
:100F20006A95E2F7E2230130110539F0B0F10230A1
:100F3000110561F58C91E82702C08C91E82BEC93A8
:100F4000941720F12C813D81A20FB31FE92FE41BE0
:100F5000E83078F00230110521F58E2F9C919095A4
:100F60009C932C813D81A20FB31F88508830B0F72D
:100F7000E770EE2359F0F0E0E859FA4FE4910130C0
:100F80001105F9F010F10230110519F1DF91CF913F
:100F90001F910F91FF90EF900895E0958C91E823B9
:100FA000CECF81E00115110509F480E081959E2FD7
:100FB0008C932C813D81A20FB31F98509830C0F7BD
:100FC000D7CF8C91E82BEC93E1CFE0958C91E8237F
:100FD000FACF8C91E827F7CF0130110509F4ADCF96
:100FE000E0F20230110509F4A5CFAE0DBF1DAECF62
:100FF0000F931F93CF93DF9377FF04C0260F371F04
:1010000070E060E0DC011496CD91DC91FB01E20F11
:10101000F31FCE17DF071CF49E01261B370B121699
:1010200013064CF5FA0157FD3796A3E0F595E795C1
:10103000AA95E1F7EC9FD001ED9FB00DFC9FB00D9C
:1010400011246A0F7B1FDC015F96ED91FC91E60F86
:10105000F71F4770552781E090E001C0880F4A953F
:10106000EAF7482F0130110559F0A8F02E0F3F1F65
:1010700002301105E1F0DF91CF911F910F9108959A
:101080002E0F3F1FE217F307B1F38191DF01119794
:10109000842B8C93F7CF80952E0F3F1FE217F30719
:1010A00051F39191DF01119798239C93F7CFE217A9
:1010B000F30709F38191DF01119784278C93F7CF10
:1010C0000F931F93FA01DC0156964C9156974230CC
:1010D000E9F04330A1F1413061F514964D915C91F6
:1010E000DA01AE1BBF0BFD01E21BF30B77FD0BC05A
:1010F000DC0116964D915C916417750724F4AB01E1
:10110000BF010E94F8071F910F91089514964D9109
:101110005C91DA01A61BB70BBD0161507109DC01BE
:1011200016964D915C91DA01AE1BBF0BFD01E21BDF
:10113000F30B77FDE8CFAF010E944907E4CF169685
:101140004D915C91DA01A61BB70BBD01615071098D
:10115000CDCF0F931F93FA01DC0156964C91569711
:101160004230A9F0433091F1413019F514964D9178
:101170005C91DA01AE1BBF0BFD013197F7FD04C096
:10118000AB01BF010E9449071F910F91089514966A
:101190004D915C91DA01A61BB70BBD01DC011696DF
:1011A0004D915C91DA01AE1BBF0BFD013197621BC3
:1011B000730BF7FDE9CFDC0116964D915C91E417B6
:1011C000F50714F7AF010E94F807DECF16964D9190
:1011D0005C91DA01A61BB70BBD01621B730BCECF6E
:1011E000FC0177FD64C080859185681779070CF054
:1011F0005EC057FD5CC082859385481759070CF087
:1012000056C086898230B1F0833029F1813041F4B3
:1012100084819581841B950BAB01BC0161507109E0
:101220002130310509F108F443C02230310509F4B9
:1012300063C0089584819581DC01A61BB70BBD01B5
:101240006150710986819781DC01A41BB50BAD014A
:1012500041505109E5CF86819781861B970BBA01D2
:10126000AC0141505109DCCFCA0157FD0796A3E0FC
:1012700095958795AA95E1F7A481B5818A9F9001FC
:101280008B9F300D9A9F300D1124620F731F078CB6
:10129000F0A1E02DE60FF71F4770552721E030E061
:1012A00001C0220F4A95EAF78081822B808308953E
:1012B000CA0157FD079633E0959587953A95E1F772
:1012C000A481B5818A9F90018B9F300D9A9F300D2C
:1012D0001124620F731F078CF0A1E02DE60FF71F9A
:1012E0004770552781E090E001C0880F4A95EAF7E2
:1012F000809590818923DACFCA0157FD079623E0B4
:10130000959587952A95E1F7A481B5818A9F9001EB
:101310008B9F300D9A9F300D1124620F731F078C25
:10132000F0A1E02DE60FF71F4770552721E030E0D0
:1013300001C0220F4A95EAF780818227B7CF08952E
:101340008EBD00000DB407FEFDCF8EB508958CBD97
:101350009DBD08950895FC016370668B848195811D
:1013600026813781613039F0633029F09187808799
:10137000338722870895318720879387828708954E
:101380002F923F924F925F926F927F928F929F9295
:10139000AF92BF92CF92DF92EF92FF920F931F9383
:1013A000CF93DF93CDB7DEB76A970FB6F894DEBF61
:1013B0000FBECDBF9A8F898F7A8369834A01D22E5F
:1013C00018870F833701BC2CDC0159962D913C9175
:1013D0005A972115310509F015C118968D919C91E8
:1013E0001997681779070CF0D7C11A968D919C91BF
:1013F000481759070CF0D0C14C2C512CB6E0CB9EAD
:10140000600D711D11247C876B87161617060CF072
:10141000C3C1EA2DF0E0FA87E98793E0EE0FFF1FE2
:101420009A95E1F7F88BEF87CF01840F951F181677
:1014300019060CF0B1C1A98DBA8D58968C91811105
:1014400004C0BFEABD1508F4D394A98DBA8DED91FF
:10145000FC9111970284F385E02DCD010995B5E04B
:10146000DB9EC0011124E981FA81FC83EB83312CDE
:10147000212C9C0128593F4F388F2F8B4A2D50E04B
:101480005E8B4D8BEF89F88DE20DF31D44919E82AA
:101490008D82D12CC12C69817A81620D731D7A8B6A
:1014A000698B842F90E09C8B8B8BE98DFA8DA081CA
:1014B000B18140FF82C0F1E0BF126FC0AF126DC0BA
:1014C0001C96ED91FC912F813885A4014C0D5D1D7A
:1014D00069897A89898D9A8D0995EB89FC89F595B9
:1014E000E7954E2F5FEFC51AD50A6D817E818D89F4
:1014F0009E89680F791F7E836D8398E0C916D10499
:1015000081F6AFEF2A1A3A0AEB81FC81E40DF51D52
:10151000FC83EB83F5E02F16310409F0B3CF2F8164
:10152000388526153705B9F0A98DBA8DED91FC9156
:10153000B1E0BB1257C0AB1255C069817A816B5FB5
:101540007F4F0088F189E02D830128E030E0A4017D
:10155000898D9A8D0995A98DBA8DED91FC91119780
:101560000688F789E02DCD016A960FB6F894DEBFA4
:101570000FBECDBFDF91CF911F910F91FF90EF90E4
:10158000DF90CF90BF90AF909F908F907F906F90A3
:101590005F904F903F902F9009941E96ED91FC9193
:1015A000EF80F88409851A8592014D815E816B81F7
:1015B0007C81898D9A8D099590CF2F81388526154C
:1015C000370509F48ACF31E0B31207C0A31205C072
:1015D0001C96ED91FC91930178CF1E96ED91FC91B4
:1015E0007301E0CF6B857C85641975090684F785E6
:1015F000E02D73010F8518899201A401898D9A8DC0
:101600000995A9CFF9013496949132974591549157
:10161000D91AB7E0DB9E400D511D1124F901259127
:1016200034913C8B2B8BFA0125903490FA01329641
:10163000749031963491398B3296649031964490FF
:1016400041E04C1518F04A1508F07FC0662D062CB5
:10165000000C770B7C836B83842D042C000C990B7E
:101660009E838D83A98DBA8DED91FC911197028493
:10167000F385E02DCD010995512CD12CC12CEA2DFB
:10168000F0E0FA87E9872B2D30E03C872B87A40117
:10169000440D511D47FC5A95588F4F8B69817A81B3
:1016A000660D711D67FC7A957E876D877989C716EF
:1016B00008F051CF2C2D30E04D815E81420F531F39
:1016C000A985BA854A9FC0014B9F900D5A9F900DE6
:1016D0001124FC01E80DF91DF88BEF87852D612C95
:1016E0004F89588D420F531F5E8B4D8B671408F046
:1016F00050C044244394480E877041F4C1010196C0
:10170000EB89FC89E20DF31DD4901C01D7FE19C0B2
:10171000A98DBA8DED91FC91662D70E0B1E0BB1200
:1017200019C0AB1217C02D853E85620F731F04844C
:10173000F585E02D2F8138854D895E89898D9A8DBB
:101740000995DD0C6394842DD1CF1E821D821C82ED
:101750001B8288CF4B815C81640F751FAB85BC8574
:101760006A9FC0016B9F900D7A9F900D1124698133
:101770007A81680F791F0684F785E02DEF80F88461
:1017800009851A859D014F855889898D9A8D0995FE
:10179000D8CF570CC3948ACF6A960FB6F894DEBFA1
:1017A0000FBECDBFDF91CF911F910F91FF90EF90B2
:1017B000DF90CF90BF90AF909F908F907F906F9071
:1017C0005F904F903F902F9008958F929F92AF928D
:1017D000CF92EF92FF920F931F93CF93DF93EC0181
:1017E000262F898D9A8D009709F051C06A30D1F467
:1017F0001D861C868D8948E0849F900111248E856A
:101800009F85820F931F9F878E8781E090E0DF91F5
:10181000CF911F910F91FF90EF90CF90AF909F903D
:101820008F9008956D3089F3CC88AD888F89882397
:10183000C1F08C859D8536E0C39E800D911D1124DD
:10184000488559854817590764F44E855F851D867C
:101850001C8638E0A39EC0011124840F951F9F872A
:101860008E87EA88FB88088919894E855F856C8593
:101870007D85CE010E94C0092C898C859D8546E01E
:10188000249F800D911D11249D878C87BECF6A30C7
:1018900069F41D861C86FC013896E4912D898E859D
:1018A0009F85E29F800D911D1124ADCF6D3009F40D
:1018B000ACCFFC0134963491631708F4A6CF32966E
:1018C000E491E61708F4A1CFFC013296859094903C
:1018D000462F431B342F47E0349F800C911C11246A
:1018E000F401329634913196E4913323A9F1EE2339
:1018F00099F1CC88F4013596E491AD884F89442361
:1019000001F10E2E000CFF0BE30FF11DCE9EA00186
:10191000CF9E500D11246C857D85460F571F68851D
:101920007985641775076CF44E855F851D861C8666
:10193000FC013896E491AE9E400D511D11245F8745
:101940004E87EA88FB88088919894E855F856C85F2
:101950007D85CE010E94C009F4013496E4912C8962
:101960008C859D85E29F800D911D11248DCF6F92F6
:101970007F928F929F92AF92BF92CF92DF92EF921F
:10198000FF920F931F93CF93DF93EC016B015A01EA
:1019900039014801E881F9810284F385E02D099538
:1019A000E881F9810288F389E02D87019301A5017F
:1019B000B601CE010995A501480D591D41505109A7
:1019C000E881F9810288F389E02D9301B601CE0107
:1019D0000995E881F9810088F189E02D9401A5013C
:1019E000B601CE010995C60CD71CB601615071092C
:1019F000E881F9810088F189E02D9401A501CE01EB
:101A00000995E881F9810688F789E02DCE01DF91FB
:101A1000CF911F910F91FF90EF90DF90CF90BF90EB
:101A2000AF909F908F907F906F9009946F927F926C
:101A30008F929F92AF92BF92CF92DF92EF92FF92DE
:101A40000F931F93CF93DF935C01EB016A01490170
:101A500038018701DC01ED91FC916217730719F5DC
:101A6000641675062CF0962D872D3A01C92ED82EB6
:101A70009601261937092F5F3F4F048CF58DE02D15
:101A8000A301BE01C5010995DF91CF911F910F916F
:101A9000FF90EF90DF90CF90BF90AF909F908F908E
:101AA0007F906F9008954615570591F426173707D4
:101AB00024F0892D4B01C22FD82F9E0128193909F6
:101AC0002F5F3F4F068CF78DE02DA601B401DACFD2
:101AD0000284F385E02D0995D501ED91FC910488F0
:101AE000F589E02D83019401A601BE01C501099588
:101AF000D501ED91FC910688F789E02DC501DF91B4
:101B0000CF911F910F91FF90EF90DF90CF90BF90FA
:101B1000AF909F908F907F906F900994EF92FF927B
:101B20000F931F93DC011A960D911C911B97189629
:101B30002D913C911997ED91FC9100A0F1A1E02D20
:101B40007B0150E040E070E060E009951F910F914B
:101B5000FF90EF9008954F925F926F927F928F92D5
:101B60009F92AF92BF92CF92DF92EF92FF920F932C
:101B70001F93CF93DF936C012B015A013901480168
:101B8000DC01ED91FC910284F385E02D0995E201E1
:101B9000640C751CD601ED91FC91C615D7055CF45B
:101BA0000088F189E02D87019401A501BE01C601DD
:101BB00009952196EFCF0688F789E02DC601DF91C0
:101BC000CF911F910F91FF90EF90DF90CF90BF903A
:101BD000AF909F908F907F906F905F904F900994FF
:101BE0008F929F92AF92BF92CF92DF92EF92FF922D
:101BF0000F931F93CF93DF93EC015B014A016901BF
:101C0000E881F9810284F385E02D099595012C0D79
:101C10003D1D21503109E881F9810488F589E02DC5
:101C200078018401A401B501CE010995E881F9810B
:101C30000688F789E02DCE01DF91CF911F910F919A
:101C4000FF90EF90DF90CF90BF90AF909F908F90DC
:101C500009948F929F92AF92BF92CF92DF92EF92B0
:101C6000FF920F931F93CF93DF93EC015B014A0127
:101C700069017801E881F9810284F385E02D0995F5
:101C8000C80CD91C860101501109E881F98104882A
:101C9000F589E02D9501A401B501CE010995E881F2
:101CA000F9810688F789E02DCE01DF91CF911F9150
:101CB0000F91FF90EF90DF90CF90BF90AF909F90EB
:101CC0008F900994EF92FF920F931F93DC01ED9197
:101CD000FC9100A0F1A1E02D09951F910F91FF90BB
:101CE000EF9008950F931F93DC01ED91FC91068C0A
:101CF000F78DE02D09951F910F9108950F931F9374
:101D0000DC01ED91FC91048CF58DE02D09951F917E
:101D10000F910895DC01ED91FC910084F185E02D97
:101D200009943F924F925F926F927F928F929F920F
:101D3000AF92BF92CF92DF92EF92FF920F931F93D9
:101D4000CF93DF935C017B014A016901390187E090
:101D5000680E711C93E0759467949A95E1F72B01D6
:101D6000400E511E10E000E0312CD0E0C0E0CE016A
:101D700087709927330C892B59F4FE0183E0F59580
:101D8000E7958A95E1F7E00FF11FE80DF91D349012
:101D900037FE0AC021E030E0A701B5016C0F7D1FBE
:101DA00085ED92E00E948A0E2196CC16DD06F9F6AA
:101DB0008FEFE81AF80A060D171DE414F504A9F6CA
:101DC000DF91CF911F910F91FF90EF90DF90CF9017
:101DD000BF90AF909F908F907F906F905F904F904B
:101DE0003F9008952F923F924F925F926F927F9211
:101DF0008F929F92AF92BF92CF92DF92EF92FF921B
:101E00000F931F93CF93DF9300D000D000D0CDB7B6
:101E1000DEB73C016A013E832D83FC82EB825801D0
:101E2000A41AB50AB7FE03C0B194A194B1088D807D
:101E30009E80861A970A97FE03C091948194910818
:101E40008A149B045CF0902F812F0D811E819D834D
:101E50008E839C2D8D2D6B01692F782F0C151D0500
:101E60005CF09D818E817E836D83692F782F902F0A
:101E7000812F8601C92ED82E1601201A310A2B0176
:101E80002D813E81421A530A57FE03C0519441945A
:101E90005108710137FE03C03FEFE31AF30AF594CE
:101EA000E7948D819E81861797075CF5A1E0B0E0ED
:101EB000BA83A983C016D1064CF1D301ED91FC91F0
:101EC0000484F585E02D2B813C81A8016D817E8104
:101ED0008A149B041CF04D815E81B801C3010995F1
:101EE000E418F508F7FE0AC02D813E8189819A81A8
:101EF000280F391F3E832D83E20CF31C0F5F1F4F09
:101F0000D9CF2FEF3FEF3A832983D4CF26960FB650
:101F1000F894DEBF0FBECDBFDF91CF911F910F911F
:101F2000FF90EF90DF90CF90BF90AF909F908F90F9
:101F30007F906F905F904F903F902F9008950895FD
:101F400085ED8093BC008091BC0084FDFCCF109295
:101F5000250208952091CE01260F3327331F213209
:101F60003105ECF420912502FC0190E080E0243062
:101F700069F082E00895A091CE012191AC01425513
:101F80005E4FA40FB52FB11D2C930196861798F3C1
:101F90008091CE01680F6093CE0180E0089581E0CA
:101FA0000895E091270280912602E81730F4F0E0CE
:101FB000E257FE4F808190E008958FEF9FEF0895E4
:101FC00090912702809126022FEF3FEF981748F457
:101FD000E92FF0E0E257FE4F208130E09F5F9093C1
:101FE0002702C90108958091260290912702891B3A
:101FF000990B0895CF92DF92EF92FF920F931F9368
:10200000CF93DF937C01CB018A0120912B02222305
:1020100089F0EB016B01C40ED51ECC15DD0569F00E
:102020006991D701ED91FC910190F081E02DC701FC
:102030000995F3CF642F0E94AA0FC801DF91CF91B9
:102040001F910F91FF90EF90DF90CF900895CF9365
:10205000DF931F92CDB7DEB7698320912B02222335
:10206000F9F020912802203258F021E030E0FC0104
:102070003383228390E080E00F90DF91CF91089529
:1020800080912902E82FF0E0E259FE4F9981908378
:102090008F5F809329028093280281E090E0ECCF4B
:1020A00061E0CE0101960E94AA0FF7CF209128028D
:1020B00081E0213208F044C0809125028111FCCFDB
:1020C00080912A0292E09093250291E0909324025D
:1020D0009FEF9093F1011092130220931202AEE64B
:1020E000B1E0E2EFF1E090E0291331C01092140268
:1020F00090911402880F892B8093140280912302FF
:10210000813049F510922302809114028093BB0024
:102110008091BC0083FDF8CF85EC8093BC0080915A
:1021200025028230E1F38091F1018F3FB1F080917F
:10213000F1018032A1F08091F101803391F084E0CF
:10214000109229021092280210922B0208953D91BC
:1021500031939F5FC9CF85EEE0CF80E0F1CF82E081
:10216000EFCF83E0EDCFEF92FF920F931F93CF93CA
:10217000DF937C01C62F8091F2029091F3020097C9
:1021800009F459C02091F60231E030932B022093DC
:102190002A021092290210922802DC01ED91FC9192
:1021A0000190F081E02D60E009958701EE24E39431
:1021B000F12CD1E0C1508091F2029091F302CF3F17
:1021C00091F1B0E2EB16F104D8F00E945610809124
:1021D000F2029091F3022091F602D0932B02209309
:1021E0002A021092290210922802DC01ED91FC9142
:1021F0000190F081E02D60E00995EE24E394F12C4C
:102200008091F2029091F302F8016491DC01ED916A
:10221000FC910190F081E02D0995BFEFEB1AFB0ACC
:102220000F5F1F4FC7CFDF91CF911F910F91FF908D
:10223000EF900C945610E0910203F091030390810B
:10224000809108038095892380838701C15008F419
:1022500038C0F80184912091F0023091F102232BD3
:1022600029F00E94A0090F5F1F4FF0CF28E030E057
:1022700040E8E091FE02F091FF0290910603582F92
:102280005423D9F05081952B9083E0910003F09175
:102290000103908150910703952B9083E0910003F7
:1022A000F0910103508190910703909595239083BD
:1022B000469521503109E9F6D6CF50819095952366
:1022C000E3CFDF91CF911F910F91FF90EF90089591
:1022D0001F93CF93DF93EC018D8D9E8D009721F19D
:1022E000162F29A131E030932B0220932A0210925D
:1022F000290210922802DC01ED91FC910190F081FD
:10230000E02D60E009958D8D9E8DDC01ED91FC91B5
:102310000190F081E02D612F09958D8D9E8DDF91CB
:10232000CF911F910C945610ADA5BEA59C918BA981
:10233000809589238C938B8D9C8D892B31F0862FF2
:10234000DF91CF911F910C94A00928E030E080E844
:10235000A9A5BAA599A9462F4823C1F04C91942B61
:102360009C93ABA5BCA59C914AA9942B9C93ABA52F
:10237000BCA54C919AA9909594239C938695215045
:10238000310931F7DF91CF911F9108954C919095CC
:102390009423E6CF1F93CF93DF93EC01162F8D8DFF
:1023A0009E8D892BB1F12DA93EA94FA958AD60E0B2
:1023B00074E284EF90E00E94F9182051310941093C
:1023C000510956954795379527952093B80066EAA9
:1023D000111167EACE010E9468118D8D9E8D892BA7
:1023E00041F129AD3AAD4BAD5CAD60E074E284EFF4
:1023F00090E00E94F9182051310941095109569580
:102400004795379527952093B800DF91CF911F917D
:1024100008958B8D9C8D892B21F08EAD9FAD0E94F0
:10242000A709EFA5F8A990818CA9809589238083BD
:10243000CECFEFA5F8A980819CA9892B8083E5CF19
:1024400090E080E008952091DB023091DC02C90128
:10245000079697FD079623E0959587952A95E1F7CE
:102460002091D9023091DA02829FA001839F500D02
:10247000929F500D112470E060E08091F4029091E1
:10248000F5020C944B1A0E94461AFB0101900020A1
:10249000E9F73197AF01461B570BDC01ED91FC9139
:1024A0000280F381E02D0994CF93DF93BC0185ED89
:1024B00092E00E944512EC0166E571E085ED92E044
:1024C0000E9445128C0F9D1FDF91CF9108951F929E
:1024D0000F920FB60F9211242F933F934F935F9358
:1024E0006F937F938F939F93AF93BF93EF93FF93DC
:1024F0008CE292E00E941706FF91EF91BF91AF919D
:102500009F918F917F916F915F914F913F912F910B
:102510000F900FBE0F901F9018951F920F920FB63D
:102520000F9211242F938F939F93EF93FF93E0913A
:102530003C02F0913D028081E0914202F091430221
:1025400082FD1BC09081809145028F5F8F73209127
:102550004602821741F0E0914502F0E0E45DFD4F54
:10256000958F80934502FF91EF919F918F912F91CD
:102570000F900FBE0F901F9018958081F4CF1F927F
:102580000F920FB60F9211242F933F938F939F9327
:10259000AF93BF938091160290911702A0911802F9
:1025A000B09119023091150223E0230F2D3758F511
:1025B0000196A11DB11D20931502809316029093E0
:1025C0001702A0931802B093190280911A029091F9
:1025D0001B02A0911C02B0911D020196A11DB11D0C
:1025E00080931A0290931B02A0931C02B0931D02C9
:1025F000BF91AF919F918F913F912F910F900FBEFF
:102600000F901F90189526E8230F0296A11DB11D6B
:10261000D2CF1F920F920FB60F9211242F933F9398
:102620004F935F936F937F938F939F93AF93BF93DA
:10263000EF93FF938091B900887F803609F44AC0F8
:10264000F0F5883209F4A7C018F5803109F49BC071
:10265000B8F4882309F4F9C0883009F494C0FF91D4
:10266000EF91BF91AF919F918F917F916F915F910A
:102670004F913F912F910F900FBE0F901F90189583
:10268000883109F488C0803251F78093F10114C079
:10269000803409F49DC040F48033B9F38833F9F6EF
:1026A0008093F10185ECB0C0803509F485C0883590
:1026B00009F496C0883499F60E94A00FD0CF8839CB
:1026C00009F48CC038F5883729F050F4883611F0B9
:1026D000803729F683E0809325021092F00157C0DD
:1026E000883809F47BC0803919F0803809F0B7CFF9
:1026F0008091F001803208F071C0E091F00181E03A
:102700008E0F8093F0018091BB00F0E0E053FE4F0C
:1027100080833DC0803B39F0E0F4803A09F479C011
:10272000883A09F09CCF84E0809325021092CF0173
:102730001092CE01E0912102F09122020995809140
:10274000CE0181110FC081E08093CE011092AE01C5
:1027500009C0803C09F4A6CF883C09F4A3CF883B8C
:1027600009F07DCFE091CF0181E08E0F8093CF0102
:10277000F0E0E255FE4F80818093BB009091CF0145
:102780008091CE0129C0809114028093BB0085EC1A
:102790008093BC0064CF909113028091120298172D
:1027A00058F5E091130281E08E0F80931302F0E060
:1027B000EE50FE4F8081E9CFE091130281E08E0F51
:1027C000809313028091BB00F0E0EE50FE4F8083B7
:1027D00090911302809112029817C8F285E8D8CF21
:1027E000E091130281E08E0F809313028091BB0071
:1027F000F0E0EE50FE4F80838091240281115CCF87
:1028000081E08093230284EA8093BC001092250229
:1028100026CF85EC8093BC00109225028091F001B8
:10282000803230F4E091F001F0E0E053FE4F10828E
:102830006091F00170E0E0911F02F091200280EDC4
:1028400091E009951092F0010ACF1092F10134CF76
:10285000ECE2F2E01382128248EE53E060E070E0B6
:1028600044835583668377838AE091E091838083F4
:1028700085EC90E09587848784EC90E09787868745
:1028800080EC90E0918B808B81EC90E0938B828B3D
:1028900082EC90E0958B848B86EC90E0978B868B16
:1028A000118E128E138E148EA9ECB2E013961C9228
:1028B0001E92129714964D935D936D937C93179788
:1028C0008CE191E011969C938E93E5EDF2E01382FA
:1028D000128220E830E03583248380E490E09783FF
:1028E00086833187208793878287168A1586148688
:1028F0001786168681E0858B848B2FEF3FEF338B15
:10290000228B318B208B878B108E128E118E8EE254
:1029100091E091838083148E138EB68FA58F10A2C1
:10292000178E8FEF84A385A386A387A380A780E853
:102930009AE1A6E0B0E085AB96ABA7ABB0AF80EA7A
:1029400096E8A1E0B0E081AF92AFA3AFB4AF80E56D
:1029500086AF17AE0895789484B5826084BD84B53F
:10296000816084BD85B5826085BD85B5816085BD8A
:1029700080916E00816080936E0010928100809142
:1029800081008260809381008091810081608093CA
:102990008100809180008160809380008091B100EF
:1029A00084608093B1008091B00081608093B0001A
:1029B00080917A00846080937A0080917A008260AE
:1029C00080937A0080917A00816080937A00809170
:1029D0007A00806880937A001092C100E0913C02F6
:1029E000F0913D0282E08083E0913802F09139025B
:1029F0001082E0913A02F0913B0280E180831092D4
:102A00004402E0914002F091410286E08083E0912F
:102A10003E02F0913F02808180618083E0913E021E
:102A2000F0913F02808188608083E0913E02F091C6
:102A30003F02808180688083E0913E02F0913F02F6
:102A400080818F7D80838091F4029091F502892BA3
:102A500011F10E9423122091DB023091DC0280915F
:102A6000D9029091DA02213231050CF04AC0B90145
:102A70006052710977FF02C06F5F7F4F7595679550
:102A80008357910997FD019600E210E023E730E0BB
:102A90004EE955E049C02091DB023091DC02C901CA
:102AA000079697FD0796B3E095958795BA95E1F758
:102AB0002091D9023091DA02AC01429FC001439FBC
:102AC000900D529F900D11240E9421199093F502B0
:102AD0008093F402892B09F0BCCFC3E4DAE0FE0155
:102AE0006491662339F08CE292E00E9439062196C7
:102AF000892BA9F766E571E08CE292E00E9445120D
:102B0000FFCFB9016054710977FF02C06F5F7F4F3B
:102B1000759567958255910997FD019600E410E03F
:102B200022E530E04EE757E0959587950E94910E9B
:102B300082E08093F7028091F2029091F302892B58
:102B400009F4C6C18CE38093F6021092270210921A
:102B5000260210922902109228021092250281E08A
:102B6000809324021092230261E082E10E94A60673
:102B700061E083E10E94A6068091B9008E7F809378
:102B8000B9008091B9008D7F8093B90088E480936B
:102B9000B80085E48093BC0087E995E09093220219
:102BA0008093210288E995E09093200280931F0290
:102BB0008091FD0287FD1DC00E94770561E0809134
:102BC000FD020E94A60661E070E080E090E00E94B5
:102BD000170760E08091FD020E94A6066AE070E09F
:102BE00080E090E00E94170761E08091FD020E9462
:102BF000A6068091F2029091F302892B09F41FC27C
:102C000020910A0330910B0340910C0350910D0366
:102C100060E074E284EF90E00E94F91820513109DD
:102C20004109510956954795379527952093B80046
:102C300064E08AE995E00E94B3106091DB02615084
:102C400085ED92E00E94681164E086E995E00E94BB
:102C5000B3108091F70260E1813009F064E185ED05
:102C600092E00E94681164E082E995E00E94B3104E
:102C70008FE8809312038091D9029091DA02803814
:102C8000910509F0F5C18091DB029091DC0280345E
:102C9000910509F0FDC18091F702813009F0E6C18C
:102CA0008FE980931203C2E16AED85ED92E00E9404
:102CB00068116C2F85ED92E00E94681161E885ED46
:102CC00092E00E9468116091120385ED92E00E94EB
:102CD000681169ED85ED92E00E9468118091F7021C
:102CE00062E2813009F061EF85ED92E00E946811A7
:102CF00066E08CE895E00E94B3108091F20290911A
:102D0000F302892B09F4C8C120910E0330910F03FF
:102D1000409110035091110360E074E284EF90E061
:102D20000E94F918205131094109510956954795DA
:102D3000379527952093B80060ED77E080E090E02C
:102D40000E9417070E94231282E08093E902809379
:102D5000EA0281E090E09093E8028093E70290938A
:102D6000E6028093E5021092E2021092E10288E00E
:102D700090E09093E4028093E30289E591E00E9461
:102D8000541288E591E00E94541284E691E00E947A
:102D900054128091F2029091F302892B09F486C1BA
:102DA00020910A0330910B0340910C0350910D03C5
:102DB00060E074E284EF90E00E94F918205131093C
:102DC0004109510956954795379527952093B800A5
:102DD00065E08EE39AE00E94B3106091D9026150E1
:102DE00085ED92E00E9468112091DB023091DC02B7
:102DF000C901079697FD079633E0959587953A9513
:102E0000E1F72091D9023091DA02829F8001839FFD
:102E1000100D929F100D1124C091F402D091F50273
:102E20008091F2029091F3020C0F1D1F009709F49C
:102E300086C12091F60231E030932B0220932A02C2
:102E40001092290210922802DC01ED91FC91019070
:102E5000F081E02D60E40995EE24E394F12CDD246B
:102E6000D3948091F2029091F3020C171D0709F49C
:102E700034C1B0E2EB16F104D8F00E9456108091F4
:102E8000F2029091F3022091F602D0922B0220934D
:102E90002A021092290210922802DC01ED91FC9185
:102EA0000190F081E02D60E40995EE24E394F12C8B
:102EB0008091F2029091F3026991DC01ED91FC9115
:102EC0000190F081E02D0995BFEFEB1AFB0AC9CF05
:102ED0008091FB020E9477058091FC020E94770599
:102EE0008091FB02082E000C990BFC01E359F54F71
:102EF000E491F0E0EE0FFF1FE75AF54F2591349172
:102F00003093030320930203FC01EF57F54FE49144
:102F1000E09308038091FC02082E000C990BFC0141
:102F2000E359F54FE491F0E0EE0FFF1FE75AF54F3C
:102F3000A591B491B0930503A0930403FC01EF574E
:102F4000F54FE491E09309038C91E82BEC93809189
:102F5000F0029091F102892B89F1CFB7F89480911A
:102F60001E02811124C0E7E7FAE08491EBE8FAE061
:102F70009491E82FF0E0EE0FFF1FED59F54FA5916A
:102F8000B491EC91E92321F461E08AE00E94A60665
:102F90008AE00E9477058CB580618CBD8CB5806419
:102FA0008CBD8DE00E9477058BE00E9477058091B3
:102FB0001E028F5F80931E02CFBFFACD8091F9026F
:102FC0000E9477058091FA020E9477058091F902AC
:102FD000082E000C990BFC01E359F54FE491F0E049
:102FE000EE0FFF1FE75AF54F259134913093FF0202
:102FF0002093FE02FC01EF57F54FE491E0930603A6
:103000008091FA02082E000C990BFC01E359F54F50
:10301000E491F0E0EE0FFF1FE75AF54FA591B49150
:10302000B0930103A0930003FC01EF57F54FE49127
:10303000E09307038C91E095E823EC93B9CD809160
:10304000F0029091F102892B31F08091130390915D
:1030500014030E94A709E0910403F09105039081F5
:1030600080910903809589238083E2CD8FEC19CE6E
:103070008036910569F48091DB029091DC024097E3
:1030800039F48091F702813029F480E180931203B2
:10309000C2E00ACE8FEAFACFE0910403F091050373
:1030A000808190910903892B808346CE8091F00224
:1030B0009091F102892B31F08091130390911403C8
:1030C0000E94A709E0910403F0910503908180918B
:1030D00009038095892380837BCE0E9456108091BE
:1030E000F2029091F302892B09F46AC020910E0339
:1030F00030910F03409110035091110360E074E28E
:1031000084EF90E00E94F9182051310941095109DA
:1031100056954795379527952093B80064E670E05B
:1031200080E090E00E941707C0E0D0E02097F1F324
:103130000E9403068823D1F30E940000F7CFE0919C
:103140000203F0910303808190910803892B80830F
:10315000C017D10721F289912091F0023091F1023C
:10316000232B19F00E94A009F3CF28E030E040E8BB
:10317000E091FE02F091FF0290910603582F542334
:10318000D9F05081952B9083E0910003F0910103D9
:10319000908150910703952B9083E0910003F0916B
:1031A0000103508190910703909595239083469554
:1031B00021503109E9F6CCCF508190959523E3CF8A
:1031C000E0910403F0910503808190910903892B1C
:1031D0008083A4CF8EE291E09093D6028093D502B3
:1031E0008091F4029091F502009711F00C94BD19B2
:1031F0000895A1E21A2EAA1BBB1BFD010DC0AA1F38
:10320000BB1FEE1FFF1FA217B307E407F50720F04F
:10321000A21BB30BE40BF50B661F771F881F991FCA
:103220001A9469F760957095809590959B01AC0113
:10323000BD01CF010895EE0FFF1F0590F491E02D21
:1032400009940F931F93CF93DF938230910510F46D
:1032500082E090E0E0911703F091180330E020E065
:10326000B0E0A0E0309799F42115310509F44AC087
:10327000281B390B24303105D8F58A819B816115D3
:10328000710589F1FB0193838283FE0111C04081A6
:1032900051810281138148175907E0F048175907F7
:1032A00099F4109761F012960C93129713961C9351
:1032B0003296CF01DF91CF911F910F910895009326
:1032C000170310931803F4CF2115310551F042175D
:1032D000530738F0A901DB019A01BD01DF01F801B4
:1032E000C1CFEF01F9CF9093180380931703CDCF8F
:1032F000FE01E20FF31F819391932250310939832C
:103300002883D7CF2091150330911603232B41F446
:10331000209102013091030130931603209315038D
:1033200020910001309101012115310541F42DB7A3
:103330003EB74091040150910501241B350BE091EB
:103340001503F0911603E217F307A0F42E1B3F0BB1
:103350002817390778F0AC014E5F5F4F2417350707
:1033600048F04E0F5F1F509316034093150381934F
:1033700091939FCFF0E0E0E09CCFCF93DF93009755
:10338000E9F0FC01329713821282A0911703B091E9
:103390001803ED0130E020E01097A1F42081318185
:1033A000820F931F209115033091160328173907B8
:1033B00009F061C0F0931603E0931503DF91CF91FC
:1033C0000895EA01CE17DF07E8F54A815B819E0187
:1033D00041155105B1F7E901FB83EA834991599100
:1033E000C40FD51FEC17FD0761F48081918102960F
:1033F000840F951FE90199838883828193819B8340
:103400008A83F0E0E0E012968D919C9113970097EB
:10341000B9F52D913C911197CD010296820F931F22
:1034200020911503309116032817390739F6309784
:1034300051F51092180310921703B0931603A0933E
:103440001503BCCFD383C28340815181840F951F64
:10345000C817D90761F44E5F5F4F88819981480F83
:10346000591F518340838A819B81938382832115D5
:10347000310509F0B0CFF0931803E09317039ECF06
:10348000FD01DC01C0CF13821282D7CF81E090E032
:10349000F8940C94521ADC0101C06D9341505040D5
:1034A000E0F7089515E0CCE4D5E004C0FE010E94E9
:0E34B0001B192196CD34D107C9F7F894FFCF30
:1034BE000000190380000000000039069905C605BA
:1034CE008606F705D505E905000000002710FA0F5E
:1034DE0020129605F30FE00FD10F00000000E50B50
:1034EE00990520129F0FF00896058A0E620E7E0E29
:1034FE00720EF20E9605AB09CA116008A908AB0D43
:10350E008E0D160DB70C0D0A0057656C636F6D6549
:0E351E0020746F00204554626F6172640000DB
:107E0000112484B714BE81FFF0D085E080938100F7
:107E100082E08093C00088E18093C10086E0809377
:107E2000C20080E18093C4008EE0C9D0259A86E02C
:107E300020E33CEF91E0309385002093840096BBD3
:107E4000B09BFECF1D9AA8958150A9F7CC24DD24C4
:107E500088248394B5E0AB2EA1E19A2EF3E0BF2EE7
:107E6000A2D0813461F49FD0082FAFD0023811F036
:107E7000013811F484E001C083E08DD089C08234E0
:107E800011F484E103C0853419F485E0A6D080C0E4
:107E9000853579F488D0E82EFF2485D0082F10E0AE
:107EA000102F00270E291F29000F111F8ED06801E7
:107EB0006FC0863521F484E090D080E0DECF843638
:107EC00009F040C070D06FD0082F6DD080E0C81688
:107ED00080E7D80618F4F601B7BEE895C0E0D1E017
:107EE00062D089930C17E1F7F0E0CF16F0E7DF06D8
:107EF00018F0F601B7BEE89568D007B600FCFDCFD4
:107F0000A601A0E0B1E02C9130E011968C91119780
:107F100090E0982F8827822B932B1296FA010C0160
:107F200087BEE89511244E5F5F4FF1E0A038BF0790
:107F300051F7F601A7BEE89507B600FCFDCF97BE46
:107F4000E89526C08437B1F42ED02DD0F82E2BD052
:107F50003CD0F601EF2C8F010F5F1F4F84911BD097
:107F6000EA94F801C1F70894C11CD11CFA94CF0C13
:107F7000D11C0EC0853739F428D08EE10CD085E9AC
:107F80000AD08FE07ACF813511F488E018D01DD067
:107F900080E101D065CF982F8091C00085FFFCCF94
:107FA0009093C60008958091C00087FFFCCF809118
:107FB000C00084FD01C0A8958091C6000895E0E648
:107FC000F0E098E1908380830895EDDF803219F02E
:107FD00088E0F5DFFFCF84E1DECF1F93182FE3DFCA
:107FE0001150E9F7F2DF1F91089580E0E8DFEE27F6
:047FF000FF270994CA
:027FFE00040479
:0400000300007E007B
:00000001FF
