:100000000C9412090C943A090C943A090C943A098C
:100010000C943A090C943A090C943A090C943A0954
:100020000C943A090C943A090C943A090C943A0944
:100030000C943A090C943A090C943A090C943A0934
:100040000C9419160C943A090C943A090C943A0938
:100050000C943A090C943A090C943A090C943A0914
:100060000C9463160C943A09BF00020203040305C2
:1000700004060A00FE07FE07000142029207B320B1
:10008000050062072107394367A80022079B522712
:100090005901230D3D42AF4C69A86AA832250024BE
:1000A0000B3D4237AF7AA7B42300250B3D422FAA60
:1000B000EEAA251300260C3D422FA7987295645492
:1000C0000127051953672808BB4237957501290890
:1000D000BB42279755092A0A2D4627A76AA876000A
:1000E0002B0A2D4637A3386446112C079B3E4F95AB
:1000F000002D060D4E67082E079B3E2FAD042F0BDB
:100100003D421F6594BB514600300A3D4237A7DA95
:100110004E7504310C3D4237CB94514619C52132FE
:100120000C3D426FE58CA2CC190D01330C3D4267AA
:100130006894B3863A2D00340C3D423FCB54A6A1BF
:10014000334A00350B3D42E746C9CC48A705360B7C
:100150003D4257E68C92A9D302370C3D4267689422
:1001600033CA35CA00380B3D426F659D56D66901CA
:10017000390C3D426F65A95446394A003A0ABB3EE4
:100180002FAD0CD34A003B09BB3E2FAD0C55093CAB
:100190000ABC423FB6514619053D081D4A676838FA
:1001A000043E0BBC4227A38C328A6D003F0A3D42BD
:1001B0006FE536CA7404400B3D426F65B99295E114
:1001C00002410B3D4237A75A8F917500420C3D42C8
:1001D00067C42AA659C5A100430C3D426F658D3204
:1001E000CA28A705440D3D4267C42AA698628A43DF
:1001F00001450C3D42E746198D94514643460D3D5D
:1002000042E746198D9451461901470C3D426F65EE
:100210008D328A3B2D0048093D4227DB63643B4910
:1002200008BB4267C5AE014A0C3D42776794514610
:100230006594004B0B3D4227CB54EA14AB1C4C0E8B
:100240003D4227A38C32CA28A38C86004D0A3D422A
:1002500027EBB592B6034E0A3D4227EBA992DC3A52
:100260004F093D426F65EFB400500D3D4267A4ACAD
:1002700087CA28A38C00510A453E6F65AF6AC30048
:10028000520B3D4267A4AC872AAB1C530B3D426F17
:10029000650D37D46901540E3D4267C88C32CA28B7
:1002A000A38C220055083D4227FB4E0B560B3D42C6
:1002B00027DBA94C31E508570A3D4227BB924A7714
:1002C00000580A3D4227EB5457B50E590C3D4227C2
:1002D000EB5467945146115A0A3D42676894BBD16A
:1002E000105B08BB4267C4CE015C0D3D4227A30CE6
:1002F00033CC30C38C025D08BB4267768E005E074C
:100300001D5237A73A5F060D3E67086006125B274D
:1003100006610A2D426FC334741A01620C3D4227F4
:10032000A38C92A9A75200630A2D426F658D725A61
:1003300000640B3D421F6594CC2D950A650A2D4241
:100340006FE531325C00660C3D42575679C48C3201
:10035000CA00670C3D3A6F689D46463A2D00680B0F
:100360003D4227A38C92A9ED006908BB422F23D9F7
:100370001A6A0BCC3A3F635D4B9914006B0C3D42FB
:1003800027A38CB24CB3CA016C07BB4247F61A6D67
:100390000A2D4247B5545249076E082D422799DA73
:1003A0000E6F092D426F653B2D00700C3D3A279969
:1003B0007A2A95514600710B3D3ACFDC52A98C3216
:1003C0000A720B2D4227991A65941100730A2D4267
:1003D0006F65B8E15000740D3D422FA33C62461991
:1003E000C5A80075082D42273B950A760A2D42279D
:1003F000EB54A61C0177092D42275B49750178094A
:100400002D4227A7BAAA03790B3D3A279B4A65A438
:10041000D3027A082D4267E8F6107B0BBC42576581
:1004200094348A19097C063943E7087D0CBC42479D
:10043000A39891CA2849007E091D522FAA241300AF
:10044000A005006207A1073943270D01A20C3D3E1C
:10045000370F15534C79C408A30B3D4257567967A3
:10046000149502A40A2D4227A799E2CA01A50D45B9
:100470003E27EB54C72133CA2802A6063943670D2D
:10048000A70B453E6F65343B374A0BA8068B5E27AA
:1004900005A90C3D426F6595A64A3A2D00AA0AB4FB
:1004A000466F44A56A3402AB0B2E42B78A29E69800
:1004B0006300AC07944A67E400AD068C4E6704AE57
:1004C0000B3D426FE591E6D46901AF060D5E67080A
:1004D000B0069B52AF0BB10B354237A3386446715F
:1004E00008B208AC4E4FC5E608B30AAC4E67A3A4E9
:1004F000D14800B406125B4F01B50A353E27DB53E5
:10050000A98C00B60E3D426F8C34525231C5145343
:1005100000B705094F27B806123B4F01B907AB4E8C
:100520002FC96ABA0AB4464F4599341C01BB0C2E38
:100530004227E698638A294600BC104E3E2F230DC1
:1005400033CC6866A4531C1906BD104E3E2F230DF4
:1005500033CC686554C38C321ABE0E4D3E47C39CE3
:10056000619459A634320ABF0A3D4237D319E5D601
:1005700002C00C45422FC3BCB21E23EB00C10B4589
:1005800042BF5E598F917500C20C454237A7B8B281
:100590001E23EB00C30C45422F2AB9B21E23EB00E9
:1005A000C40B4542AFA656D663641DC50C45423701
:1005B000A7B8B21E23EB00C60B3E4277A4B2394661
:1005C0006C0EC70D4D3A6F658D32CA28A75D03C802
:1005D0000E45422F8F8D321A29A38C8600C90E45F5
:1005E000423F8D8D321A29A38C8600CA0E454237B0
:1005F0008E8D321A29A38C8600CB0E4542AF1A1B72
:1006000065345246190D01CC09C34227A7155B0377
:10061000CD09C34237A5155B03CE09C342AF1A29E2
:10062000B606CF09C34227E5155B03D00D3D4267EF
:10063000C42A8E54A6381400D10B454237754F9505
:10064000E4D601D20B45422FC3BCB23B2D00D30AE6
:100650004542BF5ED99D1600D40B454237A7B8B2BC
:100660003B2D00D50A454237355776A705D60A45B2
:1006700042AFA65676A705D7092D4227A7BAAA03E7
:10068000D80B3D426FC52BCD991600D90A45422F94
:10069000C3DA3B2D00DA094542BFCCDE6901DB0B32
:1006A000454237A78CB33B2D00DC0A4542AFC6D983
:1006B0003B2D00DD0C4542BFCC3AD519651401DE57
:1006C0000E3D4227A391F2501965941100DF0B3DB6
:1006D000426F6599CA2A2B05E00C45422FC34C6E28
:1006E00098864E23E10B4542BF26374C43A711E2C3
:1006F0000C454237A74C6D98864E23E30C45423794
:10070000B5A90DD3D06904E40B3D42AFA6364C43E6
:10071000A711E50C454237A79C374C43A711E60BC0
:100720002E426F64548D998700E70B3D3A6F658DBB
:1007300072DA3500E80C45422FC34CAE3C46860BBE
:10074000E90B4542BF26571E23C305EA0C45423735
:10075000A74CAD3C46860BEB0B3D42AFA6561E2385
:10076000C305EC09C3422767245B03ED08C342AF0E
:1007700086B235EE08C342AF2D5B03EF08BB4227BC
:1007800065D91AF00B3D424743B9B29D1600F10AF4
:10079000454237B57132B51DF20B45422FC34CAE01
:1007A0006CA705F30A4542BF2657B6D302F40B45A2
:1007B0004237A74CAD6CA705F50B454237B5A99557
:1007C000EDB400F60A3D42AFA656B6D302F7092DA6
:1007D000463753435311F80A2D426FC895E650002F
:1007E000F90B45422FC34C65A75201FA0A4542BF97
:1007F000A6B253A900FB0B454237A78CB353A900FF
:10080000FC0A3D42AFC6D9A95400FD0C4D3ABFCCFD
:10081000A65219E9B400FE0D453A27A391B23D5402
:10082000461901FF0D4D3AAFC6D9542A239D160033
:1008300000000004FFFF0000BF00030303040305E2
:1008400005070D00FE0AFE0AFF0184030709722056
:1008500005006E0C2107D2438C27022208A55A0CF2
:1008600009170123104F421C2589E47051395C940B
:1008700024120024135F3EBC604512A1C488455A6F
:10088000841291146300251157428CD12454114ACB
:100890008552A1A414190D260D3F421C928A48448A
:1008A000129544062707A25B8C4300280CDD3E3CD2
:1008B000919A48A628132A290DDD3E0CA19A50A62C
:1008C0002413A9012A0E3F46BC70EC349C4944B164
:1008D00008002B0BB64A2CA1E850128A002C092CD8
:1008E0003F0CCA8A12002D068E520C032E081C43A0
:1008F0001C0945022F0B5742ECA8A25EA5610030EF
:100900000D5742AC99448D6F12B51100310AD64291
:100910002CD988A84F06320C57429C8A8C2615EA9F
:10092000F500330E57428CAB50912C95D224150014
:10093000341057424CE18C245192882447A90A0074
:10094000350F57428C83546A19495569920A00360B
:100950000F57422C92502AB58C68B492A402370CDF
:1009600057428CABA2AA50AA0D00380E57429C8A5F
:100970008C4D529171935400390E57429C8AA8C6EF
:1009800034B12A8A48003A0C44431C09450E93505E
:1009900024003B0B4C3F1C09454A5951023C08CEF0
:1009A000424C99AE3A3D08A64A0C3BD4003E09CED3
:1009B000420CA96E3A023F0E57429C8A8C2615AA19
:1009C000CAA14A00400F4F429CCA4154B18426A19B
:1009D000C9D500410C5742AC5945C676A0711342A7
:1009E0001357420C938A48229294544412914474AF
:1009F0008800430D57429CCA8846D5AD24A90044BF
:100A00001557420C938A48229288242289482292C0
:100A1000880E1100450B57428C8354B524D57A4675
:100A20000C57428C8354B524D51500470D57429C72
:100A30008A8C55538D26A900480B57420C19B703D1
:100A40008D3701490954430C8A48BF104A0C57425C
:100A5000CCA95E69344905004B1057420C199344E8
:100A600089469388546434014C0957420CA9FE7896
:100A7000084D0D57420C19AD72A84468BC094E0EC2
:100A800057420C19AD54B2504C6D34014F0B5742C4
:100A90009C8A8CBF492A00500C57420C8B8CDB215E
:100AA00022D50A510B5F3E9C8A8CBF50CA0252105D
:100AB00057420C8B8CED1029A98824329A00530ED2
:100AC00057429C8A8CB92CA5D12415005409D642D2
:100AD0000C93507F02550A57420C19FF26A9005665
:100AE0001157420C1937492C24114964C3690C0071
:100AF000570E57420C19BF442891834405005811E2
:100B000057420C194DA224910D671291448D26591C
:100B10000CD6420C1193844413EA045A0A57428CAF
:100B2000ABA25EA5075B08DD3E8C9BFE565C0B57B7
:100B3000428CB054AC5771005D08DD3E8C9AFE7655
:100B40005E09275ABCE84CA2265F060F3E8C036064
:100B5000071C5F0C9902610C3F429CB2E410639A3F
:100B60004C04620D57420CA996251A5B8932016329
:100B70000C3F429CCA88AA3A925400640C57425CCB
:100B80002D13528DD36422650D3F429C8A8C76A032
:100B9000CA241500660C57422C928A54D124D508D9
:100BA00067104F3A9C4348229288448C1599A402BE
:100BB000680B57420CA996251A6F02690A4C431C10
:100BC0009174A40B016A0D5F3A5C75E0542B8D267D
:100BD000A9006B0F57420CA92689128D2611A9C8AE
:100BE000046C0854438C91FE426D0D3F421C95836A
:100BF000244289D0D8046E0A3F420CC9128D3701B5
:100C00006F0B3F429C8A8C37490500700E4F3A0C9F
:100C1000C9128DAD449948A500710C4F3A9C09A9A1
:100C2000C66932912A720A3F420CC91255570073A5
:100C30000E3F429C8A4C221E4B64920A00740C5751
:100C4000421CA9469354938802750A3F420C199F8F
:100C5000261301760C3F420C1937899244360277ED
:100C60000D3F420C199708257290A800780D3F425D
:100C70000C194DA23693A8D104790D4F3A0C194F97
:100C800093899426A9007A083F428CA35E0F7B0DBE
:100C9000DE3E2C8A505534950955097C07D2438C89
:100CA00007037D0EDE3E0CAA504D3A920A554800CD
:100CB0007E091F5A9CD1413401A005006E0CA10889
:100CC000D2430CD2E100A2104646BCD825320949D5
:100CD0004292945A0800A3105F3E2C928A54689264
:100CE0002AD222872000A40F3F460CD941A2140B20
:100CF0004924079900A50FD6420C119384443189E9
:100D00004C421100A608D2438C43F010A70FD642E4
:100D10001C8A884A11912454928402A80895620C76
:100D2000094500A9114F469C8A6C32A144689488F9
:100D3000644D5201AA09BD4E0CE221742DAB0E3F49
:100D4000462C899E2232894C229308AC082E468C70
:100D5000433503AD068D528C02AE124F469C8A6C11
:100D60003291A448264A929499A402AF068E6A0C46
:100D700003B00AA65A1C8A8824A100B10BBE462CD7
:100D8000A1C82494430CB20AB4528C494424512281
:100D9000B30AB4528C49446D5201B4081C5F2C89CB
:100DA0001200B50C4F3A0C196F9583442A05B616FC
:100DB0005F3EAC0A65141945469108253409468200
:100DC00091602438B70692530C02B8089C3AAC5193
:100DD0004402B909B4521CC9480B01BA09BD4E9C62
:100DE00089CD322EBB0F3F460C894C2293C824215B
:100DF000899E00BC0E57421CE1545B453893C4A841
:100E000002BD0D57421CE154B542910A5509BE116D
:100E100057428C61442896454424E14C12A30ABFF2
:100E20000FD6422CA11C2694298A48120A00C00F12
:100E300057422CB11C38ABC868071A4D00C10F5778
:100E4000423CA11C3AABC868071A4D00C20F57427A
:100E5000AC99440E9B5564B4038D26C31057422CA5
:100E600049282207CE2A32DA814613C41057421C81
:100E700025891C36ABC868071A4D00C5105F423C77
:100E800061282807CE2A32DA814613C61357429CBE
:100E9000034922928824228B924424114908C710C6
:100EA000673A9CCA88AAEB48529485823200C80EE1
:100EB00057422CB11C74904A4B52E901C90E57425B
:100EC0003CA11C76904A4B52E901CA0F5742AC999B
:100ED000440E3948A525A9F400CB0F57421C25899B
:100EE0001C72904A4B52E901CC0B54430C9994224A
:100EF000D28500CD0B54432C899422D28500CE0C90
:100F000055439C892A49A6130500CF0C55430C096B
:100F1000454A92E94401D01047420C938AC8A22462
:100F2000114944870800D11157422C49282207C98A
:100F30004A164A8462AA09D20D5F422CB11C56910E
:100F4000F14D5201D30D5F423CA11C5891F14D521D
:100F500001D40E5F42AC99440EAAC8F826A900D568
:100F60000F5F422C4928228755647C935400D60E8B
:100F70005F421C25891C5491F14D5201D70D3F420F
:100F80000C194D529B55643401D813573EEC48451B
:100F900054895022940825529254C200D90C5742C9
:100FA0002CB11C24E39BA402DA0C57423CA11C2662
:100FB000E39BA402DB0D5742AC99440E91F14D52D4
:100FC00001DC0D57421C25891C22E39BA402DD0E87
:100FD000D6423C758848120AD1849A00DE0D4F42F1
:100FE0000CA945C67688485501DF1357422C928AD2
:100FF00048A2321149442A228948A202E00F5742EE
:101000002CB11C56961C624C938900E10F57423C50
:10101000A11C58961C624C938900E2105742AC996F
:10102000440E2A4B0E31A6C94400E31057422C4906
:1010300028228795258718D36422E41057421C255F
:10104000891C54961C624C938900E5105F423C61F8
:1010500028288795258718D36422E60F3F421C5D18
:1010600062924845492289A800E710573A9CCA88ED
:10107000AA3A921465A1A00C00E80F57422CB11CAB
:101080005691D10E5499A402E90F57423CA11C5825
:1010900091D10E5499A402EA105742AC99440EAA79
:1010A000C86807AA4C5201EB1057421C25891C54F2
:1010B00091D10E5499A402EC0A54430C9974A417CC
:1010C00002ED0954431CE5915E08EE0AD5429C8965
:1010D000F24C4F04EF0BD5420C09453CD31301F001
:1010E0000E57421CB51959748871935400F10E576C
:1010F000422C49282207499668BC09F20D57422C18
:10110000B11C5691F126A900F30D57423CA11C5881
:1011100091F126A900F40E5742AC99440EAAC87862
:10112000935400F50F57422C492822875564BC4937
:101130002A00F60E57421C25891C5491F126A9005D
:10114000F70CBE462CA11C6287084500F8114F3EE3
:10115000EC484554895022944849520903F90C57E8
:10116000422CB11C24E3D36422FA0C57423CA11C4C
:1011700026E3D36422FB0D5742AC99440E91F169EA
:101180003211FC0D57421C25891C22E3D36422FD39
:1011900010673A3CA11C26E3693291D2241500FE67
:1011A0000F5F3A0CA9CA128DAD449948A500FF11F2
:1011B000673A1C25891C22E3693291D2241500006C
:1011C000000004FFFF0000000000002300260029AB
:1011D0000000000000240027002A00000000002575
:1011E0000028002B00040404040404040402020286
:1011F0000202020303030303030102040810204058
:1012000080010204081020010204081020000000E0
:1012100008000201000003040700000000000000B5
:1012200000007E1711241FBECFEFD8E0DEBFCDBF78
:1012300011E0A0E0B1E0E6E4F2E302C005900D9217
:10124000A43BB107D9F726E0A4EBB1E001C01D92A1
:10125000AB3DB207E1F719E0C2E1D9E004C0219744
:10126000FE010E940D19C131D107C9F70E941D1856
:101270000C9421190C940000662329F06A3019F0AF
:10128000862F90E008958FEF9FEF0895CF92DF9221
:10129000EF92FF920F931F93CF93DF93EC01842F74
:1012A0008770E1E0F0E0082E01C0EE0F0A94EAF743
:1012B0003E2F7E0199E7E90EF11CD7019C9110E0C9
:1012C000923018F41E2F913029F150E0487FE8AD9C
:1012D000F9ADC880D980D60150969C91949F600149
:1012E000959FD00C11246C0D7D2D711DDF01A60F73
:1012F000B71F011115C08C91812B83278D9321502D
:10130000D1F7DF91CF911F910F91FF90EF90DF9078
:10131000CF90089530E0D9CF110F330F222389F3F6
:101320009C91912B93279C938F5F87702150811103
:10133000F3CF9CADA90FB11DF7019081923028F435
:10134000913009F031E011E0E9CF31E0E7CF80E002
:10135000089580E00895833018F48093D5060895A9
:1013600081E0FBCFCF93DF93C8E5D6E08FAFEAAD46
:10137000FBAD0190F081E02D8CE596E00995EAAD9A
:10138000FBAD0280F381E02D8CE596E0DF91CF91FB
:1013900009949B01DC011896ED91FC9141E067E115
:1013A0000994833081F028F4813099F08230A9F0DB
:1013B00008958730A9F08830C9F08430B1F4809165
:1013C00080008F7D03C0809180008F7780938000A4
:1013D000089584B58F7784BD089584B58F7DFBCF44
:1013E0008091B0008F778093B00008958091B00015
:1013F0008F7DF9CF1F93CF93DF93282F30E0F90132
:10140000E35FFD4E8491F901E750FE4ED491F9015E
:10141000EB51FE4EC491CC23A9F0162F81110E94EE
:10142000D109EC2FF0E0EE0FFF1FE552FE4EA59123
:10143000B4918FB7F894EC91111108C0D095DE23C8
:10144000DC938FBFDF91CF911F910895DE2BF8CFF2
:10145000CF93DF9390E0FC01E750FE4E24918B5137
:101460009E4EFC0184918823D1F090E0880F991F53
:10147000FC01EF52FE4EA591B491FC01E552FE4EE7
:10148000C591D491623071F49FB7F8943C91822F4A
:10149000809583238C93E8812E2B28839FBFDF9137
:1014A000CF9108958FB7F894EC912E2B2C938FBF8A
:1014B000F6CF3FB7F8948091540290915502A091D5
:1014C0005602B091570226B5A89B05C02F3F19F0D0
:1014D0000196A11DB11D3FBFBA2FA92F982F8827B4
:1014E000BC01CD01620F711D811D911D42E0660F8F
:1014F000771F881F991F4A95D1F708958F929F9261
:10150000AF92BF92CF92DF92EF92FF926B017C017C
:101510000E94590A4B015C01C114D104E104F10499
:10152000B9F00E94590A681979098A099B09683E2D
:1015300073408105910580F321E0C21AD108E108CA
:10154000F10888EE880E83E0981EA11CB11CE4CF40
:10155000FF90EF90DF90CF90BF90AF909F908F90D3
:10156000089585ED8093BC008091BC0084FDFCCF84
:1015700010922902089520910502260F3327331F68
:1015800021323105ECF420912902FC0190E080E049
:10159000243069F082E00895A09105022191AC0108
:1015A0004B515E4FA40FB52FB11D2C93019686179A
:1015B00098F380910502680F6093050280E008951A
:1015C00081E0089508958FEF9FEF08958FEF9FEFCB
:1015D00008958091E40190E0919581959109089595
:1015E000CF93DF93CB01EA01642F0E94BB0ACE01A7
:1015F000DF91CF910895CF93DF931F92CDB7DEB7E0
:10160000698361E0CE0101960E94BB0A81E090E00F
:101610000F90DF91CF910895DC011A96ED91FC9126
:1016200030E020E00994DC011496ED91FC9130E06B
:1016300020E040E060E10994DC011696ED91FC9118
:1016400030E020E040E069E10994DC011696ED917C
:10165000FC9130E020E040E068E109949A01DC016F
:101660001696ED91FC91462F67E10994EF92FF9257
:101670000F931F93CF93DF931F92CDB7DEB77C01FB
:101680008B01D8016C91673129F150F46531A0F4D8
:101690000F90DF91CF911F910F91FF90EF900895E0
:1016A0006A3118F16E3FA1F7F8014181498369E27F
:1016B000C7010E940C0B0BC0F80141814983D7017F
:1016C0001696ED91FC9130E020E0C70109950E5F80
:1016D0001F4FD7CFF80181818983AE014F5F5F4FE4
:1016E00061E0C7010E942E0BF2CF0F5F1F4FD701A1
:1016F0001696ED91FC9130E020E040E0C70109959D
:10170000C0CF462FDC011696ED91FC9130E020E031
:1017100066E10994462FDC011696ED91FC9130E0CC
:1017200020E065E10994EF92FF920F931F93CF930E
:10173000DF93EC01042F79016D3009F446C050F4B9
:101740006B30C9F1693009F49FC06A3009F465C093
:1017500080E046C06E3009F452C06F3099F70E94A5
:10176000250BF7011381110F110F110F6C89160F43
:1017700060E4CE010E948A0B612F62956F706061F8
:10178000CE010E948A0B612F6F70CE010E94810BE7
:10179000F7016481606BCE010E94810BF7014081EB
:1017A00051816281660F660F660FCE010E942E0B7B
:1017B0000150A1F72EC064E171E0442311F06FE005
:1017C00071E0CE010E94360B0AC0411110C068E0E2
:1017D00071E00E94360BE881F98182898C8B81E06F
:1017E000DF91CF911F910F91FF90EF90089561E0ED
:1017F00071E00E94360BE881F9818389EFCF0E9466
:10180000250B61E8CE010E948A0B602FCE010E9459
:10181000810BCE010E941C0BE2CFEA85FB8530E0F4
:1018200020E040E068E2CE010995EE81FF8130E0E2
:1018300020E040E064E1CE01099541E06BE4CE0197
:101840000E940C0BE881F981448169E2CE010E947B
:101850000C0B40E06BE4CE010E940C0BE881F98197
:10186000448169E2CE010E940C0B41E06BE4CE01A1
:101870000E940C0BE881F981458169E2CE010E944A
:101880000C0B69E171E09DCF8EE491E09983888330
:101890001C8AA5CF41E06DE40C940C0BDC01ED91AA
:1018A000FC9145856DE20C940C0BCF93DF93EC011A
:1018B00041E06CE40E940C0BCE01DF91CF910C94BF
:1018C0004E0CCF93DF93EC01662379F00E944A0C13
:1018D000CE010E944E0CCE010E94550C40E06CE4FB
:1018E000CE01DF91CF910C940C0B40E06DE40E948F
:1018F0000C0BEECF1F93CF93DF93EC01162F607884
:101900000E94610C612F6074CE010E94610C612FF6
:101910006072CE010E94610C612F6071CE010E9445
:10192000610C612F6870CE010E94610C612F6470A0
:10193000CE010E94610C612F6270CE010E94610C89
:10194000612F6170CE010E94610CCE010E944A0C91
:10195000CE010E944E0CCE010E94550CCE010E9479
:101960004A0CCE010E944E0C40E06CE4CE01DF91A7
:10197000CF911F910C940C0BDC011896ED91FC910A
:1019800030E020E040E069E10994DC011896ED9137
:10199000FC9130E020E040E068E10994CF93DF93D0
:1019A0001F92CDB7DEB76983BE016F5F7F4F0E9484
:1019B000C9090F90DF91CF910895EF92FF921F9385
:1019C000CF93DF93EC01162F7A010E94C50C60E4DF
:1019D000CE010E94CE0CE885F9859701412F67E181
:1019E000CE010995CE01DF91CF911F91FF90EF902D
:1019F0000C94BC0CEF92FF921F93CF93DF93EC01FA
:101A0000142F7901663181F138F4643109F44BC047
:101A1000653179F080E022C06831C9F150F1693157
:101A2000C9F78091E301882391F1CE010E94BC0C9B
:101A30002EC08091E301882319F0CE010E94BC0CD6
:101A4000CE010E94C50C60E0CE010E94CE0C612F39
:101A5000CE010E94CE0C81E08093E301DF91CF9113
:101A60001F91FF90EF900895642F0E94CE0C81E0AB
:101A7000F5CF8091E301882319F0CE010E94BC0CC0
:101A8000A701193138F4612FCE010E94DD0C1092AC
:101A9000E301EDCF68E1CE010E94DD0C185188E131
:101AA000E80EF11CEDCF8E898F3F11F488E78E8B05
:101AB000E885F9859701412F64E1CE01DF91CF914F
:101AC0001F91FF90EF9009940F93DC01DE963C91FB
:101AD000DE97431BD496ED91FC9109950F910895E3
:101AE000CF93DF93FC01A081B18182AD982F990F34
:101AF000990F990F95AF50969C915097903208F09E
:101B00009FE1990F990F990F94AF23AD922F990FE1
:101B1000990F990F96AF51963C915197682F620F8C
:101B20007727771F3617170614F4832F821B97AF7A
:101B3000EF01C05CDF4F880F880F880F890F888303
:101B4000219680EF888354968D919C915597813F83
:101B5000910508F48883EE5BFF4F56968C91808345
:101B6000DF91CF9108950F93FC01EB5BFF4F308124
:101B700031965081451730F4301738F0041728F0AB
:101B800080E013C03017D0F3FBCFFC01ED5BFF4FBB
:101B900030818C5B9F4FFC018081681740F481E0AD
:101BA000321718F081E0261758F70F910895321771
:101BB000C8F3E6CF2F923F924F925F926F927F923F
:101BC0008F929F92AF92BF92CF92DF92EF92FF924D
:101BD0000F931F93CF93DF93EC014C0183E4880EA6
:101BE000911CF4011082329720805E01F4E4AF0E64
:101BF000B11CF50120823FAC6E01F5E4CF0ED11C83
:101C0000F6013082359740807E01F6E4EF0EF11C3C
:101C1000F70140823496108132976080319670804F
:101C200032975080012F262D472D652DCE010E9421
:101C3000B30DCD58DF4F811114C01882DF91CF91C1
:101C40001F910F91FF90EF90DF90CF90BF90AF90DA
:101C50009F908F907F906F905F904F903F902F90CC
:101C6000089581E08883552011F0F40150826214B8
:101C700010F4F5016082371410F4F6017082141527
:101C8000E8F6F7011083DACF0F93DC01802FFD0116
:101C9000ED58FF4F90819923E9F12223D9F12230A9
:101CA00020F0023079F56F5F621B082F0170FD0193
:101CB00080FD32C0EB5BFF4F8081481758F13196B1
:101CC0008081481738F53297908131978081260FAF
:101CD0002617F0F46917D8F42FEF290F8217D0F4E4
:101CE000681708F4682F291708F4922F961BD696C8
:101CF000ED91FC91D7970480F581E02D292FCD013E
:101D0000099508C0033089F64F5F421BCECF682F7C
:101D1000691720F30F910895ED5BFF4F80816817DD
:101D2000C8F3319680816817A8F732969081319771
:101D30008081240F241778F4491760F42FEF290FBE
:101D4000821740F7481708F4482F291708F4922FF4
:101D5000941BCDCF482F4917E8F6F2CF0F939091FF
:101D6000A1066917A0F09091A206691780F49091DE
:101D70009F06891760F09091A006891740F4462FBE
:101D8000682F00E021E08CE596E00E94440E0F9160
:101D90000895EF92FF920F931F93CF93DF9380915B
:101DA00000010E94AB0910919D06169500919E06B8
:101DB0000695C0E0C017F9F0D0E0EC2EE00ED11788
:101DC000C1F08D2F8C0F80FF12C06C2F8D2F0E94C1
:101DD000AE0E6E2D8D2F0E94AE0E6C2FFD2EF10ECD
:101DE0008F2D0E94AE0E6E2D8F2D0E94AE0EDF5FE6
:101DF000E6CFCF5FDFCFDF91CF911F910F91FF90A3
:101E0000EF900895213039F020F0223031F0840F26
:101E10000895860F0895841B0895861B0895213028
:101E200039F020F0223031F0861B0895840F089598
:101E3000860F0895841B08955F926F927F928F9210
:101E40009F92AF92BF92CF92DF92EF92FF920F9349
:101E50001F93CF93DF935C01162F642EEC01C15BBF
:101E6000DF4FDC80ED804C0189E7880E911CFE80FD
:101E7000FD18C12EF11608F4CF2C5B800C85202FA5
:101E80004E2D6D2D8A810E94020F782E202F4E2D0F
:101E90006D2D852D0E940F0F482F662071F08A85C9
:101EA000F40180832C2D672DC5010E94440E1F155F
:101EB00048F01F19E394D12CDACF89858111F7CF2F
:101EC0008B85EECF1D0D1C83ED82DF91CF911F918D
:101ED0000F91FF90EF90DF90CF90BF90AF909F90C9
:101EE0008F907F906F905F900895DC0118964C91D1
:101EF0001897ED91FC911197249130E0042E02C0C7
:101F0000359527950A94E2F7842F860F883068F07C
:101F100031961196FC93EE93E49198E0941B01C0E6
:101F2000EE0F9A95EAF72E2B885018968C938FEF28
:101F30009FEF01C0880F6A95EAF780958223089584
:101F4000FC01E60FF11D849190E0982F88273196CF
:101F5000E4918E0F911D0895CF93DF932091A706F2
:101F60003091A8062817390709F490C0EC01909326
:101F7000A8068093A706FC0184918093B806319649
:101F8000E491E093B906FE013296E491E093BA063B
:101F9000FE013396E491E093BB06FE013496E49192
:101FA000E093BC06FE013596E491E093BD06FE0188
:101FB0003696E491E093BE06FE013796E491E093F5
:101FC000BF06FE013896E491E093C006FE01399603
:101FD000E491E093C106FE013A96E491E093C206D3
:101FE000FE013B96E491E093C306FE013C96E4912A
:101FF000E093C406FE013D96E491E093C506FE0120
:102000003E96E491E093C606FE013F96E491E0938C
:10201000C706FE017096E491E093C80661E1CE0127
:102020000E94A00F9093CA068093C90663E1CE0177
:102030000E94A00F9093CC068093CB0665E1CE0161
:102040000E94A00F9093CE068093CD068091A706A4
:102050009091A806892BD1F08091C5068093D10676
:102060004091C6064093D2069091D006992371F014
:10207000913079F49091C706891714F49093D106A2
:102080008091C806841714F48093D206DF91CF9113
:1020900008953091C2062091C406082E000C990BB9
:1020A000622F022E000C770B630F711D37FD7A959E
:1020B000861797071CF4320F3093D106241734F794
:1020C0002093D206E3CF6F927F928F929F92AF922E
:1020D000BF92CF92DF92EF92FF920F931F93CF9315
:1020E000DF93EC01062F142F7901FC01E55AFF4F15
:1020F0008081813009F445C0D0F1823009F44BC0B1
:10210000833009F452C0FE01EF5AFF4F008331962D
:10211000108337978081918147962FEFE216F10463
:1021200011F008F0E6C0E1E6EE16F10408F447C04D
:10213000FE01E159FF4F20813181820F931F9C01E5
:102140002F5F3F4FF9014491411142C0712C872DFF
:10215000DF91CF911F910F91FF90EF90DF90CF9083
:10216000BF90AF909F908F907F906F900895FE01E9
:10217000E35BFF4F0190F081E02DCE010995180F30
:10218000C2CFFE01E35BFF4F0190F081E02DCE0155
:102190000995081BB8CFFE01E35BFF4F0190F0816A
:1021A000E02DCE010995181BAECFFE01E35BFF4F7A
:1021B0000190F081E02DCE010995080FA4CFF1E444
:1021C000EF16F10408F4BBCFFE01E359FF4FB3CF84
:1021D000FC0144914E151F0409F086C00296009739
:1021E00009F4B4CF7E01FFE4EF0EF11CF7019183F7
:1021F0008083108671966081C7010E94750FF70178
:10220000868372966081C7010E94750FA82EF70120
:1022100087836E01F9E7CF0ED11CF6019081F7019B
:10222000928781E0911180E0F7018387FE01EE59EA
:10223000FF4FB0806B2DC7010E94750F882EFE01E5
:10224000ED59FF4F1081612FC7010E94750F982E25
:10225000FE01EC59FF4F0081602FC7010E94750FEE
:10226000015041E050E09A0101C0220F0A95EAF7BF
:10227000782E721AF701068110160CF068CFBA9406
:10228000CA0101C0880FBA94EAF7881AB4849A0C7C
:10229000115001C0440F1A95EAF7F42FF9199F2E37
:1022A0002B2D4F2F682DF70182810E94020F182FCE
:1022B000F70182832B2D492D682D83810E940F0FFA
:1022C000F7018383F1E0BF1609F47CC0BF1608F460
:1022D0003FC022E0B21609F47BC093E0B91609F4BE
:1022E00082C0082F212F38C0F9012491820F911D3F
:1022F00026CFFE01EF58FF4F00811181080F191FF3
:10230000680160E0C6010E94A00F080F191F62E07B
:10231000C6010E94A00FF4E0CF0ED11C8E159F05C0
:1023200080F3F801849190E0982F88273196E4910A
:102330008E2B009709F40ACFE816F90619F4C801A4
:1023400003964DCFF8013296E4910E0F111DE9CF9F
:10235000202F210F082F0A0D482F612FCE010E9438
:10236000B30D882309F4F3CEF701148215828E0190
:10237000025A1F4F4E01FFE58F0E911CF80160813C
:10238000C7010E94750F682EF4016081C7010E9489
:10239000750FB82E40E0662DCE010E941C0F41E063
:1023A0006B2DCE010E941C0F61E0C7010E94750FCA
:1023B0008111F0CFF70185818A1504F38285F6013A
:1023C0008083C5CEBA1821E0210F080F1B0DC4CFA2
:1023D00091E0392F301B21E0210F9A1901E0080FFD
:1023E000890F130FB9CF212F2A0D982F901B01E0D1
:1023F000080F81E0890FB0CFFF920F931F93CF9307
:10240000DF93C82FD62F109274068A01F12CF801A1
:1024100061918F01E0915E06F0915F068CE596E098
:1024200009958F3F9807F1F08E3F2FEF920779F3D0
:102430009C014D2F6C2F8CE596E00E9463109091CB
:10244000B706913049F030F0923041F0933041F0CE
:10245000F80EDDCFC80FFCCFD80FFACFC81BF8CFCE
:10246000D81BF6CF8F2DDF91CF911F910F91FF9049
:1024700008952CE339E030935F0620935E060C94B8
:10248000FC110F931F93CF93DF9300D0CDB7DEB72E
:1024900080E490E09A838983809100010E94AB09D7
:1024A00088E690E00E94AC0F18E000E0AE014F5FBC
:1024B0005F4F612F802F0E943912085F80919D0627
:1024C0008017A0F7185F80919E06811770F70F9014
:1024D0000F90DF91CF911F910F910895AF92BF920E
:1024E000CF92DF92EF92FF920F931F93CF93DF93E0
:1024F00000D000D01F92CDB7DEB78C01DC01DA9698
:10250000AC90DA97DB96EC90DB97ED91FC91B1887B
:10251000FE2CD12CC12CD801ED91FC911197808912
:10252000D8962D913C911C82FD828B83B8E08B9FC5
:10253000C00111248C9DA0018D9D500D9C9D500DBE
:102540001124240F351F3A832983D8011496ED9165
:10255000FC919E012F5F3F4F41E06FE0C80109955C
:10256000F3948F2D8E198A1528F4BFEFCB1ADB0A4E
:10257000FB1488F20F900F900F900F900F90DF9147
:10258000CF911F910F91FF90EF90DF90CF90BF9070
:10259000AF900895EF92FF921F93CF93DF93EC01DA
:1025A000142F7901683151F130F46431D1F0673181
:1025B000A9F080E006C0693109F443C06032C9F770
:1025C00081E0DF91CF911F91FF90EF900895F70187
:1025D00061917F01CE010E947A0C11501111F7CF49
:1025E000EFCF41E06CE40E940C0B41E06DE4CE01C2
:1025F0000E940C0BCE010E944E0CE2CF8F898823E3
:1026000049F0CE010E944A0CCE010E944E0CCE0130
:102610000E94550CCE010E944A0C40E06DE4CE01B0
:102620000E940C0BCE010E944E0C40E06CE4CE01E7
:102630000E940C0B81E08F8B6E89CE010E947A0C78
:10264000BFCF40E06DE40E940C0BCE010E944E0C07
:10265000CE010E94550CCE010E944A0CCE010E9470
:102660004E0C1F8AADCF0F931F93CF93DF93EC01D6
:10267000862F642F8C3208F03AC08A3208F060C08E
:10268000883209F44BC0893209F460C0803408F400
:1026900075C0982F9F73FE01E90FF11D868D8F3F46
:1026A00009F44EC0903108F436C0282F30E0F9010B
:1026B000E35FFD4E8491F901E750FE4E0491F9016C
:1026C000EB51FE4E1491112379F081110E94D10932
:1026D000E12FF0E0EE0FFF1FE953FE4EA591B491FC
:1026E000EC910E2381E009F480E0898F29C08D32BE
:1026F00099F108F4CBCF94EB980F923008F0C6CF45
:102700008F73C80FD11D8E8D411134C061E00E94BE
:10271000280A60E08E8D0E94FA0912C08E01025EC6
:102720001F4FD0E0F80181918F018F3F31F061E0C0
:10273000D03108F062E00E94280ADF5FD63191F7BD
:1027400081E0DF91CF911F910F91089570E090E0AB
:1027500080E00E947E0AF4CF85E090E0433010F0E4
:1027600082E090E0880F991F880F991F05970197C5
:10277000F1F7E6CF62E00E94280AE2CF80E0E1CFE5
:10278000CF92DF92EF92FF920F931F93CF93DF933D
:10279000809100010E94AB09D0919E06D150C0915A
:1027A0009D06C150D12CCD1728F48C2FCD2FD82FBA
:1027B000DD24D3940C2F0695CC24CA94DD2311F08C
:1027C000CC24C3948EEFE82ECF3F09F0EC2EF12CF1
:1027D00010E06F2D812FDD2011F0612F8F2D0E94D1
:1027E000AE0E0D1B07FF02C0FC0C0C0F1F5FE116A5
:1027F00080F7DF91CF911F910F91FF90EF90DF90C5
:10280000CF900895BF92CF92DF92EF92FF920F93F5
:102810001F93CF93DF9300D01F92CDB7DEB7809187
:10282000780190917901A0917A0189839A83AB8391
:10283000809100010E94AB0988E690E00E94AC0FF5
:1028400097E0D92E2DEFC22EE12CFE2C11E000E0F6
:10285000212F4F2D6C2D8CE596E00E94440E212FE8
:102860004F2D6D2D8CE596E00E94440E84E1B82E2C
:10287000BF0C01E0212F4C2D6B2D8CE596E00E94C2
:10288000440E212F4D2D6B2D8CE596E00E94440EB9
:10289000F3941F5F1830D9F687E0E80EC394D39401
:1028A0008AE2E812D2CF1092B706AE014F5F5F4FB7
:1028B00062E38DEF0E94391212E01093B706AE0169
:1028C0004F5F5F4F62E383E00E9439121092B706B8
:1028D00080919D06AE014F5F5F4F68E283500E947A
:1028E00039121093B70680919D06AE014F5F5F4F7E
:1028F00068E28D5F0E9439120093B70680919D06B1
:10290000AE014F5F5F4F6DEF8A500E94391213E0A6
:102910001093B70680919D06AE014F5F5F4F63E055
:102920008A500E9439120093B70660919E06635048
:1029300080919D06AE014F5F5F4F84510E94391216
:102940001093B70660919E066D5F80919D06AE0163
:102950004F5F5F4F84510E9439121092B7060F905B
:102960000F900F90DF91CF911F910F91FF90EF90FB
:10297000DF90CF90BF9008950F931F93CF93DF9375
:102980008091D8010E94AB09D0919E0610919D06BE
:102990000D2F212F40E060E08CE596E00E94B30D02
:1029A000C0E081110EC0DF91CF911F910F9108956A
:1029B00000E0212F4C2F60E08CE596E00E94440E51
:1029C000CF5FDC13F5CFEFCFCF92DF92EF92FF9284
:1029D0000F931F93CF93DF936C01EB017B01E40E08
:1029E000F51E10E000E0CE15DF0561F06991D6011B
:1029F000ED91FC910190F081E02DC6010995080F41
:102A0000191FF1CFC801DF91CF911F910F91FF9056
:102A1000EF90DF90CF900895CF92DF92EF92FF92E8
:102A20000F931F93CF93DF93EC016C0124E0C20E50
:102A3000D11CFC01E158FF4F0190F081E02DC6014F
:102A400009958E3FEFEF9E07C8F48E010E571F4F7A
:102A50007E01F1E8EF0EF11C9C01F8014081F701C5
:102A60006081C6010E946310C15ADF4F9881913086
:102A7000A9F078F09230A1F09330B9F081E090E0C5
:102A8000DF91CF911F910F91FF90EF90DF90CF904A
:102A90000895F7019081890F8083F0CFF801FACF74
:102AA000F7019081981B892FF7CFF801FACF08958D
:102AB00090E080E00895FC01A081B18150962C91B6
:102AC00082AD38E0839FC0011124289FA001299F77
:102AD000500D112470E060E080AD91AD0C9413199D
:102AE000BF92CF92DF92EF92FF920F931F93CF93FB
:102AF000DF938C018FB7F894C0905002D0905102B0
:102B0000E0905202F09053028FBF80E1C80E87E23E
:102B1000D81EE11CF11CD0E0C0E0BB24B3948CE5CE
:102B200096E00E945B15F80109958CE596E00E94FD
:102B30006E128CE596E00E94130B21968091D801CD
:102B40008B258093D8012FB7F894809150029091F3
:102B50005102A0915202B09153022FBF8C159D05D6
:102B6000AE05BF05E0F2CE01DF91CF911F910F912D
:102B7000FF90EF90DF90CF90BF9008950F931F9339
:102B8000CF93DF938C01EB01809100010E94AB0990
:102B900088E398E00E94AC0F8CE596E00E945B15FC
:102BA000A8016CE080E00E943912CE016AE070E07A
:102BB0000E94F91880E3643618F064568F5FFBCFEB
:102BC0008093D90180E36A3018F06A508F5FFBCFA1
:102BD0008093DA0180E3611129C08093DB011092B8
:102BE000DC0169ED71E08DED91E00E941A198EE231
:102BF0008093E001CE016AE070E00E94F918805DE8
:102C00008093E1011092E2014DED51E068E180E036
:102C10000E9439128CE596E00E946E128CE596E0D7
:102C2000DF91CF911F910F910C94130B61508F5F27
:102C3000D2CF1F920F920FB60F9211242F933F9372
:102C40008F939F93AF93BF938091500290915102C5
:102C5000A0915202B091530230914F0223E0230F12
:102C60002D3758F50196A11DB11D20934F02809379
:102C7000500290935102A0935202B093530280915C
:102C8000540290915502A0915602B09157020196BC
:102C9000A11DB11D8093540290935502A09356023A
:102CA000B0935702BF91AF919F918F913F912F9118
:102CB0000F900FBE0F901F90189526E8230F0296D5
:102CC000A11DB11DD2CF1F920F920FB60F921124EA
:102CD0002F933F934F935F936F937F938F939F9324
:102CE000AF93BF93EF93FF938091B900887F8036B5
:102CF00009F44AC0F0F5883209F4A5C018F580310E
:102D000009F499C0B8F4882309F4F5C0883009F4AF
:102D100092C0FF91EF91BF91AF919F918F917F9161
:102D20006F915F914F913F912F910F900FBE0F9038
:102D30001F901895883109F486C0803251F780932E
:102D4000280214C0803409F49BC040F48033B9F3E6
:102D50008833F9F68093280285ECAEC0803509F4FB
:102D600083C0883509F494C0883499F60E94B10A6A
:102D7000D0CF883909F48AC038F5883729F050F463
:102D8000883611F0803729F683E08093290210926B
:102D9000270255C0883809F479C0803919F0803885
:102DA00009F0B7CF80912702803208F06FC0E09120
:102DB000270281E08E0F809327028091BB00F0E014
:102DC000E95FFD4F80833BC0803B39F0D0F4803A0F
:102DD00009F477C0883A09F09CCF84E080932902F7
:102DE0001092060210920502F0E0E0E00995809151
:102DF000050281110FC081E0809305021092E50168
:102E000009C0803C09F4A8CF883C09F4A5CF883BD1
:102E100009F07FCFE091060281E08E0F80930602D9
:102E2000F0E0EB51FE4F80818093BB009091060251
:102E30008091050229C080914E028093BB0085ECF1
:102E40008093BC0066CF90914D0280914C02981700
:102E500058F5E0914D0281E08E0F80934D02F0E035
:102E6000E45DFD4F8081E9CFE0914D0281E08E0F5E
:102E700080934D028091BB00F0E0E45DFD4F8083C4
:102E800090914D0280914C029817C8F285E8D8CFF6
:102E9000E0914D0281E08E0F80934D028091BB0046
:102EA000F0E0E45DFD4F808380912B0281115ECFC5
:102EB00081E080932A0284EA8093BC001092290268
:102EC00028CF85EC8093BC001092290280912702C4
:102ED000803230F4E0912702F0E0E95FFD4F10828C
:102EE0006091270270E087E092E0F0E0E0E0099571
:102EF000109227020ECF1092280238CFCF93109253
:102F00005B0610925A068CE399E09093D806809362
:102F1000D7061092D9061092DA06109274068AE645
:102F200091E0909359068093580610925D06109296
:102F30005C06109271061092680610926906109253
:102F40006A0610926B068FEF809372068093760666
:102F5000EAE7F6E080E996E0CFEFC1938E179F078E
:102F6000E1F783E99BE090936106809360068AEF26
:102F70009CE090936306809362068AEC92E19093C2
:102F800065068093640683E393E1909367068093DC
:102F9000660630E020E040E069E08CE596E00E94C3
:102FA000930B1092A8061092A70686E499E09093DE
:102FB00091068093900688E592E090939506809321
:102FC000940688E080939606109297061092B406B5
:102FD0001092D40681E08093D5068093D60682E7CE
:102FE00091E090939306809392068CE596E00E9480
:102FF000700D1092A3061092A506C093A406C0936C
:10300000A606E0919206F09193060280F381E02DEE
:103010008CE596E0099589EA99E09093AA06809359
:10302000A9061092B70683E18093860682E1809319
:103030008706C0938506CF910895789484B5826001
:1030400084BD84B5816084BD85B5826085BD85B54C
:10305000816085BD80916E00816080936E001092CA
:103060008100809181008260809381008091810045
:1030700081608093810080918000816080938000D6
:103080008091B10084608093B1008091B000816034
:103090008093B00080917A00846080937A00809160
:1030A0007A00826080937A0080917A0081608093B8
:1030B0007A0080917A00806880937A001092C10033
:1030C000E0916006F091610630E020E040E06AE0C7
:1030D0008CE596E009958091D606882321F08CE551
:1030E00096E00E945B1580E00E94B2098CE596E0B4
:1030F0000E946E12C091970680919606C80FE091CB
:103100005C06F0915D068189C81708F468C08CE5FB
:1031100096E00E94130B80E00E94B209E0916006E5
:10312000F091610630E020E040E06BE08CE596E055
:10313000099581E080930001C0E0D0E082E094E155
:103140000E947015BC018BE791E00E94BE1568E8F3
:1031500073E180E090E00E947E0A8CEB94E10E9493
:103160007015BC018AE891E00E94BE1568E873E121
:1031700080E090E00E947E0A81E492E10E94701556
:10318000BC0187E991E00E94BE1568E873E180E028
:1031900090E00E947E0A89EC9EE00E947015BC01BE
:1031A0008EE991E00E94BE1568E873E180E090E04E
:1031B0000E947E0A80EC93E10E947015BC0189EAAE
:1031C00091E00E94BE1568E873E180E090E00E9403
:1031D0007E0A209709F4B2CF0E940000AFCF809101
:1031E000D606882321F08CE596E00E945B158C2F93
:1031F0007BCFAA1BBB1B51E107C0AA1FBB1FA61791
:10320000B70710F0A61BB70B881F991F5A95A9F78F
:1032100080959095BC01CD010895EE0FFF1F05909C
:10322000F491E02D0994DC0101C06D9341505040B0
:10323000E0F70895FB01DC0101900D920020E1F719
:063240000895F894FFCF91
:10324600011815A015C019FF1815A115C819FF18E2
:1032560015AE19FF1815AF19FF1815AE15D516803E
:1032660015A8163F15D316001540158D16141520F2
:10327600160015A115C815DA1612158116CF15D91F
:1032860016F115DB1640152E15A415A619FF00011B
:10329600140A6464323200127A0000042896100878
:1032A600000080004000000000000C15E4145815D2
:1032B6005715700DDA0D640D414200647261772076
:1032C600636C6970207465737400636C6561722049
:1032D60073637265656E0064726177204000647284
:1032E600617720706978656C0064726177206C691B
:0432F6006E65000001
:107E0000112484B714BE81FFF0D085E080938100F7
:107E100082E08093C00088E18093C10086E0809377
:107E2000C20080E18093C4008EE0C9D0259A86E02C
:107E300020E33CEF91E0309385002093840096BBD3
:107E4000B09BFECF1D9AA8958150A9F7CC24DD24C4
:107E500088248394B5E0AB2EA1E19A2EF3E0BF2EE7
:107E6000A2D0813461F49FD0082FAFD0023811F036
:107E7000013811F484E001C083E08DD089C08234E0
:107E800011F484E103C0853419F485E0A6D080C0E4
:107E9000853579F488D0E82EFF2485D0082F10E0AE
:107EA000102F00270E291F29000F111F8ED06801E7
:107EB0006FC0863521F484E090D080E0DECF843638
:107EC00009F040C070D06FD0082F6DD080E0C81688
:107ED00080E7D80618F4F601B7BEE895C0E0D1E017
:107EE00062D089930C17E1F7F0E0CF16F0E7DF06D8
:107EF00018F0F601B7BEE89568D007B600FCFDCFD4
:107F0000A601A0E0B1E02C9130E011968C91119780
:107F100090E0982F8827822B932B1296FA010C0160
:107F200087BEE89511244E5F5F4FF1E0A038BF0790
:107F300051F7F601A7BEE89507B600FCFDCF97BE46
:107F4000E89526C08437B1F42ED02DD0F82E2BD052
:107F50003CD0F601EF2C8F010F5F1F4F84911BD097
:107F6000EA94F801C1F70894C11CD11CFA94CF0C13
:107F7000D11C0EC0853739F428D08EE10CD085E9AC
:107F80000AD08FE07ACF813511F488E018D01DD067
:107F900080E101D065CF982F8091C00085FFFCCF94
:107FA0009093C60008958091C00087FFFCCF809118
:107FB000C00084FD01C0A8958091C6000895E0E648
:107FC000F0E098E1908380830895EDDF803219F02E
:107FD00088E0F5DFFFCF84E1DECF1F93182FE3DFCA
:107FE0001150E9F7F2DF1F91089580E0E8DFEE27F6
:047FF000FF270994CA
:027FFE00040479
:0400000300007E007B
:00000001FF
